{
  "contractName": "Assu",
  "abi": [
    {
      "inputs": [
        {
          "internalType": "address",
          "name": "secu",
          "type": "address"
        }
      ],
      "stateMutability": "nonpayable",
      "type": "constructor"
    },
    {
      "anonymous": false,
      "inputs": [
        {
          "indexed": false,
          "internalType": "uint256",
          "name": "client",
          "type": "uint256"
        }
      ],
      "name": "InsuredChanged",
      "type": "event"
    },
    {
      "anonymous": false,
      "inputs": [
        {
          "indexed": false,
          "internalType": "address",
          "name": "whoDeposited",
          "type": "address"
        },
        {
          "indexed": false,
          "internalType": "uint256",
          "name": "valueDeposited",
          "type": "uint256"
        }
      ],
      "name": "deposit",
      "type": "event"
    },
    {
      "inputs": [
        {
          "internalType": "uint256",
          "name": "_price",
          "type": "uint256"
        },
        {
          "internalType": "uint256",
          "name": "_BRMR",
          "type": "uint256"
        },
        {
          "internalType": "uint256",
          "name": "_reimburseSecu",
          "type": "uint256"
        },
        {
          "internalType": "uint256",
          "name": "_actNumber",
          "type": "uint256"
        },
        {
          "internalType": "uint256",
          "name": "_clientsCode",
          "type": "uint256"
        },
        {
          "internalType": "address",
          "name": "_pro",
          "type": "address"
        }
      ],
      "name": "reimburseClient",
      "outputs": [],
      "stateMutability": "nonpayable",
      "type": "function"
    },
    {
      "inputs": [
        {
          "internalType": "address",
          "name": "_addr",
          "type": "address"
        },
        {
          "internalType": "uint256",
          "name": "_actNumber",
          "type": "uint256"
        },
        {
          "internalType": "uint256",
          "name": "_policy",
          "type": "uint256"
        }
      ],
      "name": "modifyPolicies",
      "outputs": [],
      "stateMutability": "nonpayable",
      "type": "function"
    },
    {
      "inputs": [
        {
          "internalType": "uint256[]",
          "name": "_actNumber",
          "type": "uint256[]"
        },
        {
          "internalType": "uint256[]",
          "name": "_policies",
          "type": "uint256[]"
        },
        {
          "internalType": "uint256[]",
          "name": "_clients",
          "type": "uint256[]"
        }
      ],
      "name": "createNewPolicyContract",
      "outputs": [],
      "stateMutability": "nonpayable",
      "type": "function"
    },
    {
      "inputs": [
        {
          "internalType": "address",
          "name": "_addr",
          "type": "address"
        },
        {
          "internalType": "uint256",
          "name": "_secuCode",
          "type": "uint256"
        }
      ],
      "name": "addInsured",
      "outputs": [],
      "stateMutability": "nonpayable",
      "type": "function"
    },
    {
      "inputs": [
        {
          "internalType": "address",
          "name": "_addr",
          "type": "address"
        },
        {
          "internalType": "uint256",
          "name": "_secuCode",
          "type": "uint256"
        }
      ],
      "name": "removeInsured",
      "outputs": [],
      "stateMutability": "nonpayable",
      "type": "function"
    },
    {
      "inputs": [],
      "name": "depositCotisation",
      "outputs": [],
      "stateMutability": "payable",
      "type": "function",
      "payable": true
    },
    {
      "inputs": [],
      "name": "depositTreasury",
      "outputs": [],
      "stateMutability": "payable",
      "type": "function",
      "payable": true
    },
    {
      "inputs": [],
      "name": "withdraw",
      "outputs": [],
      "stateMutability": "nonpayable",
      "type": "function"
    },
    {
      "inputs": [
        {
          "internalType": "uint256",
          "name": "_secuCode",
          "type": "uint256"
        }
      ],
      "name": "getPolicy",
      "outputs": [
        {
          "internalType": "address",
          "name": "",
          "type": "address"
        }
      ],
      "stateMutability": "view",
      "type": "function",
      "constant": true
    }
  ],
  "bytecode": "0x60806040523480156200001157600080fd5b5060405162001aaa38038062001aaa833981810160405281019062000037919062000129565b33600160006101000a81548173ffffffffffffffffffffffffffffffffffffffff021916908373ffffffffffffffffffffffffffffffffffffffff160217905550806000806101000a81548173ffffffffffffffffffffffffffffffffffffffff021916908373ffffffffffffffffffffffffffffffffffffffff160217905550506200015b565b600080fd5b600073ffffffffffffffffffffffffffffffffffffffff82169050919050565b6000620000f182620000c4565b9050919050565b6200010381620000e4565b81146200010f57600080fd5b50565b6000815190506200012381620000f8565b92915050565b600060208284031215620001425762000141620000bf565b5b6000620001528482850162000112565b91505092915050565b61193f806200016b6000396000f3fe6080604052600436106100865760003560e01c806352c103ff1161005957806352c103ff146101315780636e592f631461015a5780637e916d1b14610164578063b65261e91461016e578063d0fb6fd21461019757610086565b80632a39c5391461008b5780632b07fce3146100b45780633ccfd60b146100f15780634e10d92314610108575b600080fd5b34801561009757600080fd5b506100b260048036038101906100ad919061105c565b6101c0565b005b3480156100c057600080fd5b506100db60048036038101906100d6919061109c565b6104d4565b6040516100e891906110d8565b60405180910390f35b3480156100fd57600080fd5b506101066105c1565b005b34801561011457600080fd5b5061012f600480360381019061012a91906110f3565b6106ec565b005b34801561013d57600080fd5b506101586004803603810190610153919061105c565b61084b565b005b610162610b17565b005b61016c610b52565b005b34801561017a57600080fd5b506101956004803603810190610190919061129f565b610be7565b005b3480156101a357600080fd5b506101be60048036038101906101b99190611346565b610de9565b005b3373ffffffffffffffffffffffffffffffffffffffff1660008054906101000a900473ffffffffffffffffffffffffffffffffffffffff1673ffffffffffffffffffffffffffffffffffffffff16148061026757503373ffffffffffffffffffffffffffffffffffffffff16600160009054906101000a900473ffffffffffffffffffffffffffffffffffffffff1673ffffffffffffffffffffffffffffffffffffffff16145b61027057600080fd5b60011515600360008473ffffffffffffffffffffffffffffffffffffffff1673ffffffffffffffffffffffffffffffffffffffff16815260200190815260200160002060009054906101000a900460ff16151514610303576040517f08c379a00000000000000000000000000000000000000000000000000000000081526004016102fa90611430565b60405180910390fd5b60008054906101000a900473ffffffffffffffffffffffffffffffffffffffff1673ffffffffffffffffffffffffffffffffffffffff1663e0794a6e826040518263ffffffff1660e01b815260040161035c919061145f565b600060405180830381600087803b15801561037657600080fd5b505af115801561038a573d6000803e3d6000fd5b5050505060008054906101000a900473ffffffffffffffffffffffffffffffffffffffff1673ffffffffffffffffffffffffffffffffffffffff16638fb4e1cd82336040518363ffffffff1660e01b81526004016103e992919061147a565b600060405180830381600087803b15801561040357600080fd5b505af1158015610417573d6000803e3d6000fd5b50505050816002600083815260200190815260200160002060006101000a81548173ffffffffffffffffffffffffffffffffffffffff021916908373ffffffffffffffffffffffffffffffffffffffff16021790555060016004600083815260200190815260200160002060006101000a81548160ff0219169083151502179055507f4ad707063dc4c1b53f54a8eeaea555674a56b8c155f22c4a8e0b22c7bc696a4a816040516104c8919061145f565b60405180910390a15050565b60003373ffffffffffffffffffffffffffffffffffffffff1660008054906101000a900473ffffffffffffffffffffffffffffffffffffffff1673ffffffffffffffffffffffffffffffffffffffff16148061057d57503373ffffffffffffffffffffffffffffffffffffffff16600160009054906101000a900473ffffffffffffffffffffffffffffffffffffffff1673ffffffffffffffffffffffffffffffffffffffff16145b61058657600080fd5b6002600083815260200190815260200160002060009054906101000a900473ffffffffffffffffffffffffffffffffffffffff169050919050565b3373ffffffffffffffffffffffffffffffffffffffff16600160009054906101000a900473ffffffffffffffffffffffffffffffffffffffff1673ffffffffffffffffffffffffffffffffffffffff161461061b57600080fd5b6000600160009054906101000a900473ffffffffffffffffffffffffffffffffffffffff1673ffffffffffffffffffffffffffffffffffffffff1647604051610663906114d4565b60006040518083038185875af1925050503d80600081146106a0576040519150601f19603f3d011682016040523d82523d6000602084013e6106a5565b606091505b50509050806106e9576040517f08c379a00000000000000000000000000000000000000000000000000000000081526004016106e090611535565b60405180910390fd5b50565b3373ffffffffffffffffffffffffffffffffffffffff16600160009054906101000a900473ffffffffffffffffffffffffffffffffffffffff1673ffffffffffffffffffffffffffffffffffffffff161461074657600080fd5b60011515600360008573ffffffffffffffffffffffffffffffffffffffff1673ffffffffffffffffffffffffffffffffffffffff16815260200190815260200160002060009054906101000a900460ff161515146107d9576040517f08c379a00000000000000000000000000000000000000000000000000000000081526004016107d090611430565b60405180910390fd5b8273ffffffffffffffffffffffffffffffffffffffff166317b1513783836040518363ffffffff1660e01b8152600401610814929190611555565b600060405180830381600087803b15801561082e57600080fd5b505af1158015610842573d6000803e3d6000fd5b50505050505050565b3373ffffffffffffffffffffffffffffffffffffffff1660008054906101000a900473ffffffffffffffffffffffffffffffffffffffff1673ffffffffffffffffffffffffffffffffffffffff1614806108f257503373ffffffffffffffffffffffffffffffffffffffff16600160009054906101000a900473ffffffffffffffffffffffffffffffffffffffff1673ffffffffffffffffffffffffffffffffffffffff16145b6108fb57600080fd5b60011515600360008473ffffffffffffffffffffffffffffffffffffffff1673ffffffffffffffffffffffffffffffffffffffff16815260200190815260200160002060009054906101000a900460ff1615151461098e576040517f08c379a000000000000000000000000000000000000000000000000000000000815260040161098590611430565b60405180910390fd5b600115156004600083815260200190815260200160002060009054906101000a900460ff161515146109f5576040517f08c379a00000000000000000000000000000000000000000000000000000000081526004016109ec906115ca565b60405180910390fd5b6002600082815260200190815260200160002060006101000a81549073ffffffffffffffffffffffffffffffffffffffff02191690556004600082815260200190815260200160002060006101000a81549060ff021916905560008054906101000a900473ffffffffffffffffffffffffffffffffffffffff1673ffffffffffffffffffffffffffffffffffffffff16638fb4e1cd8260006040518363ffffffff1660e01b8152600401610aaa92919061147a565b600060405180830381600087803b158015610ac457600080fd5b505af1158015610ad8573d6000803e3d6000fd5b505050507f4ad707063dc4c1b53f54a8eeaea555674a56b8c155f22c4a8e0b22c7bc696a4a81604051610b0b919061145f565b60405180910390a15050565b7f47e7ef24b3022e382e65b1298581281f0ae273ac4f76464efcf5b06769264f2f3334604051610b489291906115ea565b60405180910390a1565b3373ffffffffffffffffffffffffffffffffffffffff16600160009054906101000a900473ffffffffffffffffffffffffffffffffffffffff1673ffffffffffffffffffffffffffffffffffffffff1614610bac57600080fd5b7f47e7ef24b3022e382e65b1298581281f0ae273ac4f76464efcf5b06769264f2f3334604051610bdd9291906115ea565b60405180910390a1565b3373ffffffffffffffffffffffffffffffffffffffff16600160009054906101000a900473ffffffffffffffffffffffffffffffffffffffff1673ffffffffffffffffffffffffffffffffffffffff1614610c4157600080fd5b60008060009054906101000a900473ffffffffffffffffffffffffffffffffffffffff1673ffffffffffffffffffffffffffffffffffffffff16637282604f85856040518363ffffffff1660e01b8152600401610c9f9291906116d1565b6020604051808303816000875af1158015610cbe573d6000803e3d6000fd5b505050506040513d601f19601f82011682018060405250810190610ce2919061171d565b90506001600360008373ffffffffffffffffffffffffffffffffffffffff1673ffffffffffffffffffffffffffffffffffffffff16815260200190815260200160002060006101000a81548160ff0219169083151502179055506005819080600181540180825580915050600190039060005260206000200160009091909190916101000a81548173ffffffffffffffffffffffffffffffffffffffff021916908373ffffffffffffffffffffffffffffffffffffffff16021790555060005b8251811015610de257610dcf82848381518110610dc257610dc161174a565b5b60200260200101516101c0565b8080610dda906117a8565b915050610da2565b5050505050565b3373ffffffffffffffffffffffffffffffffffffffff1660008054906101000a900473ffffffffffffffffffffffffffffffffffffffff1673ffffffffffffffffffffffffffffffffffffffff1614610e4157600080fd5b60006002600084815260200190815260200160002060009054906101000a900473ffffffffffffffffffffffffffffffffffffffff16905060008173ffffffffffffffffffffffffffffffffffffffff16631859fe4b898989896040518563ffffffff1660e01b8152600401610eba94939291906117f0565b602060405180830381865afa158015610ed7573d6000803e3d6000fd5b505050506040513d601f19601f82011682018060405250810190610efb919061184a565b905060008373ffffffffffffffffffffffffffffffffffffffff1682604051610f23906114d4565b60006040518083038185875af1925050503d8060008114610f60576040519150601f19603f3d011682016040523d82523d6000602084013e610f65565b606091505b5050905080610fa9576040517f08c379a0000000000000000000000000000000000000000000000000000000008152600401610fa0906118e9565b60405180910390fd5b505050505050505050565b6000604051905090565b600080fd5b600080fd5b600073ffffffffffffffffffffffffffffffffffffffff82169050919050565b6000610ff382610fc8565b9050919050565b61100381610fe8565b811461100e57600080fd5b50565b60008135905061102081610ffa565b92915050565b6000819050919050565b61103981611026565b811461104457600080fd5b50565b60008135905061105681611030565b92915050565b6000806040838503121561107357611072610fbe565b5b600061108185828601611011565b925050602061109285828601611047565b9150509250929050565b6000602082840312156110b2576110b1610fbe565b5b60006110c084828501611047565b91505092915050565b6110d281610fe8565b82525050565b60006020820190506110ed60008301846110c9565b92915050565b60008060006060848603121561110c5761110b610fbe565b5b600061111a86828701611011565b935050602061112b86828701611047565b925050604061113c86828701611047565b9150509250925092565b600080fd5b6000601f19601f8301169050919050565b7f4e487b7100000000000000000000000000000000000000000000000000000000600052604160045260246000fd5b6111948261114b565b810181811067ffffffffffffffff821117156111b3576111b261115c565b5b80604052505050565b60006111c6610fb4565b90506111d2828261118b565b919050565b600067ffffffffffffffff8211156111f2576111f161115c565b5b602082029050602081019050919050565b600080fd5b600061121b611216846111d7565b6111bc565b9050808382526020820190506020840283018581111561123e5761123d611203565b5b835b8181101561126757806112538882611047565b845260208401935050602081019050611240565b5050509392505050565b600082601f83011261128657611285611146565b5b8135611296848260208601611208565b91505092915050565b6000806000606084860312156112b8576112b7610fbe565b5b600084013567ffffffffffffffff8111156112d6576112d5610fc3565b5b6112e286828701611271565b935050602084013567ffffffffffffffff81111561130357611302610fc3565b5b61130f86828701611271565b925050604084013567ffffffffffffffff8111156113305761132f610fc3565b5b61133c86828701611271565b9150509250925092565b60008060008060008060c0878903121561136357611362610fbe565b5b600061137189828a01611047565b965050602061138289828a01611047565b955050604061139389828a01611047565b94505060606113a489828a01611047565b93505060806113b589828a01611047565b92505060a06113c689828a01611011565b9150509295509295509295565b600082825260208201905092915050565b7f6e6f74206120706f6c6963792077652068617665000000000000000000000000600082015250565b600061141a6014836113d3565b9150611425826113e4565b602082019050919050565b600060208201905081810360008301526114498161140d565b9050919050565b61145981611026565b82525050565b60006020820190506114746000830184611450565b92915050565b600060408201905061148f6000830185611450565b61149c60208301846110c9565b9392505050565b600081905092915050565b50565b60006114be6000836114a3565b91506114c9826114ae565b600082019050919050565b60006114df826114b1565b9150819050919050565b7f776974686472617720696d706f737369626c6500000000000000000000000000600082015250565b600061151f6013836113d3565b915061152a826114e9565b602082019050919050565b6000602082019050818103600083015261154e81611512565b9050919050565b600060408201905061156a6000830185611450565b6115776020830184611450565b9392505050565b7f6e6f74206120636c69656e740000000000000000000000000000000000000000600082015250565b60006115b4600c836113d3565b91506115bf8261157e565b602082019050919050565b600060208201905081810360008301526115e3816115a7565b9050919050565b60006040820190506115ff60008301856110c9565b61160c6020830184611450565b9392505050565b600081519050919050565b600082825260208201905092915050565b6000819050602082019050919050565b61164881611026565b82525050565b600061165a838361163f565b60208301905092915050565b6000602082019050919050565b600061167e82611613565b611688818561161e565b93506116938361162f565b8060005b838110156116c45781516116ab888261164e565b97506116b683611666565b925050600181019050611697565b5085935050505092915050565b600060408201905081810360008301526116eb8185611673565b905081810360208301526116ff8184611673565b90509392505050565b60008151905061171781610ffa565b92915050565b60006020828403121561173357611732610fbe565b5b600061174184828501611708565b91505092915050565b7f4e487b7100000000000000000000000000000000000000000000000000000000600052603260045260246000fd5b7f4e487b7100000000000000000000000000000000000000000000000000000000600052601160045260246000fd5b60006117b382611026565b91507fffffffffffffffffffffffffffffffffffffffffffffffffffffffffffffffff82036117e5576117e4611779565b5b600182019050919050565b60006080820190506118056000830187611450565b6118126020830186611450565b61181f6040830185611450565b61182c6060830184611450565b95945050505050565b60008151905061184481611030565b92915050565b6000602082840312156118605761185f610fbe565b5b600061186e84828501611835565b91505092915050565b7f7265696d62757273656d656e7420696d706f737369626c652c2063616c6c207460008201527f6865206173737572616e63650000000000000000000000000000000000000000602082015250565b60006118d3602c836113d3565b91506118de82611877565b604082019050919050565b60006020820190508181036000830152611902816118c6565b905091905056fea2646970667358221220487b43f61caa6fb836c09151818bb1084eb09c6b2ffcec8db7f013246f099a2264736f6c63430008110033",
  "immutableReferences": {},
  "source": "// SPDX-License-Identifier: UNLICENSED\npragma solidity 0.8.17;\n\nimport \"./Policy.sol\";\nimport \"./Secu.sol\";\n\n\ncontract Assu {\n\n    address SECU;\n    address owner;\n    mapping (uint => address) PoliciesUser; // for a user secu code return its policies;\n    mapping (address => bool) PoliciesInAssu; // check if policies is by this assurance\n    mapping (uint => bool) Insured;\n\n    address[] allPolicies;\n\n    // add admin stuff for user\n    // add admin stuff for creating contract\n\n    event InsuredChanged(uint client);\n    event deposit(address whoDeposited, uint valueDeposited);\n\n    constructor(address secu){\n        owner = msg.sender;\n        SECU = secu;\n    }\n\n    modifier onlyOwner() {\n        require(owner==msg.sender);\n        _;\n    }\n\n    modifier onlySecu(){\n        require(SECU==msg.sender);\n        _;\n    }\n\n    modifier onlyOwnerOuSecu(){\n        require(SECU==msg.sender || owner==msg.sender);\n        _;\n    }\n\n\n    function reimburseClient(uint _price, uint _BRMR, uint _reimburseSecu, uint _actNumber, uint _clientsCode, address _pro) public onlySecu{\n        address clientPolicy =  PoliciesUser[_clientsCode];\n        uint value = Policy(clientPolicy)._getReimbursementValue(_price, _BRMR, _reimburseSecu, _actNumber );\n        (bool success, )= _pro.call{value: value}(\"\");\n        require (success, \"reimbursement impossible, call the assurance\");\n    }\n\n// policies stuff\n\n    function modifyPolicies (address _addr, uint _actNumber, uint _policy) public onlyOwner {\n        require(PoliciesInAssu[_addr]== true, \"not a policy we have\");\n        Policy(_addr)._modifyPolicies(_actNumber, _policy);\n    }\n\n\n    function createNewPolicyContract(uint[] memory _actNumber, uint[] memory _policies, uint[] memory _clients) external onlyOwner{\n        address newPolicy = Secu(SECU).createPolicy( _actNumber, _policies);\n        PoliciesInAssu[newPolicy]=true;\n        allPolicies.push(newPolicy);\n\n        for(uint i; i<_clients.length;i++){\n            addInsured(newPolicy,_clients[i]);\n        }\n    }\n\n\n// assur stuff\n\n    function addInsured (address _addr, uint _secuCode ) public onlyOwnerOuSecu{\n        require(PoliciesInAssu[_addr]== true, \"not a policy we have\");\n        Secu(SECU).removeInsured(_secuCode);\n        Secu(SECU).updateUser(_secuCode, msg.sender);\n        PoliciesUser[_secuCode]=_addr;\n        Insured[_secuCode]=true;\n        emit InsuredChanged(_secuCode);    \n    }\n\n    function removeInsured (address _addr, uint _secuCode ) public onlyOwnerOuSecu{\n        require(PoliciesInAssu[_addr]== true, \"not a policy we have\");\n        require(Insured[_secuCode]==true, \"not a client\");\n        delete PoliciesUser[_secuCode];\n        delete Insured[_secuCode];\n        Secu(SECU).updateUser(_secuCode, address(0));\n        emit InsuredChanged(_secuCode);    \n    }\n\n// money stuff\n\n    function depositCotisation() payable external{\n        emit deposit(msg.sender, msg.value);\n    }\n\n    function depositTreasury() payable external onlyOwner{\n        emit deposit(msg.sender, msg.value);\n    }\n\n    function withdraw() external onlyOwner{\n        (bool success, )= owner.call{value: address(this).balance}(\"\");\n        require (success, \"withdraw impossible\");\n    }\n\n    function getPolicy(uint _secuCode) onlyOwnerOuSecu public view returns (address){\n        return PoliciesUser[_secuCode];\n    }\n\n}",
  "sourcePath": "/home/cyril/dev/eth/assuThomas/contracts/Assu.sol",
  "compiler": {
    "name": "solc",
    "version": "0.8.17+commit.8df45f5f.Emscripten.clang"
  },
  "schemaVersion": "3.4.10",
  "updatedAt": "2023-06-24T22:08:00.289Z",
  "networkType": "ethereum",
  "devdoc": {
    "kind": "dev",
    "methods": {},
    "version": 1
  },
  "userdoc": {
    "kind": "user",
    "methods": {},
    "version": 1
  }
}