{
  "contractName": "Assu",
  "abi": [
    {
      "inputs": [],
      "stateMutability": "nonpayable",
      "type": "constructor"
    },
    {
      "inputs": [
        {
          "internalType": "address",
          "name": "_addr",
          "type": "address"
        },
        {
          "internalType": "uint256",
          "name": "_actNumber",
          "type": "uint256"
        },
        {
          "internalType": "uint256",
          "name": "_policy",
          "type": "uint256"
        }
      ],
      "name": "modifyPolicies",
      "outputs": [],
      "stateMutability": "nonpayable",
      "type": "function"
    },
    {
      "inputs": [
        {
          "internalType": "address",
          "name": "_addr",
          "type": "address"
        },
        {
          "internalType": "uint256",
          "name": "_clientsCode",
          "type": "uint256"
        }
      ],
      "name": "addClient",
      "outputs": [],
      "stateMutability": "nonpayable",
      "type": "function"
    },
    {
      "inputs": [
        {
          "internalType": "address",
          "name": "_addr",
          "type": "address"
        },
        {
          "internalType": "uint256",
          "name": "_clientsCode",
          "type": "uint256"
        }
      ],
      "name": "removeClient",
      "outputs": [],
      "stateMutability": "nonpayable",
      "type": "function"
    },
    {
      "inputs": [
        {
          "internalType": "uint256",
          "name": "_price",
          "type": "uint256"
        },
        {
          "internalType": "uint256",
          "name": "_BRMR",
          "type": "uint256"
        },
        {
          "internalType": "uint256",
          "name": "_actNumber",
          "type": "uint256"
        },
        {
          "internalType": "uint256",
          "name": "_clientsCode",
          "type": "uint256"
        },
        {
          "internalType": "address",
          "name": "_pro",
          "type": "address"
        }
      ],
      "name": "reimburseClient",
      "outputs": [],
      "stateMutability": "nonpayable",
      "type": "function"
    }
  ],
  "bytecode": "0x608060405234801561000f575f80fd5b503360015f6101000a81548173ffffffffffffffffffffffffffffffffffffffff021916908373ffffffffffffffffffffffffffffffffffffffff160217905550335f806101000a81548173ffffffffffffffffffffffffffffffffffffffff021916908373ffffffffffffffffffffffffffffffffffffffff160217905550610a588061009c5f395ff3fe608060405234801561000f575f80fd5b506004361061004a575f3560e01c8063095966161461004e5780634e10d9231461006a5780637bbbaa2d14610086578063b3129e35146100a2575b5f80fd5b61006860048036038101906100639190610705565b6100be565b005b610084600480360381019061007f9190610743565b610210565b005b6100a0600480360381019061009b9190610705565b610365565b005b6100bc60048036038101906100b79190610793565b6104b7565b005b3373ffffffffffffffffffffffffffffffffffffffff1660015f9054906101000a900473ffffffffffffffffffffffffffffffffffffffff1673ffffffffffffffffffffffffffffffffffffffff1614610116575f80fd5b6001151560035f8473ffffffffffffffffffffffffffffffffffffffff1673ffffffffffffffffffffffffffffffffffffffff1681526020019081526020015f205f9054906101000a900460ff161515146101a6576040517f08c379a000000000000000000000000000000000000000000000000000000000815260040161019d90610864565b60405180910390fd5b8173ffffffffffffffffffffffffffffffffffffffff1663b35ff823826040518263ffffffff1660e01b81526004016101df9190610891565b5f604051808303815f87803b1580156101f6575f80fd5b505af1158015610208573d5f803e3d5ffd5b505050505050565b3373ffffffffffffffffffffffffffffffffffffffff1660015f9054906101000a900473ffffffffffffffffffffffffffffffffffffffff1673ffffffffffffffffffffffffffffffffffffffff1614610268575f80fd5b6001151560035f8573ffffffffffffffffffffffffffffffffffffffff1673ffffffffffffffffffffffffffffffffffffffff1681526020019081526020015f205f9054906101000a900460ff161515146102f8576040517f08c379a00000000000000000000000000000000000000000000000000000000081526004016102ef90610864565b60405180910390fd5b8273ffffffffffffffffffffffffffffffffffffffff166317b1513783836040518363ffffffff1660e01b81526004016103339291906108aa565b5f604051808303815f87803b15801561034a575f80fd5b505af115801561035c573d5f803e3d5ffd5b50505050505050565b3373ffffffffffffffffffffffffffffffffffffffff1660015f9054906101000a900473ffffffffffffffffffffffffffffffffffffffff1673ffffffffffffffffffffffffffffffffffffffff16146103bd575f80fd5b6001151560035f8473ffffffffffffffffffffffffffffffffffffffff1673ffffffffffffffffffffffffffffffffffffffff1681526020019081526020015f205f9054906101000a900460ff1615151461044d576040517f08c379a000000000000000000000000000000000000000000000000000000000815260040161044490610864565b60405180910390fd5b8173ffffffffffffffffffffffffffffffffffffffff166337cee9a0826040518263ffffffff1660e01b81526004016104869190610891565b5f604051808303815f87803b15801561049d575f80fd5b505af11580156104af573d5f803e3d5ffd5b505050505050565b3373ffffffffffffffffffffffffffffffffffffffff165f8054906101000a900473ffffffffffffffffffffffffffffffffffffffff1673ffffffffffffffffffffffffffffffffffffffff161461050d575f80fd5b5f60025f8481526020019081526020015f205f9054906101000a900473ffffffffffffffffffffffffffffffffffffffff1690505f8173ffffffffffffffffffffffffffffffffffffffff16631859fe4b888888886040518563ffffffff1660e01b815260040161058194939291906108d1565b602060405180830381865afa15801561059c573d5f803e3d5ffd5b505050506040513d601f19601f820116820180604052508101906105c09190610928565b90505f8373ffffffffffffffffffffffffffffffffffffffff16826040516105e790610980565b5f6040518083038185875af1925050503d805f8114610621576040519150601f19603f3d011682016040523d82523d5f602084013e610626565b606091505b505090508061066a576040517f08c379a000000000000000000000000000000000000000000000000000000000815260040161066190610a04565b60405180910390fd5b5050505050505050565b5f80fd5b5f73ffffffffffffffffffffffffffffffffffffffff82169050919050565b5f6106a182610678565b9050919050565b6106b181610697565b81146106bb575f80fd5b50565b5f813590506106cc816106a8565b92915050565b5f819050919050565b6106e4816106d2565b81146106ee575f80fd5b50565b5f813590506106ff816106db565b92915050565b5f806040838503121561071b5761071a610674565b5b5f610728858286016106be565b9250506020610739858286016106f1565b9150509250929050565b5f805f6060848603121561075a57610759610674565b5b5f610767868287016106be565b9350506020610778868287016106f1565b9250506040610789868287016106f1565b9150509250925092565b5f805f805f60a086880312156107ac576107ab610674565b5b5f6107b9888289016106f1565b95505060206107ca888289016106f1565b94505060406107db888289016106f1565b93505060606107ec888289016106f1565b92505060806107fd888289016106be565b9150509295509295909350565b5f82825260208201905092915050565b7f6e6f74206120706f6c69637920776520686176650000000000000000000000005f82015250565b5f61084e60148361080a565b91506108598261081a565b602082019050919050565b5f6020820190508181035f83015261087b81610842565b9050919050565b61088b816106d2565b82525050565b5f6020820190506108a45f830184610882565b92915050565b5f6040820190506108bd5f830185610882565b6108ca6020830184610882565b9392505050565b5f6080820190506108e45f830187610882565b6108f16020830186610882565b6108fe6040830185610882565b61090b6060830184610882565b95945050505050565b5f81519050610922816106db565b92915050565b5f6020828403121561093d5761093c610674565b5b5f61094a84828501610914565b91505092915050565b5f81905092915050565b50565b5f61096b5f83610953565b91506109768261095d565b5f82019050919050565b5f61098a82610960565b9150819050919050565b7f7265696d62757273656d656e7420696d706f737369626c652c2063616c6c20745f8201527f6865206173737572616e63650000000000000000000000000000000000000000602082015250565b5f6109ee602c8361080a565b91506109f982610994565b604082019050919050565b5f6020820190508181035f830152610a1b816109e2565b905091905056fea2646970667358221220584c9d5c9b2e45ba3cb96e90228a38207e48e954e12f42146c66e3efe543b69964736f6c63430008140033",
  "immutableReferences": {},
  "source": "// SPDX-License-Identifier: UNLICENSED\npragma solidity 0.8.20;\n\nimport \"./Policy.sol\";\n\n\ncontract Assu {\n\n    address SECU;\n    address owner;\n    mapping (uint => address) PoliciesUser; // for a user secu code return its policies;\n    mapping (address => bool) PoliciesInAssu; // check if policies is by this assurance\n\n    constructor(){\n        owner = msg.sender;\n        SECU = msg.sender;\n    }\n\n    modifier onlyOwner() {\n        require(owner==msg.sender);\n        _;\n    }\n\n    modifier onlySecu(){\n        require(SECU==msg.sender);\n        _;\n    }\n\n    function modifyPolicies (address _addr, uint _actNumber, uint _policy) public onlyOwner {\n        require(PoliciesInAssu[_addr]== true, \"not a policy we have\");\n        Policy(_addr)._modifyPolicies(_actNumber, _policy);\n    }\n\n    function addClient (address _addr, uint _clientsCode ) public onlyOwner{\n        require(PoliciesInAssu[_addr]== true, \"not a policy we have\");\n        Policy(_addr)._addClient(_clientsCode);\n    }\n\n    function removeClient (address _addr, uint _clientsCode ) public onlyOwner{\n        require(PoliciesInAssu[_addr]== true, \"not a policy we have\");\n        Policy(_addr)._removeClient(_clientsCode);\n    }\n\n\n    function reimburseClient(uint _price, uint _BRMR, uint _actNumber, uint _clientsCode, address _pro) public onlySecu{\n        address clientPolicy =  PoliciesUser[_clientsCode];\n        uint value = Policy(clientPolicy)._getReimbursementValue(_price, _BRMR, _actNumber, _clientsCode );\n        (bool success, )= _pro.call{value: value}(\"\");\n        require (success, \"reimbursement impossible, call the assurance\");\n    }\n\n}",
  "sourcePath": "/home/cyril/dev/eth/assuThomas/contracts/Assu.sol",
  "compiler": {
    "name": "solc",
    "version": "0.8.20+commit.a1b79de6.Emscripten.clang"
  },
  "schemaVersion": "3.4.10",
  "updatedAt": "2023-06-23T17:32:22.846Z",
  "devdoc": {
    "kind": "dev",
    "methods": {},
    "version": 1
  },
  "userdoc": {
    "kind": "user",
    "methods": {},
    "version": 1
  }
}