{
  "contractName": "Assu",
  "abi": [
    {
      "inputs": [
        {
          "internalType": "address",
          "name": "secu",
          "type": "address"
        }
      ],
      "stateMutability": "nonpayable",
      "type": "constructor"
    },
    {
      "inputs": [
        {
          "internalType": "address",
          "name": "_addr",
          "type": "address"
        },
        {
          "internalType": "uint256",
          "name": "_actNumber",
          "type": "uint256"
        },
        {
          "internalType": "uint256",
          "name": "_policy",
          "type": "uint256"
        }
      ],
      "name": "modifyPolicies",
      "outputs": [],
      "stateMutability": "nonpayable",
      "type": "function"
    },
    {
      "inputs": [
        {
          "internalType": "address",
          "name": "_addr",
          "type": "address"
        },
        {
          "internalType": "uint256",
          "name": "_clientsCode",
          "type": "uint256"
        }
      ],
      "name": "addClient",
      "outputs": [],
      "stateMutability": "nonpayable",
      "type": "function"
    },
    {
      "inputs": [
        {
          "internalType": "address",
          "name": "_addr",
          "type": "address"
        },
        {
          "internalType": "uint256",
          "name": "_clientsCode",
          "type": "uint256"
        }
      ],
      "name": "removeClient",
      "outputs": [],
      "stateMutability": "nonpayable",
      "type": "function"
    },
    {
      "inputs": [
        {
          "internalType": "uint256",
          "name": "_price",
          "type": "uint256"
        },
        {
          "internalType": "uint256",
          "name": "_BRMR",
          "type": "uint256"
        },
        {
          "internalType": "uint256",
          "name": "_actNumber",
          "type": "uint256"
        },
        {
          "internalType": "uint256",
          "name": "_clientsCode",
          "type": "uint256"
        },
        {
          "internalType": "address",
          "name": "_pro",
          "type": "address"
        }
      ],
      "name": "reimburseClient",
      "outputs": [],
      "stateMutability": "nonpayable",
      "type": "function"
    }
  ],
  "bytecode": "0x608060405234801561001057600080fd5b50604051610c06380380610c068339818101604052810190610032919061011c565b33600160006101000a81548173ffffffffffffffffffffffffffffffffffffffff021916908373ffffffffffffffffffffffffffffffffffffffff160217905550806000806101000a81548173ffffffffffffffffffffffffffffffffffffffff021916908373ffffffffffffffffffffffffffffffffffffffff16021790555050610149565b600080fd5b600073ffffffffffffffffffffffffffffffffffffffff82169050919050565b60006100e9826100be565b9050919050565b6100f9816100de565b811461010457600080fd5b50565b600081519050610116816100f0565b92915050565b600060208284031215610132576101316100b9565b5b600061014084828501610107565b91505092915050565b610aae806101586000396000f3fe608060405234801561001057600080fd5b506004361061004c5760003560e01c806309596616146100515780634e10d9231461006d5780637bbbaa2d14610089578063b3129e35146100a5575b600080fd5b61006b6004803603810190610066919061073b565b6100c1565b005b6100876004803603810190610082919061077b565b61021d565b005b6100a3600480360381019061009e919061073b565b61037c565b005b6100bf60048036038101906100ba91906107ce565b6104d8565b005b3373ffffffffffffffffffffffffffffffffffffffff16600160009054906101000a900473ffffffffffffffffffffffffffffffffffffffff1673ffffffffffffffffffffffffffffffffffffffff161461011b57600080fd5b60011515600360008473ffffffffffffffffffffffffffffffffffffffff1673ffffffffffffffffffffffffffffffffffffffff16815260200190815260200160002060009054906101000a900460ff161515146101ae576040517f08c379a00000000000000000000000000000000000000000000000000000000081526004016101a5906108a6565b60405180910390fd5b8173ffffffffffffffffffffffffffffffffffffffff1663b35ff823826040518263ffffffff1660e01b81526004016101e791906108d5565b600060405180830381600087803b15801561020157600080fd5b505af1158015610215573d6000803e3d6000fd5b505050505050565b3373ffffffffffffffffffffffffffffffffffffffff16600160009054906101000a900473ffffffffffffffffffffffffffffffffffffffff1673ffffffffffffffffffffffffffffffffffffffff161461027757600080fd5b60011515600360008573ffffffffffffffffffffffffffffffffffffffff1673ffffffffffffffffffffffffffffffffffffffff16815260200190815260200160002060009054906101000a900460ff1615151461030a576040517f08c379a0000000000000000000000000000000000000000000000000000000008152600401610301906108a6565b60405180910390fd5b8273ffffffffffffffffffffffffffffffffffffffff166317b1513783836040518363ffffffff1660e01b81526004016103459291906108f0565b600060405180830381600087803b15801561035f57600080fd5b505af1158015610373573d6000803e3d6000fd5b50505050505050565b3373ffffffffffffffffffffffffffffffffffffffff16600160009054906101000a900473ffffffffffffffffffffffffffffffffffffffff1673ffffffffffffffffffffffffffffffffffffffff16146103d657600080fd5b60011515600360008473ffffffffffffffffffffffffffffffffffffffff1673ffffffffffffffffffffffffffffffffffffffff16815260200190815260200160002060009054906101000a900460ff16151514610469576040517f08c379a0000000000000000000000000000000000000000000000000000000008152600401610460906108a6565b60405180910390fd5b8173ffffffffffffffffffffffffffffffffffffffff166337cee9a0826040518263ffffffff1660e01b81526004016104a291906108d5565b600060405180830381600087803b1580156104bc57600080fd5b505af11580156104d0573d6000803e3d6000fd5b505050505050565b3373ffffffffffffffffffffffffffffffffffffffff1660008054906101000a900473ffffffffffffffffffffffffffffffffffffffff1673ffffffffffffffffffffffffffffffffffffffff161461053057600080fd5b60006002600084815260200190815260200160002060009054906101000a900473ffffffffffffffffffffffffffffffffffffffff16905060008173ffffffffffffffffffffffffffffffffffffffff16631859fe4b888888886040518563ffffffff1660e01b81526004016105a99493929190610919565b602060405180830381865afa1580156105c6573d6000803e3d6000fd5b505050506040513d601f19601f820116820180604052508101906105ea9190610973565b905060008373ffffffffffffffffffffffffffffffffffffffff1682604051610612906109d1565b60006040518083038185875af1925050503d806000811461064f576040519150601f19603f3d011682016040523d82523d6000602084013e610654565b606091505b5050905080610698576040517f08c379a000000000000000000000000000000000000000000000000000000000815260040161068f90610a58565b60405180910390fd5b5050505050505050565b600080fd5b600073ffffffffffffffffffffffffffffffffffffffff82169050919050565b60006106d2826106a7565b9050919050565b6106e2816106c7565b81146106ed57600080fd5b50565b6000813590506106ff816106d9565b92915050565b6000819050919050565b61071881610705565b811461072357600080fd5b50565b6000813590506107358161070f565b92915050565b60008060408385031215610752576107516106a2565b5b6000610760858286016106f0565b925050602061077185828601610726565b9150509250929050565b600080600060608486031215610794576107936106a2565b5b60006107a2868287016106f0565b93505060206107b386828701610726565b92505060406107c486828701610726565b9150509250925092565b600080600080600060a086880312156107ea576107e96106a2565b5b60006107f888828901610726565b955050602061080988828901610726565b945050604061081a88828901610726565b935050606061082b88828901610726565b925050608061083c888289016106f0565b9150509295509295909350565b600082825260208201905092915050565b7f6e6f74206120706f6c6963792077652068617665000000000000000000000000600082015250565b6000610890601483610849565b915061089b8261085a565b602082019050919050565b600060208201905081810360008301526108bf81610883565b9050919050565b6108cf81610705565b82525050565b60006020820190506108ea60008301846108c6565b92915050565b600060408201905061090560008301856108c6565b61091260208301846108c6565b9392505050565b600060808201905061092e60008301876108c6565b61093b60208301866108c6565b61094860408301856108c6565b61095560608301846108c6565b95945050505050565b60008151905061096d8161070f565b92915050565b600060208284031215610989576109886106a2565b5b60006109978482850161095e565b91505092915050565b600081905092915050565b50565b60006109bb6000836109a0565b91506109c6826109ab565b600082019050919050565b60006109dc826109ae565b9150819050919050565b7f7265696d62757273656d656e7420696d706f737369626c652c2063616c6c207460008201527f6865206173737572616e63650000000000000000000000000000000000000000602082015250565b6000610a42602c83610849565b9150610a4d826109e6565b604082019050919050565b60006020820190508181036000830152610a7181610a35565b905091905056fea26469706673582212204377c2cd7532d8c10dad4cfa98b59ad6c2f33ce93bfa9049dbd17faf9cb11f6864736f6c63430008110033",
  "immutableReferences": {},
  "source": "// SPDX-License-Identifier: UNLICENSED\npragma solidity 0.8.17;\n\nimport \"./Policy.sol\";\n\n\ncontract Assu {\n\n    address SECU;\n    address owner;\n    mapping (uint => address) PoliciesUser; // for a user secu code return its policies;\n    mapping (address => bool) PoliciesInAssu; // check if policies is by this assurance\n\n    constructor(address secu){\n        owner = msg.sender;\n        SECU = secu;\n    }\n\n    modifier onlyOwner() {\n        require(owner==msg.sender);\n        _;\n    }\n\n    modifier onlySecu(){\n        require(SECU==msg.sender);\n        _;\n    }\n\n    function modifyPolicies (address _addr, uint _actNumber, uint _policy) public onlyOwner {\n        require(PoliciesInAssu[_addr]== true, \"not a policy we have\");\n        Policy(_addr)._modifyPolicies(_actNumber, _policy);\n    }\n\n    function addClient (address _addr, uint _clientsCode ) public onlyOwner{\n        require(PoliciesInAssu[_addr]== true, \"not a policy we have\");\n        Policy(_addr)._addClient(_clientsCode);\n    }\n\n    function removeClient (address _addr, uint _clientsCode ) public onlyOwner{\n        require(PoliciesInAssu[_addr]== true, \"not a policy we have\");\n        Policy(_addr)._removeClient(_clientsCode);\n    }\n\n\n    function reimburseClient(uint _price, uint _BRMR, uint _actNumber, uint _clientsCode, address _pro) public onlySecu{\n        address clientPolicy =  PoliciesUser[_clientsCode];\n        uint value = Policy(clientPolicy)._getReimbursementValue(_price, _BRMR, _actNumber, _clientsCode );\n        (bool success, )= _pro.call{value: value}(\"\");\n        require (success, \"reimbursement impossible, call the assurance\");\n    }\n\n}",
  "sourcePath": "/home/cyril/dev/eth/assuThomas/contracts/Assu.sol",
  "compiler": {
    "name": "solc",
    "version": "0.8.17+commit.8df45f5f.Emscripten.clang"
  },
  "schemaVersion": "3.4.10",
  "updatedAt": "2023-06-24T11:52:49.872Z",
  "networkType": "ethereum",
  "devdoc": {
    "kind": "dev",
    "methods": {},
    "version": 1
  },
  "userdoc": {
    "kind": "user",
    "methods": {},
    "version": 1
  }
}