{
  "contractName": "Policy",
  "abi": [
    {
      "inputs": [],
      "stateMutability": "nonpayable",
      "type": "constructor"
    },
    {
      "anonymous": false,
      "inputs": [
        {
          "indexed": false,
          "internalType": "uint256",
          "name": "timestamp",
          "type": "uint256"
        },
        {
          "indexed": false,
          "internalType": "uint256",
          "name": "actNumber",
          "type": "uint256"
        }
      ],
      "name": "PoliciesChanged",
      "type": "event"
    },
    {
      "inputs": [],
      "name": "EndContract",
      "outputs": [
        {
          "internalType": "uint256",
          "name": "",
          "type": "uint256"
        }
      ],
      "stateMutability": "view",
      "type": "function"
    },
    {
      "inputs": [],
      "name": "StartContract",
      "outputs": [
        {
          "internalType": "uint256",
          "name": "",
          "type": "uint256"
        }
      ],
      "stateMutability": "view",
      "type": "function"
    },
    {
      "inputs": [
        {
          "internalType": "uint256[]",
          "name": "_actNumber",
          "type": "uint256[]"
        },
        {
          "internalType": "uint256[]",
          "name": "_policies",
          "type": "uint256[]"
        },
        {
          "internalType": "address",
          "name": "_insuranceCompany",
          "type": "address"
        }
      ],
      "name": "initialyse",
      "outputs": [],
      "stateMutability": "nonpayable",
      "type": "function"
    },
    {
      "inputs": [
        {
          "internalType": "uint256",
          "name": "_actNumber",
          "type": "uint256"
        },
        {
          "internalType": "uint256",
          "name": "_policy",
          "type": "uint256"
        }
      ],
      "name": "_modifyPolicies",
      "outputs": [],
      "stateMutability": "nonpayable",
      "type": "function"
    },
    {
      "inputs": [
        {
          "internalType": "uint256",
          "name": "_price",
          "type": "uint256"
        },
        {
          "internalType": "uint256",
          "name": "_BRMR",
          "type": "uint256"
        },
        {
          "internalType": "uint256",
          "name": "_reimburseSecu",
          "type": "uint256"
        },
        {
          "internalType": "uint256",
          "name": "_actNumber",
          "type": "uint256"
        }
      ],
      "name": "_getReimbursementValue",
      "outputs": [
        {
          "internalType": "uint256",
          "name": "",
          "type": "uint256"
        }
      ],
      "stateMutability": "view",
      "type": "function"
    }
  ],
  "bytecode": "0x608060405234801561001057600080fd5b50610a1c806100206000396000f3fe608060405234801561001057600080fd5b50600436106100575760003560e01c806317b151371461005c5780631859fe4b1461007857806379d95abc146100a857806385cd8791146100c4578063f7c58b8e146100e2575b600080fd5b61007660048036038101906100719190610405565b610100565b005b610092600480360381019061008d9190610445565b6101e5565b60405161009f91906104bb565b60405180910390f35b6100c260048036038101906100bd919061068d565b61028c565b005b6100cc6103af565b6040516100d991906104bb565b60405180910390f35b6100ea6103b5565b6040516100f791906104bb565b60405180910390f35b600460019054906101000a900473ffffffffffffffffffffffffffffffffffffffff1673ffffffffffffffffffffffffffffffffffffffff163373ffffffffffffffffffffffffffffffffffffffff1614610190576040517f08c379a000000000000000000000000000000000000000000000000000000000815260040161018790610775565b60405180910390fd5b8060056000848152602001908152602001600020819055507f171307605df6b02719e2dbe451c9aea99d9b1bb4e98be627d5b34deca8db26ad42836040516101d9929190610795565b60405180910390a15050565b6000600254421180156101fa57506003544211155b610239576040517f08c379a00000000000000000000000000000000000000000000000000000000081526004016102309061080a565b60405180910390fd5b600060056000848152602001908152602001600020548561025a9190610859565b9050858482610269919061089b565b1061027f57838661027a91906108cf565b610281565b805b915050949350505050565b60001515600460009054906101000a900460ff161515146102e2576040517f08c379a00000000000000000000000000000000000000000000000000000000081526004016102d99061094f565b60405180910390fd5b6001600460006101000a81548160ff02191690831515021790555060005b83518110156103685782818151811061031c5761031b61096f565b5b60200260200101516005600086848151811061033b5761033a61096f565b5b602002602001015181526020019081526020016000208190555080806103609061099e565b915050610300565b5080600460016101000a81548173ffffffffffffffffffffffffffffffffffffffff021916908373ffffffffffffffffffffffffffffffffffffffff160217905550505050565b60035481565b60025481565b6000604051905090565b600080fd5b600080fd5b6000819050919050565b6103e2816103cf565b81146103ed57600080fd5b50565b6000813590506103ff816103d9565b92915050565b6000806040838503121561041c5761041b6103c5565b5b600061042a858286016103f0565b925050602061043b858286016103f0565b9150509250929050565b6000806000806080858703121561045f5761045e6103c5565b5b600061046d878288016103f0565b945050602061047e878288016103f0565b935050604061048f878288016103f0565b92505060606104a0878288016103f0565b91505092959194509250565b6104b5816103cf565b82525050565b60006020820190506104d060008301846104ac565b92915050565b600080fd5b6000601f19601f8301169050919050565b7f4e487b7100000000000000000000000000000000000000000000000000000000600052604160045260246000fd5b610524826104db565b810181811067ffffffffffffffff82111715610543576105426104ec565b5b80604052505050565b60006105566103bb565b9050610562828261051b565b919050565b600067ffffffffffffffff821115610582576105816104ec565b5b602082029050602081019050919050565b600080fd5b60006105ab6105a684610567565b61054c565b905080838252602082019050602084028301858111156105ce576105cd610593565b5b835b818110156105f757806105e388826103f0565b8452602084019350506020810190506105d0565b5050509392505050565b600082601f830112610616576106156104d6565b5b8135610626848260208601610598565b91505092915050565b600073ffffffffffffffffffffffffffffffffffffffff82169050919050565b600061065a8261062f565b9050919050565b61066a8161064f565b811461067557600080fd5b50565b60008135905061068781610661565b92915050565b6000806000606084860312156106a6576106a56103c5565b5b600084013567ffffffffffffffff8111156106c4576106c36103ca565b5b6106d086828701610601565b935050602084013567ffffffffffffffff8111156106f1576106f06103ca565b5b6106fd86828701610601565b925050604061070e86828701610678565b9150509250925092565b600082825260208201905092915050565b7f6f6e6c7920496e737572616e63652063616e20646f2074686973000000000000600082015250565b600061075f601a83610718565b915061076a82610729565b602082019050919050565b6000602082019050818103600083015261078e81610752565b9050919050565b60006040820190506107aa60008301856104ac565b6107b760208301846104ac565b9392505050565b7f6e6f7420696e2074696d65000000000000000000000000000000000000000000600082015250565b60006107f4600b83610718565b91506107ff826107be565b602082019050919050565b60006020820190508181036000830152610823816107e7565b9050919050565b7f4e487b7100000000000000000000000000000000000000000000000000000000600052601160045260246000fd5b6000610864826103cf565b915061086f836103cf565b925082820261087d816103cf565b915082820484148315176108945761089361082a565b5b5092915050565b60006108a6826103cf565b91506108b1836103cf565b92508282019050808211156108c9576108c861082a565b5b92915050565b60006108da826103cf565b91506108e5836103cf565b92508282039050818111156108fd576108fc61082a565b5b92915050565b7f616c726561647920696e697469616c6973656400000000000000000000000000600082015250565b6000610939601383610718565b915061094482610903565b602082019050919050565b600060208201905081810360008301526109688161092c565b9050919050565b7f4e487b7100000000000000000000000000000000000000000000000000000000600052603260045260246000fd5b60006109a9826103cf565b91507fffffffffffffffffffffffffffffffffffffffffffffffffffffffffffffffff82036109db576109da61082a565b5b60018201905091905056fea2646970667358221220ea4faeda114c943740726558f507bcd6d8d2597591213b3ed55f3f84942407b464736f6c63430008110033",
  "immutableReferences": {},
  "source": "// SPDX-License-Identifier: UNLICENSED\npragma solidity 0.8.17;\n\ncontract Policy {\n\n    string private COMPANY_NAME;\n    uint private COMPANY_IDENTIFIER;\n    uint public StartContract;\n    uint public EndContract;\n\n    bool initialiser;\n    address INSURANCE_ADDRESS;\n\n    mapping(uint => uint) Policies;\n    // pourcentage de remboursement sur (base de remboursement - montant rembours scu)\n\n    event PoliciesChanged(uint timestamp, uint actNumber);\n\n    constructor() {}\n\n    modifier onlyInsurance{\n        require (msg.sender== INSURANCE_ADDRESS, \"only Insurance can do this\");\n        _;\n    }\n\n    function initialyse (uint[] memory _actNumber, uint[] memory _policies, address _insuranceCompany) public {\n        require(initialiser == false, \"already initialised\");\n        initialiser = true;\n        for (uint j=0; j<_actNumber.length; j++){\n            Policies[_actNumber[j]]=_policies[j];\n        }\n        INSURANCE_ADDRESS = _insuranceCompany;\n    }\n\n    function _modifyPolicies (uint _actNumber, uint _policy) onlyInsurance public {\n        Policies[_actNumber] = _policy;\n        emit PoliciesChanged(block.timestamp, _actNumber);\n    }\n\n    function _getReimbursementValue(uint _price, uint _BRMR, uint _reimburseSecu, uint _actNumber) public view returns (uint){\n        require(block.timestamp > StartContract && block.timestamp <= EndContract, \"not in time\");\n        uint value = _BRMR * Policies[_actNumber];\n        return value + _reimburseSecu < _price? value: _price - _reimburseSecu; \n    }\n\n}\n",
  "sourcePath": "/home/cyril/dev/eth/assuThomas/contracts/Policy.sol",
  "compiler": {
    "name": "solc",
    "version": "0.8.17+commit.8df45f5f.Emscripten.clang"
  },
  "schemaVersion": "3.4.10",
  "updatedAt": "2023-06-24T21:51:51.399Z",
  "devdoc": {
    "kind": "dev",
    "methods": {},
    "version": 1
  },
  "userdoc": {
    "kind": "user",
    "methods": {},
    "version": 1
  }
}