{
  "contractName": "Policy",
  "abi": [
    {
      "inputs": [],
      "stateMutability": "nonpayable",
      "type": "constructor"
    },
    {
      "anonymous": false,
      "inputs": [
        {
          "indexed": false,
          "internalType": "uint256",
          "name": "client",
          "type": "uint256"
        }
      ],
      "name": "ClientChanged",
      "type": "event"
    },
    {
      "anonymous": false,
      "inputs": [
        {
          "indexed": false,
          "internalType": "uint256",
          "name": "timestamp",
          "type": "uint256"
        },
        {
          "indexed": false,
          "internalType": "uint256",
          "name": "actNumber",
          "type": "uint256"
        }
      ],
      "name": "PoliciesChanged",
      "type": "event"
    },
    {
      "inputs": [],
      "name": "EndContract",
      "outputs": [
        {
          "internalType": "uint256",
          "name": "",
          "type": "uint256"
        }
      ],
      "stateMutability": "view",
      "type": "function"
    },
    {
      "inputs": [],
      "name": "StartContract",
      "outputs": [
        {
          "internalType": "uint256",
          "name": "",
          "type": "uint256"
        }
      ],
      "stateMutability": "view",
      "type": "function"
    },
    {
      "inputs": [
        {
          "internalType": "uint256[]",
          "name": "_actNumber",
          "type": "uint256[]"
        },
        {
          "internalType": "uint256[]",
          "name": "_policies",
          "type": "uint256[]"
        },
        {
          "internalType": "uint256[]",
          "name": "_clientsCode",
          "type": "uint256[]"
        },
        {
          "internalType": "address",
          "name": "_insuranceCompany",
          "type": "address"
        }
      ],
      "name": "initialyse",
      "outputs": [],
      "stateMutability": "nonpayable",
      "type": "function"
    },
    {
      "inputs": [
        {
          "internalType": "uint256",
          "name": "_actNumber",
          "type": "uint256"
        },
        {
          "internalType": "uint256",
          "name": "_policy",
          "type": "uint256"
        }
      ],
      "name": "_modifyPolicies",
      "outputs": [],
      "stateMutability": "nonpayable",
      "type": "function"
    },
    {
      "inputs": [
        {
          "internalType": "uint256",
          "name": "_secuCode",
          "type": "uint256"
        }
      ],
      "name": "_addClient",
      "outputs": [],
      "stateMutability": "nonpayable",
      "type": "function"
    },
    {
      "inputs": [
        {
          "internalType": "uint256",
          "name": "_clientsCode",
          "type": "uint256"
        }
      ],
      "name": "_removeClient",
      "outputs": [],
      "stateMutability": "nonpayable",
      "type": "function"
    },
    {
      "inputs": [
        {
          "internalType": "uint256",
          "name": "_price",
          "type": "uint256"
        },
        {
          "internalType": "uint256",
          "name": "_BRMR",
          "type": "uint256"
        },
        {
          "internalType": "uint256",
          "name": "_actNumber",
          "type": "uint256"
        },
        {
          "internalType": "uint256",
          "name": "_client",
          "type": "uint256"
        }
      ],
      "name": "_getReimbursementValue",
      "outputs": [
        {
          "internalType": "uint256",
          "name": "",
          "type": "uint256"
        }
      ],
      "stateMutability": "view",
      "type": "function"
    }
  ],
  "bytecode": "0x608060405234801561000f575f80fd5b50610e578061001d5f395ff3fe608060405234801561000f575f80fd5b506004361061007b575f3560e01c806337cee9a01161005957806337cee9a0146100e757806385cd879114610103578063b35ff82314610121578063f7c58b8e1461013d5761007b565b806317b151371461007f5780631859fe4b1461009b5780631c936b5f146100cb575b5f80fd5b610099600480360381019061009491906107a9565b61015b565b005b6100b560048036038101906100b091906107e7565b61023e565b6040516100c2919061085a565b60405180910390f35b6100e560048036038101906100e09190610a1d565b61032f565b005b61010160048036038101906100fc9190610ad5565b6104ad565b005b61010b610603565b604051610118919061085a565b60405180910390f35b61013b60048036038101906101369190610ad5565b610609565b005b61014561075f565b604051610152919061085a565b60405180910390f35b600460019054906101000a900473ffffffffffffffffffffffffffffffffffffffff1673ffffffffffffffffffffffffffffffffffffffff163373ffffffffffffffffffffffffffffffffffffffff16146101eb576040517f08c379a00000000000000000000000000000000000000000000000000000000081526004016101e290610b5a565b60405180910390fd5b8060055f8481526020019081526020015f20819055507f171307605df6b02719e2dbe451c9aea99d9b1bb4e98be627d5b34deca8db26ad4283604051610232929190610b78565b60405180910390a15050565b5f6001151560065f8481526020019081526020015f205f9054906101000a900460ff161515146102a3576040517f08c379a000000000000000000000000000000000000000000000000000000000815260040161029a90610be9565b60405180910390fd5b600254421180156102b657506003544211155b6102f5576040517f08c379a00000000000000000000000000000000000000000000000000000000081526004016102ec90610c51565b60405180910390fd5b5f60055f8581526020019081526020015f2054856103139190610c9c565b90508581106103225785610324565b805b915050949350505050565b5f151560045f9054906101000a900460ff16151514610383576040517f08c379a000000000000000000000000000000000000000000000000000000000815260040161037a90610d27565b60405180910390fd5b600160045f6101000a81548160ff0219169083151502179055505f5b8451811015610405578381815181106103bb576103ba610d45565b5b602002602001015160055f8784815181106103d9576103d8610d45565b5b602002602001015181526020019081526020015f208190555080806103fd90610d72565b91505061039f565b5080600460016101000a81548173ffffffffffffffffffffffffffffffffffffffff021916908373ffffffffffffffffffffffffffffffffffffffff1602179055505f5b82518110156104a657600160065f85848151811061046a57610469610d45565b5b602002602001015181526020019081526020015f205f6101000a81548160ff0219169083151502179055508061049f90610d72565b9050610449565b5050505050565b600460019054906101000a900473ffffffffffffffffffffffffffffffffffffffff1673ffffffffffffffffffffffffffffffffffffffff163373ffffffffffffffffffffffffffffffffffffffff161461053d576040517f08c379a000000000000000000000000000000000000000000000000000000000815260040161053490610b5a565b60405180910390fd5b6001151560065f8381526020019081526020015f205f9054906101000a900460ff161515146105a1576040517f08c379a000000000000000000000000000000000000000000000000000000000815260040161059890610be9565b60405180910390fd5b5f60065f8381526020019081526020015f205f6101000a81548160ff0219169083151502179055507fdfb480829c95c69fa50cdfb9d75e7a00b4b4efbdea6b552a0e358125ccd51384816040516105f8919061085a565b60405180910390a150565b60035481565b600460019054906101000a900473ffffffffffffffffffffffffffffffffffffffff1673ffffffffffffffffffffffffffffffffffffffff163373ffffffffffffffffffffffffffffffffffffffff1614610699576040517f08c379a000000000000000000000000000000000000000000000000000000000815260040161069090610b5a565b60405180910390fd5b5f151560065f8381526020019081526020015f205f9054906101000a900460ff161515146106fc576040517f08c379a00000000000000000000000000000000000000000000000000000000081526004016106f390610e03565b60405180910390fd5b600160065f8381526020019081526020015f205f6101000a81548160ff0219169083151502179055507fdfb480829c95c69fa50cdfb9d75e7a00b4b4efbdea6b552a0e358125ccd5138481604051610754919061085a565b60405180910390a150565b60025481565b5f604051905090565b5f80fd5b5f80fd5b5f819050919050565b61078881610776565b8114610792575f80fd5b50565b5f813590506107a38161077f565b92915050565b5f80604083850312156107bf576107be61076e565b5b5f6107cc85828601610795565b92505060206107dd85828601610795565b9150509250929050565b5f805f80608085870312156107ff576107fe61076e565b5b5f61080c87828801610795565b945050602061081d87828801610795565b935050604061082e87828801610795565b925050606061083f87828801610795565b91505092959194509250565b61085481610776565b82525050565b5f60208201905061086d5f83018461084b565b92915050565b5f80fd5b5f601f19601f8301169050919050565b7f4e487b71000000000000000000000000000000000000000000000000000000005f52604160045260245ffd5b6108bd82610877565b810181811067ffffffffffffffff821117156108dc576108db610887565b5b80604052505050565b5f6108ee610765565b90506108fa82826108b4565b919050565b5f67ffffffffffffffff82111561091957610918610887565b5b602082029050602081019050919050565b5f80fd5b5f61094061093b846108ff565b6108e5565b905080838252602082019050602084028301858111156109635761096261092a565b5b835b8181101561098c57806109788882610795565b845260208401935050602081019050610965565b5050509392505050565b5f82601f8301126109aa576109a9610873565b5b81356109ba84826020860161092e565b91505092915050565b5f73ffffffffffffffffffffffffffffffffffffffff82169050919050565b5f6109ec826109c3565b9050919050565b6109fc816109e2565b8114610a06575f80fd5b50565b5f81359050610a17816109f3565b92915050565b5f805f8060808587031215610a3557610a3461076e565b5b5f85013567ffffffffffffffff811115610a5257610a51610772565b5b610a5e87828801610996565b945050602085013567ffffffffffffffff811115610a7f57610a7e610772565b5b610a8b87828801610996565b935050604085013567ffffffffffffffff811115610aac57610aab610772565b5b610ab887828801610996565b9250506060610ac987828801610a09565b91505092959194509250565b5f60208284031215610aea57610ae961076e565b5b5f610af784828501610795565b91505092915050565b5f82825260208201905092915050565b7f6f6e6c7920496e737572616e63652063616e20646f20746869730000000000005f82015250565b5f610b44601a83610b00565b9150610b4f82610b10565b602082019050919050565b5f6020820190508181035f830152610b7181610b38565b9050919050565b5f604082019050610b8b5f83018561084b565b610b98602083018461084b565b9392505050565b7f6e6f74206120636c69656e7400000000000000000000000000000000000000005f82015250565b5f610bd3600c83610b00565b9150610bde82610b9f565b602082019050919050565b5f6020820190508181035f830152610c0081610bc7565b9050919050565b7f6e6f7420696e2074696d650000000000000000000000000000000000000000005f82015250565b5f610c3b600b83610b00565b9150610c4682610c07565b602082019050919050565b5f6020820190508181035f830152610c6881610c2f565b9050919050565b7f4e487b71000000000000000000000000000000000000000000000000000000005f52601160045260245ffd5b5f610ca682610776565b9150610cb183610776565b9250828202610cbf81610776565b91508282048414831517610cd657610cd5610c6f565b5b5092915050565b7f616c726561647920696e697469616c69736564000000000000000000000000005f82015250565b5f610d11601383610b00565b9150610d1c82610cdd565b602082019050919050565b5f6020820190508181035f830152610d3e81610d05565b9050919050565b7f4e487b71000000000000000000000000000000000000000000000000000000005f52603260045260245ffd5b5f610d7c82610776565b91507fffffffffffffffffffffffffffffffffffffffffffffffffffffffffffffffff8203610dae57610dad610c6f565b5b600182019050919050565b7f616c7265616479206120636c69656e74000000000000000000000000000000005f82015250565b5f610ded601083610b00565b9150610df882610db9565b602082019050919050565b5f6020820190508181035f830152610e1a81610de1565b905091905056fea2646970667358221220da35971cbc55205b066aa49d839fc8e34014516fc97d76536323c03927a40b6664736f6c63430008140033",
  "immutableReferences": {},
  "source": "// SPDX-License-Identifier: UNLICENSED\npragma solidity 0.8.20;\n\ncontract Policy {\n\n    string private COMPANY_NAME;\n    uint private COMPANY_IDENTIFIER;\n    uint public StartContract;\n    uint public EndContract;\n\n    bool initialiser;\n    address INSURANCE_ADDRESS;\n\n    mapping(uint => uint) Policies;\n    // pourcentage de remboursement sur (base de remboursement - montant rembours scu)\n\n    mapping (uint => bool) Clients;\n\n    event PoliciesChanged(uint timestamp, uint actNumber);\n    event ClientChanged(uint client);\n\n    constructor() {}\n\n    function initialyse (uint[] memory _actNumber, uint[] memory _policies, uint[] memory _clientsCode, address _insuranceCompany) public {\n        require(initialiser == false, \"already initialised\");\n        initialiser = true;\n        for (uint j=0; j<_actNumber.length; j++){\n            Policies[_actNumber[j]]=_policies[j];\n        }\n        INSURANCE_ADDRESS = _insuranceCompany;\n\n        for (uint i; i< _clientsCode.length; ++i){\n            Clients[_clientsCode[i]] = true;\n        }\n    }\n\n    modifier onlyInsurance{\n        require (msg.sender== INSURANCE_ADDRESS, \"only Insurance can do this\");\n        _;\n    }\n\n    function _modifyPolicies (uint _actNumber, uint _policy) onlyInsurance public {\n        Policies[_actNumber] = _policy;\n        emit PoliciesChanged(block.timestamp, _actNumber);\n    }\n\n    function _addClient (uint _secuCode ) public onlyInsurance{\n        require(Clients[_secuCode]==false, \"already a client\");\n        Clients[_secuCode]=true;\n        emit ClientChanged(_secuCode);\n    }\n\n    function _removeClient (uint _clientsCode ) public onlyInsurance{\n        require(Clients[_clientsCode]==true, \"not a client\");\n        Clients[_clientsCode]=false;\n        emit ClientChanged(_clientsCode);\n    }\n\n    function _getReimbursementValue(uint _price, uint _BRMR, uint _actNumber, uint _client) public view returns (uint){\n        require (Clients[_client]==true, \"not a client\");\n        require(block.timestamp > StartContract && block.timestamp <= EndContract, \"not in time\");\n        uint value = _BRMR * Policies[_actNumber];\n        return value < _price? value: _price;\n    }\n\n}\n",
  "sourcePath": "/home/cyril/dev/eth/assuThomas/contracts/Policy.sol",
  "compiler": {
    "name": "solc",
    "version": "0.8.20+commit.a1b79de6.Emscripten.clang"
  },
  "schemaVersion": "3.4.10",
  "updatedAt": "2023-06-23T17:27:40.540Z",
  "devdoc": {
    "kind": "dev",
    "methods": {},
    "version": 1
  },
  "userdoc": {
    "kind": "user",
    "methods": {},
    "version": 1
  }
}