{
  "contractName": "PolicyFactory",
  "abi": [
    {
      "inputs": [],
      "stateMutability": "nonpayable",
      "type": "constructor"
    },
    {
      "anonymous": false,
      "inputs": [
        {
          "indexed": true,
          "internalType": "address",
          "name": "_policyCreated",
          "type": "address"
        },
        {
          "indexed": true,
          "internalType": "address",
          "name": "_insuranceCompany",
          "type": "address"
        }
      ],
      "name": "PolicyCreated",
      "type": "event"
    },
    {
      "inputs": [
        {
          "internalType": "uint256[]",
          "name": "_actNumber",
          "type": "uint256[]"
        },
        {
          "internalType": "uint256[]",
          "name": "_policies",
          "type": "uint256[]"
        },
        {
          "internalType": "uint256[]",
          "name": "_clients",
          "type": "uint256[]"
        }
      ],
      "name": "createPolicy",
      "outputs": [
        {
          "internalType": "address",
          "name": "",
          "type": "address"
        }
      ],
      "stateMutability": "nonpayable",
      "type": "function"
    }
  ],
  "bytecode": "0x608060405234801561001057600080fd5b50611544806100206000396000f3fe608060405234801561001057600080fd5b506004361061002b5760003560e01c8063d302c2ed14610030575b600080fd5b61004a600480360381019061004591906103a8565b610060565b6040516100579190610490565b60405180910390f35b6000600115156000803373ffffffffffffffffffffffffffffffffffffffff1673ffffffffffffffffffffffffffffffffffffffff16815260200190815260200160002060009054906101000a900460ff161515146100be57600080fd5b600080604051806020016100d1906101f8565b6020820181038252601f19601f820116604052509050600033306040516020016100fc9291906104f3565b604051602081830303815290604052805190602001209050808251602084016000f592508273ffffffffffffffffffffffffffffffffffffffff16631c936b5f888888336040518563ffffffff1660e01b815260040161015f94939291906105dd565b600060405180830381600087803b15801561017957600080fd5b505af115801561018d573d6000803e3d6000fd5b505050503373ffffffffffffffffffffffffffffffffffffffff168373ffffffffffffffffffffffffffffffffffffffff167f1a91c57e390e2b215ad4f17c283f3f4e2d8a1f2f6f16986800d7699df1a7605a60405160405180910390a38293505050509392505050565b610ed78061063883390190565b6000604051905090565b600080fd5b600080fd5b600080fd5b6000601f19601f8301169050919050565b7f4e487b7100000000000000000000000000000000000000000000000000000000600052604160045260246000fd5b6102678261021e565b810181811067ffffffffffffffff821117156102865761028561022f565b5b80604052505050565b6000610299610205565b90506102a5828261025e565b919050565b600067ffffffffffffffff8211156102c5576102c461022f565b5b602082029050602081019050919050565b600080fd5b6000819050919050565b6102ee816102db565b81146102f957600080fd5b50565b60008135905061030b816102e5565b92915050565b600061032461031f846102aa565b61028f565b90508083825260208201905060208402830185811115610347576103466102d6565b5b835b81811015610370578061035c88826102fc565b845260208401935050602081019050610349565b5050509392505050565b600082601f83011261038f5761038e610219565b5b813561039f848260208601610311565b91505092915050565b6000806000606084860312156103c1576103c061020f565b5b600084013567ffffffffffffffff8111156103df576103de610214565b5b6103eb8682870161037a565b935050602084013567ffffffffffffffff81111561040c5761040b610214565b5b6104188682870161037a565b925050604084013567ffffffffffffffff81111561043957610438610214565b5b6104458682870161037a565b9150509250925092565b600073ffffffffffffffffffffffffffffffffffffffff82169050919050565b600061047a8261044f565b9050919050565b61048a8161046f565b82525050565b60006020820190506104a56000830184610481565b92915050565b60008160601b9050919050565b60006104c3826104ab565b9050919050565b60006104d5826104b8565b9050919050565b6104ed6104e88261046f565b6104ca565b82525050565b60006104ff82856104dc565b60148201915061050f82846104dc565b6014820191508190509392505050565b600081519050919050565b600082825260208201905092915050565b6000819050602082019050919050565b610554816102db565b82525050565b6000610566838361054b565b60208301905092915050565b6000602082019050919050565b600061058a8261051f565b610594818561052a565b935061059f8361053b565b8060005b838110156105d05781516105b7888261055a565b97506105c283610572565b9250506001810190506105a3565b5085935050505092915050565b600060808201905081810360008301526105f7818761057f565b9050818103602083015261060b818661057f565b9050818103604083015261061f818561057f565b905061062e6060830184610481565b9594505050505056fe608060405234801561001057600080fd5b50610eb7806100206000396000f3fe608060405234801561001057600080fd5b506004361061007d5760003560e01c806337cee9a01161005b57806337cee9a0146100ea57806385cd879114610106578063b35ff82314610124578063f7c58b8e146101405761007d565b806317b15137146100825780631859fe4b1461009e5780631c936b5f146100ce575b600080fd5b61009c600480360381019061009791906107d3565b61015e565b005b6100b860048036038101906100b39190610813565b610243565b6040516100c59190610889565b60405180910390f35b6100e860048036038101906100e39190610a5b565b61033b565b005b61010460048036038101906100ff9190610b16565b6104c3565b005b61010e610620565b60405161011b9190610889565b60405180910390f35b61013e60048036038101906101399190610b16565b610626565b005b610148610783565b6040516101559190610889565b60405180910390f35b600460019054906101000a900473ffffffffffffffffffffffffffffffffffffffff1673ffffffffffffffffffffffffffffffffffffffff163373ffffffffffffffffffffffffffffffffffffffff16146101ee576040517f08c379a00000000000000000000000000000000000000000000000000000000081526004016101e590610ba0565b60405180910390fd5b8060056000848152602001908152602001600020819055507f171307605df6b02719e2dbe451c9aea99d9b1bb4e98be627d5b34deca8db26ad4283604051610237929190610bc0565b60405180910390a15050565b6000600115156006600084815260200190815260200160002060009054906101000a900460ff161515146102ac576040517f08c379a00000000000000000000000000000000000000000000000000000000081526004016102a390610c35565b60405180910390fd5b600254421180156102bf57506003544211155b6102fe576040517f08c379a00000000000000000000000000000000000000000000000000000000081526004016102f590610ca1565b60405180910390fd5b600060056000858152602001908152602001600020548561031f9190610cf0565b905085811061032e5785610330565b805b915050949350505050565b60001515600460009054906101000a900460ff16151514610391576040517f08c379a000000000000000000000000000000000000000000000000000000000815260040161038890610d7e565b60405180910390fd5b6001600460006101000a81548160ff02191690831515021790555060005b8451811015610417578381815181106103cb576103ca610d9e565b5b6020026020010151600560008784815181106103ea576103e9610d9e565b5b6020026020010151815260200190815260200160002081905550808061040f90610dcd565b9150506103af565b5080600460016101000a81548173ffffffffffffffffffffffffffffffffffffffff021916908373ffffffffffffffffffffffffffffffffffffffff16021790555060005b82518110156104bc5760016006600085848151811061047e5761047d610d9e565b5b6020026020010151815260200190815260200160002060006101000a81548160ff021916908315150217905550806104b590610dcd565b905061045c565b5050505050565b600460019054906101000a900473ffffffffffffffffffffffffffffffffffffffff1673ffffffffffffffffffffffffffffffffffffffff163373ffffffffffffffffffffffffffffffffffffffff1614610553576040517f08c379a000000000000000000000000000000000000000000000000000000000815260040161054a90610ba0565b60405180910390fd5b600115156006600083815260200190815260200160002060009054906101000a900460ff161515146105ba576040517f08c379a00000000000000000000000000000000000000000000000000000000081526004016105b190610c35565b60405180910390fd5b60006006600083815260200190815260200160002060006101000a81548160ff0219169083151502179055507fdfb480829c95c69fa50cdfb9d75e7a00b4b4efbdea6b552a0e358125ccd51384816040516106159190610889565b60405180910390a150565b60035481565b600460019054906101000a900473ffffffffffffffffffffffffffffffffffffffff1673ffffffffffffffffffffffffffffffffffffffff163373ffffffffffffffffffffffffffffffffffffffff16146106b6576040517f08c379a00000000000000000000000000000000000000000000000000000000081526004016106ad90610ba0565b60405180910390fd5b600015156006600083815260200190815260200160002060009054906101000a900460ff1615151461071d576040517f08c379a000000000000000000000000000000000000000000000000000000000815260040161071490610e61565b60405180910390fd5b60016006600083815260200190815260200160002060006101000a81548160ff0219169083151502179055507fdfb480829c95c69fa50cdfb9d75e7a00b4b4efbdea6b552a0e358125ccd51384816040516107789190610889565b60405180910390a150565b60025481565b6000604051905090565b600080fd5b600080fd5b6000819050919050565b6107b08161079d565b81146107bb57600080fd5b50565b6000813590506107cd816107a7565b92915050565b600080604083850312156107ea576107e9610793565b5b60006107f8858286016107be565b9250506020610809858286016107be565b9150509250929050565b6000806000806080858703121561082d5761082c610793565b5b600061083b878288016107be565b945050602061084c878288016107be565b935050604061085d878288016107be565b925050606061086e878288016107be565b91505092959194509250565b6108838161079d565b82525050565b600060208201905061089e600083018461087a565b92915050565b600080fd5b6000601f19601f8301169050919050565b7f4e487b7100000000000000000000000000000000000000000000000000000000600052604160045260246000fd5b6108f2826108a9565b810181811067ffffffffffffffff82111715610911576109106108ba565b5b80604052505050565b6000610924610789565b905061093082826108e9565b919050565b600067ffffffffffffffff8211156109505761094f6108ba565b5b602082029050602081019050919050565b600080fd5b600061097961097484610935565b61091a565b9050808382526020820190506020840283018581111561099c5761099b610961565b5b835b818110156109c557806109b188826107be565b84526020840193505060208101905061099e565b5050509392505050565b600082601f8301126109e4576109e36108a4565b5b81356109f4848260208601610966565b91505092915050565b600073ffffffffffffffffffffffffffffffffffffffff82169050919050565b6000610a28826109fd565b9050919050565b610a3881610a1d565b8114610a4357600080fd5b50565b600081359050610a5581610a2f565b92915050565b60008060008060808587031215610a7557610a74610793565b5b600085013567ffffffffffffffff811115610a9357610a92610798565b5b610a9f878288016109cf565b945050602085013567ffffffffffffffff811115610ac057610abf610798565b5b610acc878288016109cf565b935050604085013567ffffffffffffffff811115610aed57610aec610798565b5b610af9878288016109cf565b9250506060610b0a87828801610a46565b91505092959194509250565b600060208284031215610b2c57610b2b610793565b5b6000610b3a848285016107be565b91505092915050565b600082825260208201905092915050565b7f6f6e6c7920496e737572616e63652063616e20646f2074686973000000000000600082015250565b6000610b8a601a83610b43565b9150610b9582610b54565b602082019050919050565b60006020820190508181036000830152610bb981610b7d565b9050919050565b6000604082019050610bd5600083018561087a565b610be2602083018461087a565b9392505050565b7f6e6f74206120636c69656e740000000000000000000000000000000000000000600082015250565b6000610c1f600c83610b43565b9150610c2a82610be9565b602082019050919050565b60006020820190508181036000830152610c4e81610c12565b9050919050565b7f6e6f7420696e2074696d65000000000000000000000000000000000000000000600082015250565b6000610c8b600b83610b43565b9150610c9682610c55565b602082019050919050565b60006020820190508181036000830152610cba81610c7e565b9050919050565b7f4e487b7100000000000000000000000000000000000000000000000000000000600052601160045260246000fd5b6000610cfb8261079d565b9150610d068361079d565b9250828202610d148161079d565b91508282048414831517610d2b57610d2a610cc1565b5b5092915050565b7f616c726561647920696e697469616c6973656400000000000000000000000000600082015250565b6000610d68601383610b43565b9150610d7382610d32565b602082019050919050565b60006020820190508181036000830152610d9781610d5b565b9050919050565b7f4e487b7100000000000000000000000000000000000000000000000000000000600052603260045260246000fd5b6000610dd88261079d565b91507fffffffffffffffffffffffffffffffffffffffffffffffffffffffffffffffff8203610e0a57610e09610cc1565b5b600182019050919050565b7f616c7265616479206120636c69656e7400000000000000000000000000000000600082015250565b6000610e4b601083610b43565b9150610e5682610e15565b602082019050919050565b60006020820190508181036000830152610e7a81610e3e565b905091905056fea2646970667358221220c091f23029567502a4e5b560354645ecbc21ce45d45feba4d44c969a9fc1a95d64736f6c63430008110033a26469706673582212205273dedd1ea7b4803828ae79d1c726ab08fd76d7a1f3f20a856c1424e4aa08a264736f6c63430008110033",
  "immutableReferences": {},
  "source": "// SPDX-License-Identifier: UNLICENSED\npragma solidity 0.8.17;\n\nimport \"./Policy.sol\";\n\n\ncontract PolicyFactory {\n\n\n    mapping (address => bool) insuranceCompany;\n\n    event PolicyCreated(address indexed _policyCreated, address indexed _insuranceCompany);\n\n    constructor()  {}\n\n    function createPolicy(uint[] memory _actNumber, uint[] memory _policies, uint[] memory _clients) external returns (address) {\n        require (insuranceCompany[msg.sender]==true);\n        address policy;\n\n        bytes memory bytecode = type(Policy).creationCode;\n        bytes32 salt = keccak256(abi.encodePacked(msg.sender, address(this)));\n        assembly {\n            policy := create2(0, add(bytecode, 32), mload(bytecode), salt)\n        }\n        Policy(policy).initialyse(_actNumber, _policies, _clients, msg.sender);\n        emit PolicyCreated(policy, msg.sender);\n        return policy;\n    }\n}  \n",
  "sourcePath": "/home/cyril/dev/eth/assuThomas/contracts/PolicyFactory.sol",
  "compiler": {
    "name": "solc",
    "version": "0.8.17+commit.8df45f5f.Emscripten.clang"
  },
  "schemaVersion": "3.4.10",
  "updatedAt": "2023-06-24T11:44:11.803Z",
  "devdoc": {
    "kind": "dev",
    "methods": {},
    "version": 1
  },
  "userdoc": {
    "kind": "user",
    "methods": {},
    "version": 1
  }
}