{
  "contractName": "Policy",
  "abi": [
    {
      "inputs": [],
      "stateMutability": "nonpayable",
      "type": "constructor"
    },
    {
      "anonymous": false,
      "inputs": [
        {
          "indexed": false,
          "internalType": "uint256",
          "name": "timestamp",
          "type": "uint256"
        },
        {
          "indexed": false,
          "internalType": "uint256",
          "name": "actNumber",
          "type": "uint256"
        }
      ],
      "name": "PoliciesChanged",
      "type": "event"
    },
    {
      "inputs": [],
      "name": "EndContract",
      "outputs": [
        {
          "internalType": "uint256",
          "name": "",
          "type": "uint256"
        }
      ],
      "stateMutability": "view",
      "type": "function"
    },
    {
      "inputs": [],
      "name": "StartContract",
      "outputs": [
        {
          "internalType": "uint256",
          "name": "",
          "type": "uint256"
        }
      ],
      "stateMutability": "view",
      "type": "function"
    },
    {
      "inputs": [
        {
          "internalType": "uint256[]",
          "name": "_actNumber",
          "type": "uint256[]"
        },
        {
          "internalType": "uint256[]",
          "name": "_policies",
          "type": "uint256[]"
        },
        {
          "internalType": "address",
          "name": "_insuranceCompany",
          "type": "address"
        }
      ],
      "name": "initialyse",
      "outputs": [],
      "stateMutability": "nonpayable",
      "type": "function"
    },
    {
      "inputs": [
        {
          "internalType": "uint256",
          "name": "_actNumber",
          "type": "uint256"
        },
        {
          "internalType": "uint256",
          "name": "_policy",
          "type": "uint256"
        }
      ],
      "name": "_modifyPolicies",
      "outputs": [],
      "stateMutability": "nonpayable",
      "type": "function"
    },
    {
      "inputs": [
        {
          "internalType": "uint256",
          "name": "_price",
          "type": "uint256"
        },
        {
          "internalType": "uint256",
          "name": "_BRMR",
          "type": "uint256"
        },
        {
          "internalType": "uint256",
          "name": "_reimburseSecu",
          "type": "uint256"
        },
        {
          "internalType": "uint256",
          "name": "_actNumber",
          "type": "uint256"
        }
      ],
      "name": "_getReimbursementValue",
      "outputs": [
        {
          "internalType": "uint256",
          "name": "",
          "type": "uint256"
        }
      ],
      "stateMutability": "view",
      "type": "function"
    }
  ],
  "bytecode": "0x608060405234801561001057600080fd5b50610a5e806100206000396000f3fe608060405234801561001057600080fd5b50600436106100575760003560e01c806317b151371461005c5780631859fe4b1461007857806379d95abc146100a857806385cd8791146100c4578063f7c58b8e146100e2575b600080fd5b61007660048036038101906100719190610453565b610100565b005b610092600480360381019061008d9190610493565b6101e5565b60405161009f9190610509565b60405180910390f35b6100c260048036038101906100bd91906106db565b6102da565b005b6100cc6103fd565b6040516100d99190610509565b60405180910390f35b6100ea610403565b6040516100f79190610509565b60405180910390f35b600460019054906101000a900473ffffffffffffffffffffffffffffffffffffffff1673ffffffffffffffffffffffffffffffffffffffff163373ffffffffffffffffffffffffffffffffffffffff1614610190576040517f08c379a0000000000000000000000000000000000000000000000000000000008152600401610187906107c3565b60405180910390fd5b8060056000848152602001908152602001600020819055507f171307605df6b02719e2dbe451c9aea99d9b1bb4e98be627d5b34deca8db26ad42836040516101d99291906107e3565b60405180910390a15050565b6000600460019054906101000a900473ffffffffffffffffffffffffffffffffffffffff1673ffffffffffffffffffffffffffffffffffffffff163373ffffffffffffffffffffffffffffffffffffffff1614610277576040517f08c379a000000000000000000000000000000000000000000000000000000000815260040161026e906107c3565b60405180910390fd5b6000606460056000858152602001908152602001600020548661029a919061083b565b6102a491906108ac565b90508584826102b391906108dd565b10156102c257809150506102d2565b83866102ce9190610911565b9150505b949350505050565b60001515600460009054906101000a900460ff16151514610330576040517f08c379a000000000000000000000000000000000000000000000000000000000815260040161032790610991565b60405180910390fd5b6001600460006101000a81548160ff02191690831515021790555060005b83518110156103b65782818151811061036a576103696109b1565b5b602002602001015160056000868481518110610389576103886109b1565b5b602002602001015181526020019081526020016000208190555080806103ae906109e0565b91505061034e565b5080600460016101000a81548173ffffffffffffffffffffffffffffffffffffffff021916908373ffffffffffffffffffffffffffffffffffffffff160217905550505050565b60035481565b60025481565b6000604051905090565b600080fd5b600080fd5b6000819050919050565b6104308161041d565b811461043b57600080fd5b50565b60008135905061044d81610427565b92915050565b6000806040838503121561046a57610469610413565b5b60006104788582860161043e565b92505060206104898582860161043e565b9150509250929050565b600080600080608085870312156104ad576104ac610413565b5b60006104bb8782880161043e565b94505060206104cc8782880161043e565b93505060406104dd8782880161043e565b92505060606104ee8782880161043e565b91505092959194509250565b6105038161041d565b82525050565b600060208201905061051e60008301846104fa565b92915050565b600080fd5b6000601f19601f8301169050919050565b7f4e487b7100000000000000000000000000000000000000000000000000000000600052604160045260246000fd5b61057282610529565b810181811067ffffffffffffffff821117156105915761059061053a565b5b80604052505050565b60006105a4610409565b90506105b08282610569565b919050565b600067ffffffffffffffff8211156105d0576105cf61053a565b5b602082029050602081019050919050565b600080fd5b60006105f96105f4846105b5565b61059a565b9050808382526020820190506020840283018581111561061c5761061b6105e1565b5b835b818110156106455780610631888261043e565b84526020840193505060208101905061061e565b5050509392505050565b600082601f83011261066457610663610524565b5b81356106748482602086016105e6565b91505092915050565b600073ffffffffffffffffffffffffffffffffffffffff82169050919050565b60006106a88261067d565b9050919050565b6106b88161069d565b81146106c357600080fd5b50565b6000813590506106d5816106af565b92915050565b6000806000606084860312156106f4576106f3610413565b5b600084013567ffffffffffffffff81111561071257610711610418565b5b61071e8682870161064f565b935050602084013567ffffffffffffffff81111561073f5761073e610418565b5b61074b8682870161064f565b925050604061075c868287016106c6565b9150509250925092565b600082825260208201905092915050565b7f6f6e6c7920496e737572616e63652063616e20646f2074686973000000000000600082015250565b60006107ad601a83610766565b91506107b882610777565b602082019050919050565b600060208201905081810360008301526107dc816107a0565b9050919050565b60006040820190506107f860008301856104fa565b61080560208301846104fa565b9392505050565b7f4e487b7100000000000000000000000000000000000000000000000000000000600052601160045260246000fd5b60006108468261041d565b91506108518361041d565b925082820261085f8161041d565b915082820484148315176108765761087561080c565b5b5092915050565b7f4e487b7100000000000000000000000000000000000000000000000000000000600052601260045260246000fd5b60006108b78261041d565b91506108c28361041d565b9250826108d2576108d161087d565b5b828204905092915050565b60006108e88261041d565b91506108f38361041d565b925082820190508082111561090b5761090a61080c565b5b92915050565b600061091c8261041d565b91506109278361041d565b925082820390508181111561093f5761093e61080c565b5b92915050565b7f616c726561647920696e697469616c6973656400000000000000000000000000600082015250565b600061097b601383610766565b915061098682610945565b602082019050919050565b600060208201905081810360008301526109aa8161096e565b9050919050565b7f4e487b7100000000000000000000000000000000000000000000000000000000600052603260045260246000fd5b60006109eb8261041d565b91507fffffffffffffffffffffffffffffffffffffffffffffffffffffffffffffffff8203610a1d57610a1c61080c565b5b60018201905091905056fea264697066735822122014ee5c72cd1ab72e21f874941bc5017e7e0439a6642b8edcf48f3d1471b474f464736f6c63430008110033",
  "immutableReferences": {},
  "source": "// SPDX-License-Identifier: UNLICENSED\npragma solidity 0.8.17;\n\ncontract Policy {\n\n    string private COMPANY_NAME;\n    uint private COMPANY_IDENTIFIER;\n    uint public StartContract;\n    uint public EndContract;\n\n    bool initialiser;\n    address INSURANCE_ADDRESS;\n\n    mapping(uint => uint) Policies;\n    // pourcentage de remboursement sur (base de remboursement - montant rembours scu)\n\n    event PoliciesChanged(uint timestamp, uint actNumber);\n\n    constructor() {}\n\n    modifier onlyInsurance{\n        require (msg.sender== INSURANCE_ADDRESS, \"only Insurance can do this\");\n        _;\n    }\n\n    function initialyse (uint[] memory _actNumber, uint[] memory _policies, address _insuranceCompany) public {\n        require(initialiser == false, \"already initialised\");\n        initialiser = true;\n        for (uint j=0; j<_actNumber.length; j++){\n            Policies[_actNumber[j]]=_policies[j];\n        }\n        INSURANCE_ADDRESS = _insuranceCompany;\n    }\n\n    function _modifyPolicies (uint _actNumber, uint _policy) public onlyInsurance {\n        Policies[_actNumber] = _policy;\n        emit PoliciesChanged(block.timestamp, _actNumber);\n    }\n\n    function _getReimbursementValue(uint _price, uint _BRMR, uint _reimburseSecu, uint _actNumber) public view onlyInsurance returns  (uint){\n        uint value = (_BRMR * Policies[_actNumber])/100;\n        if (value + _reimburseSecu < _price){\n            return value;\n        }\n        else{\n            return  (_price - _reimburseSecu);\n        }\n    }\n\n}\n",
  "sourcePath": "/home/cyril/dev/eth/assuThomas/contracts/Policy.sol",
  "compiler": {
    "name": "solc",
    "version": "0.8.17+commit.8df45f5f.Emscripten.clang"
  },
  "schemaVersion": "3.4.10",
  "updatedAt": "2023-06-24T23:43:58.404Z",
  "devdoc": {
    "kind": "dev",
    "methods": {},
    "version": 1
  },
  "userdoc": {
    "kind": "user",
    "methods": {},
    "version": 1
  }
}