{
  "contractName": "Policy",
  "abi": [
    {
      "inputs": [],
      "stateMutability": "nonpayable",
      "type": "constructor"
    },
    {
      "anonymous": false,
      "inputs": [
        {
          "indexed": false,
          "internalType": "uint256",
          "name": "client",
          "type": "uint256"
        }
      ],
      "name": "ClientChanged",
      "type": "event"
    },
    {
      "anonymous": false,
      "inputs": [
        {
          "indexed": false,
          "internalType": "uint256",
          "name": "timestamp",
          "type": "uint256"
        },
        {
          "indexed": false,
          "internalType": "uint256",
          "name": "actNumber",
          "type": "uint256"
        }
      ],
      "name": "PoliciesChanged",
      "type": "event"
    },
    {
      "inputs": [],
      "name": "EndContract",
      "outputs": [
        {
          "internalType": "uint256",
          "name": "",
          "type": "uint256"
        }
      ],
      "stateMutability": "view",
      "type": "function"
    },
    {
      "inputs": [],
      "name": "StartContract",
      "outputs": [
        {
          "internalType": "uint256",
          "name": "",
          "type": "uint256"
        }
      ],
      "stateMutability": "view",
      "type": "function"
    },
    {
      "inputs": [
        {
          "internalType": "uint256[]",
          "name": "_actNumber",
          "type": "uint256[]"
        },
        {
          "internalType": "uint256[]",
          "name": "_policies",
          "type": "uint256[]"
        },
        {
          "internalType": "uint256[]",
          "name": "_clientsCode",
          "type": "uint256[]"
        },
        {
          "internalType": "address",
          "name": "_insuranceCompany",
          "type": "address"
        }
      ],
      "name": "initialyse",
      "outputs": [],
      "stateMutability": "nonpayable",
      "type": "function"
    },
    {
      "inputs": [
        {
          "internalType": "uint256",
          "name": "_actNumber",
          "type": "uint256"
        },
        {
          "internalType": "uint256",
          "name": "_policy",
          "type": "uint256"
        }
      ],
      "name": "_modifyPolicies",
      "outputs": [],
      "stateMutability": "nonpayable",
      "type": "function"
    },
    {
      "inputs": [
        {
          "internalType": "uint256",
          "name": "_secuCode",
          "type": "uint256"
        }
      ],
      "name": "_addClient",
      "outputs": [],
      "stateMutability": "nonpayable",
      "type": "function"
    },
    {
      "inputs": [
        {
          "internalType": "uint256",
          "name": "_clientsCode",
          "type": "uint256"
        }
      ],
      "name": "_removeClient",
      "outputs": [],
      "stateMutability": "nonpayable",
      "type": "function"
    },
    {
      "inputs": [
        {
          "internalType": "uint256",
          "name": "_price",
          "type": "uint256"
        },
        {
          "internalType": "uint256",
          "name": "_BRMR",
          "type": "uint256"
        },
        {
          "internalType": "uint256",
          "name": "_actNumber",
          "type": "uint256"
        },
        {
          "internalType": "uint256",
          "name": "_client",
          "type": "uint256"
        }
      ],
      "name": "_getReimbursementValue",
      "outputs": [
        {
          "internalType": "uint256",
          "name": "",
          "type": "uint256"
        }
      ],
      "stateMutability": "view",
      "type": "function"
    }
  ],
  "bytecode": "0x608060405234801561001057600080fd5b50610eb7806100206000396000f3fe608060405234801561001057600080fd5b506004361061007d5760003560e01c806337cee9a01161005b57806337cee9a0146100ea57806385cd879114610106578063b35ff82314610124578063f7c58b8e146101405761007d565b806317b15137146100825780631859fe4b1461009e5780631c936b5f146100ce575b600080fd5b61009c600480360381019061009791906107d3565b61015e565b005b6100b860048036038101906100b39190610813565b610243565b6040516100c59190610889565b60405180910390f35b6100e860048036038101906100e39190610a5b565b61033b565b005b61010460048036038101906100ff9190610b16565b6104c3565b005b61010e610620565b60405161011b9190610889565b60405180910390f35b61013e60048036038101906101399190610b16565b610626565b005b610148610783565b6040516101559190610889565b60405180910390f35b600460019054906101000a900473ffffffffffffffffffffffffffffffffffffffff1673ffffffffffffffffffffffffffffffffffffffff163373ffffffffffffffffffffffffffffffffffffffff16146101ee576040517f08c379a00000000000000000000000000000000000000000000000000000000081526004016101e590610ba0565b60405180910390fd5b8060056000848152602001908152602001600020819055507f171307605df6b02719e2dbe451c9aea99d9b1bb4e98be627d5b34deca8db26ad4283604051610237929190610bc0565b60405180910390a15050565b6000600115156006600084815260200190815260200160002060009054906101000a900460ff161515146102ac576040517f08c379a00000000000000000000000000000000000000000000000000000000081526004016102a390610c35565b60405180910390fd5b600254421180156102bf57506003544211155b6102fe576040517f08c379a00000000000000000000000000000000000000000000000000000000081526004016102f590610ca1565b60405180910390fd5b600060056000858152602001908152602001600020548561031f9190610cf0565b905085811061032e5785610330565b805b915050949350505050565b60001515600460009054906101000a900460ff16151514610391576040517f08c379a000000000000000000000000000000000000000000000000000000000815260040161038890610d7e565b60405180910390fd5b6001600460006101000a81548160ff02191690831515021790555060005b8451811015610417578381815181106103cb576103ca610d9e565b5b6020026020010151600560008784815181106103ea576103e9610d9e565b5b6020026020010151815260200190815260200160002081905550808061040f90610dcd565b9150506103af565b5080600460016101000a81548173ffffffffffffffffffffffffffffffffffffffff021916908373ffffffffffffffffffffffffffffffffffffffff16021790555060005b82518110156104bc5760016006600085848151811061047e5761047d610d9e565b5b6020026020010151815260200190815260200160002060006101000a81548160ff021916908315150217905550806104b590610dcd565b905061045c565b5050505050565b600460019054906101000a900473ffffffffffffffffffffffffffffffffffffffff1673ffffffffffffffffffffffffffffffffffffffff163373ffffffffffffffffffffffffffffffffffffffff1614610553576040517f08c379a000000000000000000000000000000000000000000000000000000000815260040161054a90610ba0565b60405180910390fd5b600115156006600083815260200190815260200160002060009054906101000a900460ff161515146105ba576040517f08c379a00000000000000000000000000000000000000000000000000000000081526004016105b190610c35565b60405180910390fd5b60006006600083815260200190815260200160002060006101000a81548160ff0219169083151502179055507fdfb480829c95c69fa50cdfb9d75e7a00b4b4efbdea6b552a0e358125ccd51384816040516106159190610889565b60405180910390a150565b60035481565b600460019054906101000a900473ffffffffffffffffffffffffffffffffffffffff1673ffffffffffffffffffffffffffffffffffffffff163373ffffffffffffffffffffffffffffffffffffffff16146106b6576040517f08c379a00000000000000000000000000000000000000000000000000000000081526004016106ad90610ba0565b60405180910390fd5b600015156006600083815260200190815260200160002060009054906101000a900460ff1615151461071d576040517f08c379a000000000000000000000000000000000000000000000000000000000815260040161071490610e61565b60405180910390fd5b60016006600083815260200190815260200160002060006101000a81548160ff0219169083151502179055507fdfb480829c95c69fa50cdfb9d75e7a00b4b4efbdea6b552a0e358125ccd51384816040516107789190610889565b60405180910390a150565b60025481565b6000604051905090565b600080fd5b600080fd5b6000819050919050565b6107b08161079d565b81146107bb57600080fd5b50565b6000813590506107cd816107a7565b92915050565b600080604083850312156107ea576107e9610793565b5b60006107f8858286016107be565b9250506020610809858286016107be565b9150509250929050565b6000806000806080858703121561082d5761082c610793565b5b600061083b878288016107be565b945050602061084c878288016107be565b935050604061085d878288016107be565b925050606061086e878288016107be565b91505092959194509250565b6108838161079d565b82525050565b600060208201905061089e600083018461087a565b92915050565b600080fd5b6000601f19601f8301169050919050565b7f4e487b7100000000000000000000000000000000000000000000000000000000600052604160045260246000fd5b6108f2826108a9565b810181811067ffffffffffffffff82111715610911576109106108ba565b5b80604052505050565b6000610924610789565b905061093082826108e9565b919050565b600067ffffffffffffffff8211156109505761094f6108ba565b5b602082029050602081019050919050565b600080fd5b600061097961097484610935565b61091a565b9050808382526020820190506020840283018581111561099c5761099b610961565b5b835b818110156109c557806109b188826107be565b84526020840193505060208101905061099e565b5050509392505050565b600082601f8301126109e4576109e36108a4565b5b81356109f4848260208601610966565b91505092915050565b600073ffffffffffffffffffffffffffffffffffffffff82169050919050565b6000610a28826109fd565b9050919050565b610a3881610a1d565b8114610a4357600080fd5b50565b600081359050610a5581610a2f565b92915050565b60008060008060808587031215610a7557610a74610793565b5b600085013567ffffffffffffffff811115610a9357610a92610798565b5b610a9f878288016109cf565b945050602085013567ffffffffffffffff811115610ac057610abf610798565b5b610acc878288016109cf565b935050604085013567ffffffffffffffff811115610aed57610aec610798565b5b610af9878288016109cf565b9250506060610b0a87828801610a46565b91505092959194509250565b600060208284031215610b2c57610b2b610793565b5b6000610b3a848285016107be565b91505092915050565b600082825260208201905092915050565b7f6f6e6c7920496e737572616e63652063616e20646f2074686973000000000000600082015250565b6000610b8a601a83610b43565b9150610b9582610b54565b602082019050919050565b60006020820190508181036000830152610bb981610b7d565b9050919050565b6000604082019050610bd5600083018561087a565b610be2602083018461087a565b9392505050565b7f6e6f74206120636c69656e740000000000000000000000000000000000000000600082015250565b6000610c1f600c83610b43565b9150610c2a82610be9565b602082019050919050565b60006020820190508181036000830152610c4e81610c12565b9050919050565b7f6e6f7420696e2074696d65000000000000000000000000000000000000000000600082015250565b6000610c8b600b83610b43565b9150610c9682610c55565b602082019050919050565b60006020820190508181036000830152610cba81610c7e565b9050919050565b7f4e487b7100000000000000000000000000000000000000000000000000000000600052601160045260246000fd5b6000610cfb8261079d565b9150610d068361079d565b9250828202610d148161079d565b91508282048414831517610d2b57610d2a610cc1565b5b5092915050565b7f616c726561647920696e697469616c6973656400000000000000000000000000600082015250565b6000610d68601383610b43565b9150610d7382610d32565b602082019050919050565b60006020820190508181036000830152610d9781610d5b565b9050919050565b7f4e487b7100000000000000000000000000000000000000000000000000000000600052603260045260246000fd5b6000610dd88261079d565b91507fffffffffffffffffffffffffffffffffffffffffffffffffffffffffffffffff8203610e0a57610e09610cc1565b5b600182019050919050565b7f616c7265616479206120636c69656e7400000000000000000000000000000000600082015250565b6000610e4b601083610b43565b9150610e5682610e15565b602082019050919050565b60006020820190508181036000830152610e7a81610e3e565b905091905056fea2646970667358221220c091f23029567502a4e5b560354645ecbc21ce45d45feba4d44c969a9fc1a95d64736f6c63430008110033",
  "immutableReferences": {},
  "source": "// SPDX-License-Identifier: UNLICENSED\npragma solidity 0.8.17;\n\ncontract Policy {\n\n    string private COMPANY_NAME;\n    uint private COMPANY_IDENTIFIER;\n    uint public StartContract;\n    uint public EndContract;\n\n    bool initialiser;\n    address INSURANCE_ADDRESS;\n\n    mapping(uint => uint) Policies;\n    // pourcentage de remboursement sur (base de remboursement - montant rembours scu)\n\n    mapping (uint => bool) Clients;\n\n    event PoliciesChanged(uint timestamp, uint actNumber);\n    event ClientChanged(uint client);\n\n    constructor() {}\n\n    function initialyse (uint[] memory _actNumber, uint[] memory _policies, uint[] memory _clientsCode, address _insuranceCompany) public {\n        require(initialiser == false, \"already initialised\");\n        initialiser = true;\n        for (uint j=0; j<_actNumber.length; j++){\n            Policies[_actNumber[j]]=_policies[j];\n        }\n        INSURANCE_ADDRESS = _insuranceCompany;\n\n        for (uint i; i< _clientsCode.length; ++i){\n            Clients[_clientsCode[i]] = true;\n        }\n    }\n\n    modifier onlyInsurance{\n        require (msg.sender== INSURANCE_ADDRESS, \"only Insurance can do this\");\n        _;\n    }\n\n    function _modifyPolicies (uint _actNumber, uint _policy) onlyInsurance public {\n        Policies[_actNumber] = _policy;\n        emit PoliciesChanged(block.timestamp, _actNumber);\n    }\n\n    function _addClient (uint _secuCode ) public onlyInsurance{\n        require(Clients[_secuCode]==false, \"already a client\");\n        Clients[_secuCode]=true;\n        emit ClientChanged(_secuCode);\n    }\n\n    function _removeClient (uint _clientsCode ) public onlyInsurance{\n        require(Clients[_clientsCode]==true, \"not a client\");\n        Clients[_clientsCode]=false;\n        emit ClientChanged(_clientsCode);\n    }\n\n    function _getReimbursementValue(uint _price, uint _BRMR, uint _actNumber, uint _client) public view returns (uint){\n        require (Clients[_client]==true, \"not a client\");\n        require(block.timestamp > StartContract && block.timestamp <= EndContract, \"not in time\");\n        uint value = _BRMR * Policies[_actNumber];\n        return value < _price? value: _price;\n    }\n\n}\n",
  "sourcePath": "/home/cyril/dev/eth/assuThomas/contracts/Policy.sol",
  "compiler": {
    "name": "solc",
    "version": "0.8.17+commit.8df45f5f.Emscripten.clang"
  },
  "schemaVersion": "3.4.10",
  "updatedAt": "2023-06-24T02:31:36.800Z",
  "devdoc": {
    "kind": "dev",
    "methods": {},
    "version": 1
  },
  "userdoc": {
    "kind": "user",
    "methods": {},
    "version": 1
  }
}