{
  "contractName": "Secu",
  "abi": [
    {
      "inputs": [],
      "stateMutability": "nonpayable",
      "type": "constructor"
    },
    {
      "anonymous": false,
      "inputs": [
        {
          "indexed": true,
          "internalType": "address",
          "name": "_policyCreated",
          "type": "address"
        },
        {
          "indexed": true,
          "internalType": "address",
          "name": "_insuranceCompany",
          "type": "address"
        }
      ],
      "name": "PolicyCreated",
      "type": "event"
    },
    {
      "anonymous": false,
      "inputs": [
        {
          "indexed": false,
          "internalType": "uint256",
          "name": "SecuCode",
          "type": "uint256"
        },
        {
          "indexed": false,
          "internalType": "uint256",
          "name": "value",
          "type": "uint256"
        }
      ],
      "name": "reimbursedSecu",
      "type": "event"
    },
    {
      "inputs": [
        {
          "internalType": "address",
          "name": "_proAddress",
          "type": "address"
        },
        {
          "internalType": "bool",
          "name": "_isPro",
          "type": "bool"
        }
      ],
      "name": "updatePro",
      "outputs": [],
      "stateMutability": "nonpayable",
      "type": "function"
    },
    {
      "inputs": [
        {
          "internalType": "address",
          "name": "_assuAddress",
          "type": "address"
        },
        {
          "internalType": "bool",
          "name": "_isAssu",
          "type": "bool"
        }
      ],
      "name": "updateAssureur",
      "outputs": [],
      "stateMutability": "nonpayable",
      "type": "function"
    },
    {
      "inputs": [
        {
          "internalType": "uint256",
          "name": "_clientsCode",
          "type": "uint256"
        },
        {
          "internalType": "address",
          "name": "_newCompany",
          "type": "address"
        }
      ],
      "name": "updateUser",
      "outputs": [],
      "stateMutability": "nonpayable",
      "type": "function"
    },
    {
      "inputs": [
        {
          "internalType": "uint256",
          "name": "_secuCode",
          "type": "uint256"
        }
      ],
      "name": "removeInsured",
      "outputs": [],
      "stateMutability": "nonpayable",
      "type": "function"
    },
    {
      "inputs": [
        {
          "internalType": "uint256",
          "name": "_actNumber",
          "type": "uint256"
        },
        {
          "internalType": "uint256[2]",
          "name": "_policies",
          "type": "uint256[2]"
        }
      ],
      "name": "modifySecuPolicies",
      "outputs": [],
      "stateMutability": "nonpayable",
      "type": "function"
    },
    {
      "inputs": [
        {
          "internalType": "uint256",
          "name": "_price",
          "type": "uint256"
        },
        {
          "internalType": "uint256",
          "name": "_actNumber",
          "type": "uint256"
        },
        {
          "internalType": "uint256",
          "name": "_clientsCode",
          "type": "uint256"
        }
      ],
      "name": "reimburseUser",
      "outputs": [],
      "stateMutability": "nonpayable",
      "type": "function"
    },
    {
      "inputs": [
        {
          "internalType": "uint256",
          "name": "_secuCode",
          "type": "uint256"
        }
      ],
      "name": "gettruc",
      "outputs": [
        {
          "internalType": "address",
          "name": "",
          "type": "address"
        }
      ],
      "stateMutability": "view",
      "type": "function",
      "constant": true
    },
    {
      "inputs": [],
      "name": "addSecuTreasury",
      "outputs": [],
      "stateMutability": "payable",
      "type": "function",
      "payable": true
    },
    {
      "inputs": [
        {
          "internalType": "uint256[]",
          "name": "_actNumber",
          "type": "uint256[]"
        },
        {
          "internalType": "uint256[]",
          "name": "_policies",
          "type": "uint256[]"
        }
      ],
      "name": "createPolicy",
      "outputs": [
        {
          "internalType": "address",
          "name": "",
          "type": "address"
        }
      ],
      "stateMutability": "nonpayable",
      "type": "function"
    }
  ],
  "bytecode": "0x608060405234801561001057600080fd5b50336000806101000a81548173ffffffffffffffffffffffffffffffffffffffff021916908373ffffffffffffffffffffffffffffffffffffffff1602179055506122a2806100606000396000f3fe6080604052600436106100865760003560e01c80638b3a2133116100595780638b3a2133146101575780638fb4e1cd14610180578063aff47d53146101a9578063c590e49f146101d2578063e0794a6e146101dc57610086565b80634e09af161461008b57806366f3fc5b146100b45780637282604f146100dd57806383b114e71461011a575b600080fd5b34801561009757600080fd5b506100b260048036038101906100ad9190610dd5565b610205565b005b3480156100c057600080fd5b506100db60048036038101906100d69190610e4b565b6102ee565b005b3480156100e957600080fd5b5061010460048036038101906100ff9190610ff7565b61044c565b604051610111919061107e565b60405180910390f35b34801561012657600080fd5b50610141600480360381019061013c9190611099565b6105e2565b60405161014e919061107e565b60405180910390f35b34801561016357600080fd5b5061017e60048036038101906101799190610dd5565b61061f565b005b34801561018c57600080fd5b506101a760048036038101906101a291906110c6565b610708565b005b3480156101b557600080fd5b506101d060048036038101906101cb91906111b7565b610811565b005b6101da610890565b005b3480156101e857600080fd5b5061020360048036038101906101fe9190611099565b610892565b005b60008054906101000a900473ffffffffffffffffffffffffffffffffffffffff1673ffffffffffffffffffffffffffffffffffffffff163373ffffffffffffffffffffffffffffffffffffffff1614610293576040517f08c379a000000000000000000000000000000000000000000000000000000000815260040161028a90611254565b60405180910390fd5b80600360008473ffffffffffffffffffffffffffffffffffffffff1673ffffffffffffffffffffffffffffffffffffffff16815260200190815260200160002060006101000a81548160ff0219169083151502179055505050565b60011515600260003373ffffffffffffffffffffffffffffffffffffffff1673ffffffffffffffffffffffffffffffffffffffff16815260200190815260200160002060009054906101000a900460ff16151514610381576040517f08c379a0000000000000000000000000000000000000000000000000000000008152600401610378906112c0565b60405180910390fd5b600061038f84848433610aa2565b9050600073ffffffffffffffffffffffffffffffffffffffff166001600084815260200190815260200160002060009054906101000a900473ffffffffffffffffffffffffffffffffffffffff1673ffffffffffffffffffffffffffffffffffffffff161415801561040057508084115b15610446576104458482600460008781526020019081526020016000206000600281106104305761042f6112e0565b5b015461043c919061133e565b83868633610c0b565b5b50505050565b600060011515600360003373ffffffffffffffffffffffffffffffffffffffff1673ffffffffffffffffffffffffffffffffffffffff16815260200190815260200160002060009054906101000a900460ff161515146104ab57600080fd5b600080604051806020016104be90610cc1565b6020820181038252601f19601f820116604052509050600033306040516020016104e99291906113ba565b604051602081830303815290604052805190602001209050808251602084016000f592508273ffffffffffffffffffffffffffffffffffffffff166379d95abc8787336040518463ffffffff1660e01b815260040161054a939291906114a4565b600060405180830381600087803b15801561056457600080fd5b505af1158015610578573d6000803e3d6000fd5b505050503373ffffffffffffffffffffffffffffffffffffffff168373ffffffffffffffffffffffffffffffffffffffff167f1a91c57e390e2b215ad4f17c283f3f4e2d8a1f2f6f16986800d7699df1a7605a60405160405180910390a382935050505092915050565b60006001600083815260200190815260200160002060009054906101000a900473ffffffffffffffffffffffffffffffffffffffff169050919050565b60008054906101000a900473ffffffffffffffffffffffffffffffffffffffff1673ffffffffffffffffffffffffffffffffffffffff163373ffffffffffffffffffffffffffffffffffffffff16146106ad576040517f08c379a00000000000000000000000000000000000000000000000000000000081526004016106a490611535565b60405180910390fd5b80600260008473ffffffffffffffffffffffffffffffffffffffff1673ffffffffffffffffffffffffffffffffffffffff16815260200190815260200160002060006101000a81548160ff0219169083151502179055505050565b60008054906101000a900473ffffffffffffffffffffffffffffffffffffffff1673ffffffffffffffffffffffffffffffffffffffff163373ffffffffffffffffffffffffffffffffffffffff1614806107b2575060011515600360003373ffffffffffffffffffffffffffffffffffffffff1673ffffffffffffffffffffffffffffffffffffffff16815260200190815260200160002060009054906101000a900460ff161515145b6107bb57600080fd5b806001600084815260200190815260200160002060006101000a81548173ffffffffffffffffffffffffffffffffffffffff021916908373ffffffffffffffffffffffffffffffffffffffff1602179055505050565b3373ffffffffffffffffffffffffffffffffffffffff1660008054906101000a900473ffffffffffffffffffffffffffffffffffffffff1673ffffffffffffffffffffffffffffffffffffffff161461086957600080fd5b806004600084815260200190815260200160002090600261088b929190610cce565b505050565b565b60008054906101000a900473ffffffffffffffffffffffffffffffffffffffff1673ffffffffffffffffffffffffffffffffffffffff163373ffffffffffffffffffffffffffffffffffffffff16148061093c575060011515600360003373ffffffffffffffffffffffffffffffffffffffff1673ffffffffffffffffffffffffffffffffffffffff16815260200190815260200160002060009054906101000a900460ff161515145b61094557600080fd5b60006001600083815260200190815260200160002060009054906101000a900473ffffffffffffffffffffffffffffffffffffffff169050600073ffffffffffffffffffffffffffffffffffffffff168173ffffffffffffffffffffffffffffffffffffffff1614610a9e5760008173ffffffffffffffffffffffffffffffffffffffff16632b07fce3846040518263ffffffff1660e01b81526004016109ec9190611564565b602060405180830381865afa158015610a09573d6000803e3d6000fd5b505050506040513d601f19601f82011682018060405250810190610a2d9190611594565b90508173ffffffffffffffffffffffffffffffffffffffff166352c103ff82856040518363ffffffff1660e01b8152600401610a6a9291906115c1565b600060405180830381600087803b158015610a8457600080fd5b505af1158015610a98573d6000803e3d6000fd5b50505050505b5050565b600080606460046000878152602001908152602001600020600160028110610acd57610acc6112e0565b5b015460046000888152602001908152602001600020600060028110610af557610af46112e0565b5b0154610b0191906115ea565b610b0b919061165b565b905080861015610b19578590505b60008373ffffffffffffffffffffffffffffffffffffffff1682604051610b3f906116bd565b60006040518083038185875af1925050503d8060008114610b7c576040519150601f19603f3d011682016040523d82523d6000602084013e610b81565b606091505b5050905080610bc5576040517f08c379a0000000000000000000000000000000000000000000000000000000008152600401610bbc90611744565b60405180910390fd5b7fd06b8f1e60095dcb2239368aa956d9fcccb96df8090a7df7b45107c8578353c68583604051610bf6929190611764565b60405180910390a18192505050949350505050565b60006001600084815260200190815260200160002060009054906101000a900473ffffffffffffffffffffffffffffffffffffffff1690508073ffffffffffffffffffffffffffffffffffffffff16639679497d8888888888886040518763ffffffff1660e01b8152600401610c869695949392919061178d565b600060405180830381600087803b158015610ca057600080fd5b505af1158015610cb4573d6000803e3d6000fd5b5050505050505050505050565b610a7e806117ef83390190565b8260028101928215610cfd579160200282015b82811115610cfc578251825591602001919060010190610ce1565b5b509050610d0a9190610d0e565b5090565b5b80821115610d27576000816000905550600101610d0f565b5090565b6000604051905090565b600080fd5b600080fd5b600073ffffffffffffffffffffffffffffffffffffffff82169050919050565b6000610d6a82610d3f565b9050919050565b610d7a81610d5f565b8114610d8557600080fd5b50565b600081359050610d9781610d71565b92915050565b60008115159050919050565b610db281610d9d565b8114610dbd57600080fd5b50565b600081359050610dcf81610da9565b92915050565b60008060408385031215610dec57610deb610d35565b5b6000610dfa85828601610d88565b9250506020610e0b85828601610dc0565b9150509250929050565b6000819050919050565b610e2881610e15565b8114610e3357600080fd5b50565b600081359050610e4581610e1f565b92915050565b600080600060608486031215610e6457610e63610d35565b5b6000610e7286828701610e36565b9350506020610e8386828701610e36565b9250506040610e9486828701610e36565b9150509250925092565b600080fd5b6000601f19601f8301169050919050565b7f4e487b7100000000000000000000000000000000000000000000000000000000600052604160045260246000fd5b610eec82610ea3565b810181811067ffffffffffffffff82111715610f0b57610f0a610eb4565b5b80604052505050565b6000610f1e610d2b565b9050610f2a8282610ee3565b919050565b600067ffffffffffffffff821115610f4a57610f49610eb4565b5b602082029050602081019050919050565b600080fd5b6000610f73610f6e84610f2f565b610f14565b90508083825260208201905060208402830185811115610f9657610f95610f5b565b5b835b81811015610fbf5780610fab8882610e36565b845260208401935050602081019050610f98565b5050509392505050565b600082601f830112610fde57610fdd610e9e565b5b8135610fee848260208601610f60565b91505092915050565b6000806040838503121561100e5761100d610d35565b5b600083013567ffffffffffffffff81111561102c5761102b610d3a565b5b61103885828601610fc9565b925050602083013567ffffffffffffffff81111561105957611058610d3a565b5b61106585828601610fc9565b9150509250929050565b61107881610d5f565b82525050565b6000602082019050611093600083018461106f565b92915050565b6000602082840312156110af576110ae610d35565b5b60006110bd84828501610e36565b91505092915050565b600080604083850312156110dd576110dc610d35565b5b60006110eb85828601610e36565b92505060206110fc85828601610d88565b9150509250929050565b600067ffffffffffffffff82111561112157611120610eb4565b5b602082029050919050565b600061113f61113a84611106565b610f14565b9050806020840283018581111561115957611158610f5b565b5b835b81811015611182578061116e8882610e36565b84526020840193505060208101905061115b565b5050509392505050565b600082601f8301126111a1576111a0610e9e565b5b60026111ae84828561112c565b91505092915050565b600080606083850312156111ce576111cd610d35565b5b60006111dc85828601610e36565b92505060206111ed8582860161118c565b9150509250929050565b600082825260208201905092915050565b7f796f752063616e74206368616e67652061737375207374617475730000000000600082015250565b600061123e601b836111f7565b915061124982611208565b602082019050919050565b6000602082019050818103600083015261126d81611231565b9050919050565b7f796f75277265206e6f7420612070726f00000000000000000000000000000000600082015250565b60006112aa6010836111f7565b91506112b582611274565b602082019050919050565b600060208201905081810360008301526112d98161129d565b9050919050565b7f4e487b7100000000000000000000000000000000000000000000000000000000600052603260045260246000fd5b7f4e487b7100000000000000000000000000000000000000000000000000000000600052601160045260246000fd5b600061134982610e15565b915061135483610e15565b925082820390508181111561136c5761136b61130f565b5b92915050565b60008160601b9050919050565b600061138a82611372565b9050919050565b600061139c8261137f565b9050919050565b6113b46113af82610d5f565b611391565b82525050565b60006113c682856113a3565b6014820191506113d682846113a3565b6014820191508190509392505050565b600081519050919050565b600082825260208201905092915050565b6000819050602082019050919050565b61141b81610e15565b82525050565b600061142d8383611412565b60208301905092915050565b6000602082019050919050565b6000611451826113e6565b61145b81856113f1565b935061146683611402565b8060005b8381101561149757815161147e8882611421565b975061148983611439565b92505060018101905061146a565b5085935050505092915050565b600060608201905081810360008301526114be8186611446565b905081810360208301526114d28185611446565b90506114e1604083018461106f565b949350505050565b7f796f752063616e74206368616e67652070726f20737461747573000000000000600082015250565b600061151f601a836111f7565b915061152a826114e9565b602082019050919050565b6000602082019050818103600083015261154e81611512565b9050919050565b61155e81610e15565b82525050565b60006020820190506115796000830184611555565b92915050565b60008151905061158e81610d71565b92915050565b6000602082840312156115aa576115a9610d35565b5b60006115b88482850161157f565b91505092915050565b60006040820190506115d6600083018561106f565b6115e36020830184611555565b9392505050565b60006115f582610e15565b915061160083610e15565b925082820261160e81610e15565b915082820484148315176116255761162461130f565b5b5092915050565b7f4e487b7100000000000000000000000000000000000000000000000000000000600052601260045260246000fd5b600061166682610e15565b915061167183610e15565b9250826116815761168061162c565b5b828204905092915050565b600081905092915050565b50565b60006116a760008361168c565b91506116b282611697565b600082019050919050565b60006116c88261169a565b9150819050919050565b7f7265696d62757273656d656e7420696d706f737369626c652c2063616c6c207460008201527f6865207365637500000000000000000000000000000000000000000000000000602082015250565b600061172e6027836111f7565b9150611739826116d2565b604082019050919050565b6000602082019050818103600083015261175d81611721565b9050919050565b60006040820190506117796000830185611555565b6117866020830184611555565b9392505050565b600060c0820190506117a26000830189611555565b6117af6020830188611555565b6117bc6040830187611555565b6117c96060830186611555565b6117d66080830185611555565b6117e360a083018461106f565b97965050505050505056fe608060405234801561001057600080fd5b50610a5e806100206000396000f3fe608060405234801561001057600080fd5b50600436106100575760003560e01c806317b151371461005c5780631859fe4b1461007857806379d95abc146100a857806385cd8791146100c4578063f7c58b8e146100e2575b600080fd5b61007660048036038101906100719190610453565b610100565b005b610092600480360381019061008d9190610493565b6101e5565b60405161009f9190610509565b60405180910390f35b6100c260048036038101906100bd91906106db565b6102da565b005b6100cc6103fd565b6040516100d99190610509565b60405180910390f35b6100ea610403565b6040516100f79190610509565b60405180910390f35b600460019054906101000a900473ffffffffffffffffffffffffffffffffffffffff1673ffffffffffffffffffffffffffffffffffffffff163373ffffffffffffffffffffffffffffffffffffffff1614610190576040517f08c379a0000000000000000000000000000000000000000000000000000000008152600401610187906107c3565b60405180910390fd5b8060056000848152602001908152602001600020819055507f171307605df6b02719e2dbe451c9aea99d9b1bb4e98be627d5b34deca8db26ad42836040516101d99291906107e3565b60405180910390a15050565b6000600460019054906101000a900473ffffffffffffffffffffffffffffffffffffffff1673ffffffffffffffffffffffffffffffffffffffff163373ffffffffffffffffffffffffffffffffffffffff1614610277576040517f08c379a000000000000000000000000000000000000000000000000000000000815260040161026e906107c3565b60405180910390fd5b6000606460056000858152602001908152602001600020548661029a919061083b565b6102a491906108ac565b90508584826102b391906108dd565b10156102c257809150506102d2565b83866102ce9190610911565b9150505b949350505050565b60001515600460009054906101000a900460ff16151514610330576040517f08c379a000000000000000000000000000000000000000000000000000000000815260040161032790610991565b60405180910390fd5b6001600460006101000a81548160ff02191690831515021790555060005b83518110156103b65782818151811061036a576103696109b1565b5b602002602001015160056000868481518110610389576103886109b1565b5b602002602001015181526020019081526020016000208190555080806103ae906109e0565b91505061034e565b5080600460016101000a81548173ffffffffffffffffffffffffffffffffffffffff021916908373ffffffffffffffffffffffffffffffffffffffff160217905550505050565b60035481565b60025481565b6000604051905090565b600080fd5b600080fd5b6000819050919050565b6104308161041d565b811461043b57600080fd5b50565b60008135905061044d81610427565b92915050565b6000806040838503121561046a57610469610413565b5b60006104788582860161043e565b92505060206104898582860161043e565b9150509250929050565b600080600080608085870312156104ad576104ac610413565b5b60006104bb8782880161043e565b94505060206104cc8782880161043e565b93505060406104dd8782880161043e565b92505060606104ee8782880161043e565b91505092959194509250565b6105038161041d565b82525050565b600060208201905061051e60008301846104fa565b92915050565b600080fd5b6000601f19601f8301169050919050565b7f4e487b7100000000000000000000000000000000000000000000000000000000600052604160045260246000fd5b61057282610529565b810181811067ffffffffffffffff821117156105915761059061053a565b5b80604052505050565b60006105a4610409565b90506105b08282610569565b919050565b600067ffffffffffffffff8211156105d0576105cf61053a565b5b602082029050602081019050919050565b600080fd5b60006105f96105f4846105b5565b61059a565b9050808382526020820190506020840283018581111561061c5761061b6105e1565b5b835b818110156106455780610631888261043e565b84526020840193505060208101905061061e565b5050509392505050565b600082601f83011261066457610663610524565b5b81356106748482602086016105e6565b91505092915050565b600073ffffffffffffffffffffffffffffffffffffffff82169050919050565b60006106a88261067d565b9050919050565b6106b88161069d565b81146106c357600080fd5b50565b6000813590506106d5816106af565b92915050565b6000806000606084860312156106f4576106f3610413565b5b600084013567ffffffffffffffff81111561071257610711610418565b5b61071e8682870161064f565b935050602084013567ffffffffffffffff81111561073f5761073e610418565b5b61074b8682870161064f565b925050604061075c868287016106c6565b9150509250925092565b600082825260208201905092915050565b7f6f6e6c7920496e737572616e63652063616e20646f2074686973000000000000600082015250565b60006107ad601a83610766565b91506107b882610777565b602082019050919050565b600060208201905081810360008301526107dc816107a0565b9050919050565b60006040820190506107f860008301856104fa565b61080560208301846104fa565b9392505050565b7f4e487b7100000000000000000000000000000000000000000000000000000000600052601160045260246000fd5b60006108468261041d565b91506108518361041d565b925082820261085f8161041d565b915082820484148315176108765761087561080c565b5b5092915050565b7f4e487b7100000000000000000000000000000000000000000000000000000000600052601260045260246000fd5b60006108b78261041d565b91506108c28361041d565b9250826108d2576108d161087d565b5b828204905092915050565b60006108e88261041d565b91506108f38361041d565b925082820190508082111561090b5761090a61080c565b5b92915050565b600061091c8261041d565b91506109278361041d565b925082820390508181111561093f5761093e61080c565b5b92915050565b7f616c726561647920696e697469616c6973656400000000000000000000000000600082015250565b600061097b601383610766565b915061098682610945565b602082019050919050565b600060208201905081810360008301526109aa8161096e565b9050919050565b7f4e487b7100000000000000000000000000000000000000000000000000000000600052603260045260246000fd5b60006109eb8261041d565b91507fffffffffffffffffffffffffffffffffffffffffffffffffffffffffffffffff8203610a1d57610a1c61080c565b5b60018201905091905056fea264697066735822122014ee5c72cd1ab72e21f874941bc5017e7e0439a6642b8edcf48f3d1471b474f464736f6c63430008110033a26469706673582212200b18af3ab91cc0152a6009f38256ae7a40d8c6fded8cb8202f793f2e3bcba02d64736f6c63430008110033",
  "immutableReferences": {},
  "source": "// SPDX-License-Identifier: UNLICENSED\npragma solidity 0.8.17;\n\nimport \"./Policy.sol\";\nimport \"./Assu.sol\";\n\ncontract Secu {\n\n    address SECU_ADDRESS;\n\n    mapping (uint => address) insuranceCompanyForUSer; // with secu code of a user, we can find the address of the insurance company\n    mapping (address => bool) isPro; // check if address is of a professionnal\n    mapping (address => bool) insuranceCompany; // check if address is one of assu smart contract\n    mapping (uint => uint[2]) PoliciesBySecu; // 2 index : base de remboursement et pourcentage de base\n\n\n    event reimbursedSecu(uint SecuCode, uint value);\n    event PolicyCreated(address indexed _policyCreated, address indexed _insuranceCompany);\n\n    constructor()  {\n        SECU_ADDRESS=msg.sender;\n    }\n\n// admin stuff\n\n    function updatePro(address _proAddress, bool _isPro) public {\n        require(msg.sender==SECU_ADDRESS, \"you cant change pro status\");\n        isPro[_proAddress]=_isPro;\n    }\n\n    function updateAssureur(address _assuAddress, bool _isAssu) public {\n        require(msg.sender==SECU_ADDRESS, \"you cant change assu status\");\n        insuranceCompany[_assuAddress]=_isAssu;\n    }\n\n    function updateUser(uint _clientsCode, address _newCompany) public {\n        require(msg.sender == SECU_ADDRESS || insuranceCompany[msg.sender]==true );\n        insuranceCompanyForUSer[_clientsCode]=_newCompany;\n    }\n\n    function removeInsured(uint _secuCode) public {\n        require(msg.sender == SECU_ADDRESS || insuranceCompany[msg.sender]==true );\n        address oldAssuCompany=insuranceCompanyForUSer[_secuCode];\n        if(oldAssuCompany != address(0)){\n            address oldPolicy = Assu(oldAssuCompany).getPolicy(_secuCode);\n            Assu(oldAssuCompany).removeInsured(oldPolicy, _secuCode);\n        }\n    }\n\n    function modifySecuPolicies (uint _actNumber, uint[2] memory _policies)  public {\n        require(SECU_ADDRESS==msg.sender);\n        PoliciesBySecu[_actNumber] = _policies;\n    }\n\n// reimburse stuff\n\n    function reimburseUser(uint _price, uint _actNumber, uint _clientsCode) public {\n        require(isPro[msg.sender]==true, \"you're not a pro\");\n        uint value= reimburseBySecu( _price, _actNumber, _clientsCode, msg.sender);\n        if(insuranceCompanyForUSer[_clientsCode]!=address(0) && _price > value ){\n            reimburseByMutuelle( _price, PoliciesBySecu[_actNumber][0]-value, value, _actNumber, _clientsCode, msg.sender);\n        }\n    }\n\n    function reimburseBySecu(uint _price, uint _actNumber, uint _secuCode, address _proAddress) private returns(uint){\n        uint value = (PoliciesBySecu[_actNumber][0]*PoliciesBySecu[_actNumber][1])/100;\n        if(_price < value){\n            value = _price;\n        }\n        (bool success, )= _proAddress.call{value: value}(\"\");\n        require (success, \"reimbursement impossible, call the secu\");\n        emit reimbursedSecu(_secuCode, value);\n        return value;\n    } \n\n    function gettruc(uint _secuCode)public view returns(address){\n        return insuranceCompanyForUSer[_secuCode];\n    }\n\n    function reimburseByMutuelle(uint _price, uint _BRMR, uint _reimburseSecu, uint _actNumber, uint _secuCode, address _proAddress) private {\n        address insuranceCompanyUser = insuranceCompanyForUSer[_secuCode];\n        Assu(insuranceCompanyUser).reimburseInsured( _price, _BRMR, _reimburseSecu, _actNumber, _secuCode, _proAddress);\n    }\n\n    function addSecuTreasury() public payable{\n    }\n\n// factory callable by insurance company\n\n    function createPolicy(uint[] memory _actNumber, uint[] memory _policies) external returns (address) {\n        require (insuranceCompany[msg.sender]==true);\n        address policy;\n\n        bytes memory bytecode = type(Policy).creationCode;\n        bytes32 salt = keccak256(abi.encodePacked(msg.sender, address(this)));\n        assembly {\n            policy := create2(0, add(bytecode, 32), mload(bytecode), salt)\n        }\n        Policy(policy).initialyse(_actNumber, _policies, msg.sender);\n\n        /* remove client to old contracts and link to new insurance company, useless with assu\n        for(uint i; i<_clients.length;i++){\n            removeInsured(_clients[i]);\n            insuranceCompanyForUSer[_clients[i]]= policy;\n        } */\n\n        emit PolicyCreated(policy, msg.sender);\n        return policy;\n    }\n\n\n}",
  "sourcePath": "/home/cyril/dev/eth/assuThomas/contracts/Secu.sol",
  "compiler": {
    "name": "solc",
    "version": "0.8.17+commit.8df45f5f.Emscripten.clang"
  },
  "schemaVersion": "3.4.10",
  "updatedAt": "2023-06-24T23:44:33.322Z",
  "networkType": "ethereum",
  "devdoc": {
    "kind": "dev",
    "methods": {},
    "version": 1
  },
  "userdoc": {
    "kind": "user",
    "methods": {},
    "version": 1
  }
}