{
  "contractName": "Secu",
  "abi": [
    {
      "inputs": [],
      "stateMutability": "nonpayable",
      "type": "constructor"
    },
    {
      "anonymous": false,
      "inputs": [
        {
          "indexed": true,
          "internalType": "address",
          "name": "_policyCreated",
          "type": "address"
        },
        {
          "indexed": true,
          "internalType": "address",
          "name": "_insuranceCompany",
          "type": "address"
        }
      ],
      "name": "PolicyCreated",
      "type": "event"
    },
    {
      "anonymous": false,
      "inputs": [
        {
          "indexed": false,
          "internalType": "uint256",
          "name": "SecuCode",
          "type": "uint256"
        },
        {
          "indexed": false,
          "internalType": "uint256",
          "name": "value",
          "type": "uint256"
        }
      ],
      "name": "reimbursedSecu",
      "type": "event"
    },
    {
      "inputs": [
        {
          "internalType": "address",
          "name": "_proAddress",
          "type": "address"
        },
        {
          "internalType": "bool",
          "name": "_isPro",
          "type": "bool"
        }
      ],
      "name": "updatePro",
      "outputs": [],
      "stateMutability": "nonpayable",
      "type": "function"
    },
    {
      "inputs": [
        {
          "internalType": "address",
          "name": "_assuAddress",
          "type": "address"
        },
        {
          "internalType": "bool",
          "name": "_isAssu",
          "type": "bool"
        }
      ],
      "name": "updateAssureur",
      "outputs": [],
      "stateMutability": "nonpayable",
      "type": "function"
    },
    {
      "inputs": [
        {
          "internalType": "uint256",
          "name": "_clientsCode",
          "type": "uint256"
        },
        {
          "internalType": "address",
          "name": "_newCompany",
          "type": "address"
        }
      ],
      "name": "updateUser",
      "outputs": [],
      "stateMutability": "nonpayable",
      "type": "function"
    },
    {
      "inputs": [
        {
          "internalType": "uint256",
          "name": "_secuCode",
          "type": "uint256"
        }
      ],
      "name": "removeInsured",
      "outputs": [],
      "stateMutability": "nonpayable",
      "type": "function"
    },
    {
      "inputs": [
        {
          "internalType": "uint256",
          "name": "_actNumber",
          "type": "uint256"
        },
        {
          "internalType": "uint256[2]",
          "name": "_policies",
          "type": "uint256[2]"
        }
      ],
      "name": "modifySecuPolicies",
      "outputs": [],
      "stateMutability": "nonpayable",
      "type": "function"
    },
    {
      "inputs": [
        {
          "internalType": "uint256",
          "name": "_price",
          "type": "uint256"
        },
        {
          "internalType": "uint256",
          "name": "_actNumber",
          "type": "uint256"
        },
        {
          "internalType": "uint256",
          "name": "_clientsCode",
          "type": "uint256"
        }
      ],
      "name": "reimburseUser",
      "outputs": [],
      "stateMutability": "nonpayable",
      "type": "function"
    },
    {
      "inputs": [],
      "name": "addSecuTreasury",
      "outputs": [],
      "stateMutability": "payable",
      "type": "function",
      "payable": true
    },
    {
      "inputs": [
        {
          "internalType": "uint256[]",
          "name": "_actNumber",
          "type": "uint256[]"
        },
        {
          "internalType": "uint256[]",
          "name": "_policies",
          "type": "uint256[]"
        }
      ],
      "name": "createPolicy",
      "outputs": [
        {
          "internalType": "address",
          "name": "",
          "type": "address"
        }
      ],
      "stateMutability": "nonpayable",
      "type": "function"
    }
  ],
  "bytecode": "0x608060405234801561001057600080fd5b50336000806101000a81548173ffffffffffffffffffffffffffffffffffffffff021916908373ffffffffffffffffffffffffffffffffffffffff16021790555061217b806100606000396000f3fe60806040526004361061007b5760003560e01c80638fb4e1cd1161004e5780638fb4e1cd14610138578063aff47d5314610161578063c590e49f1461018a578063e0794a6e146101945761007b565b80634e09af161461008057806366f3fc5b146100a95780637282604f146100d25780638b3a21331461010f575b600080fd5b34801561008c57600080fd5b506100a760048036038101906100a29190610d50565b6101bd565b005b3480156100b557600080fd5b506100d060048036038101906100cb9190610dc6565b6102a6565b005b3480156100de57600080fd5b506100f960048036038101906100f49190610f72565b610410565b6040516101069190610ff9565b60405180910390f35b34801561011b57600080fd5b5061013660048036038101906101319190610d50565b6105a6565b005b34801561014457600080fd5b5061015f600480360381019061015a9190611014565b61068f565b005b34801561016d57600080fd5b5061018860048036038101906101839190611105565b610798565b005b610192610817565b005b3480156101a057600080fd5b506101bb60048036038101906101b69190611145565b610819565b005b60008054906101000a900473ffffffffffffffffffffffffffffffffffffffff1673ffffffffffffffffffffffffffffffffffffffff163373ffffffffffffffffffffffffffffffffffffffff161461024b576040517f08c379a0000000000000000000000000000000000000000000000000000000008152600401610242906111cf565b60405180910390fd5b80600360008473ffffffffffffffffffffffffffffffffffffffff1673ffffffffffffffffffffffffffffffffffffffff16815260200190815260200160002060006101000a81548160ff0219169083151502179055505050565b60011515600260003373ffffffffffffffffffffffffffffffffffffffff1673ffffffffffffffffffffffffffffffffffffffff16815260200190815260200160002060009054906101000a900460ff16151514610339576040517f08c379a00000000000000000000000000000000000000000000000000000000081526004016103309061123b565b60405180910390fd5b600061034784848433610a29565b9050600073ffffffffffffffffffffffffffffffffffffffff166001600084815260200190815260200160002060009054906101000a900473ffffffffffffffffffffffffffffffffffffffff1673ffffffffffffffffffffffffffffffffffffffff16141580156103c45750600081856103c2919061128a565b115b1561040a576104098482600460008781526020019081526020016000206000600281106103f4576103f36112be565b5b0154610400919061128a565b83868633610b86565b5b50505050565b600060011515600360003373ffffffffffffffffffffffffffffffffffffffff1673ffffffffffffffffffffffffffffffffffffffff16815260200190815260200160002060009054906101000a900460ff1615151461046f57600080fd5b6000806040518060200161048290610c3c565b6020820181038252601f19601f820116604052509050600033306040516020016104ad929190611335565b604051602081830303815290604052805190602001209050808251602084016000f592508273ffffffffffffffffffffffffffffffffffffffff166379d95abc8787336040518463ffffffff1660e01b815260040161050e9392919061141f565b600060405180830381600087803b15801561052857600080fd5b505af115801561053c573d6000803e3d6000fd5b505050503373ffffffffffffffffffffffffffffffffffffffff168373ffffffffffffffffffffffffffffffffffffffff167f1a91c57e390e2b215ad4f17c283f3f4e2d8a1f2f6f16986800d7699df1a7605a60405160405180910390a382935050505092915050565b60008054906101000a900473ffffffffffffffffffffffffffffffffffffffff1673ffffffffffffffffffffffffffffffffffffffff163373ffffffffffffffffffffffffffffffffffffffff1614610634576040517f08c379a000000000000000000000000000000000000000000000000000000000815260040161062b906114b0565b60405180910390fd5b80600260008473ffffffffffffffffffffffffffffffffffffffff1673ffffffffffffffffffffffffffffffffffffffff16815260200190815260200160002060006101000a81548160ff0219169083151502179055505050565b60008054906101000a900473ffffffffffffffffffffffffffffffffffffffff1673ffffffffffffffffffffffffffffffffffffffff163373ffffffffffffffffffffffffffffffffffffffff161480610739575060011515600360003373ffffffffffffffffffffffffffffffffffffffff1673ffffffffffffffffffffffffffffffffffffffff16815260200190815260200160002060009054906101000a900460ff161515145b61074257600080fd5b806001600084815260200190815260200160002060006101000a81548173ffffffffffffffffffffffffffffffffffffffff021916908373ffffffffffffffffffffffffffffffffffffffff1602179055505050565b3373ffffffffffffffffffffffffffffffffffffffff1660008054906101000a900473ffffffffffffffffffffffffffffffffffffffff1673ffffffffffffffffffffffffffffffffffffffff16146107f057600080fd5b8060046000848152602001908152602001600020906002610812929190610c49565b505050565b565b60008054906101000a900473ffffffffffffffffffffffffffffffffffffffff1673ffffffffffffffffffffffffffffffffffffffff163373ffffffffffffffffffffffffffffffffffffffff1614806108c3575060011515600360003373ffffffffffffffffffffffffffffffffffffffff1673ffffffffffffffffffffffffffffffffffffffff16815260200190815260200160002060009054906101000a900460ff161515145b6108cc57600080fd5b60006001600083815260200190815260200160002060009054906101000a900473ffffffffffffffffffffffffffffffffffffffff169050600073ffffffffffffffffffffffffffffffffffffffff168173ffffffffffffffffffffffffffffffffffffffff1614610a255760008173ffffffffffffffffffffffffffffffffffffffff16632b07fce3846040518263ffffffff1660e01b815260040161097391906114df565b602060405180830381865afa158015610990573d6000803e3d6000fd5b505050506040513d601f19601f820116820180604052508101906109b4919061150f565b90508173ffffffffffffffffffffffffffffffffffffffff166352c103ff82856040518363ffffffff1660e01b81526004016109f192919061153c565b600060405180830381600087803b158015610a0b57600080fd5b505af1158015610a1f573d6000803e3d6000fd5b50505050505b5050565b60008060046000868152602001908152602001600020600160028110610a5257610a516112be565b5b015460046000878152602001908152602001600020600060028110610a7a57610a796112be565b5b0154610a869190611565565b905080861015610a94578590505b60008373ffffffffffffffffffffffffffffffffffffffff1682604051610aba906115d8565b60006040518083038185875af1925050503d8060008114610af7576040519150601f19603f3d011682016040523d82523d6000602084013e610afc565b606091505b5050905080610b40576040517f08c379a0000000000000000000000000000000000000000000000000000000008152600401610b379061165f565b60405180910390fd5b7fd06b8f1e60095dcb2239368aa956d9fcccb96df8090a7df7b45107c8578353c68583604051610b7192919061167f565b60405180910390a18192505050949350505050565b60006001600084815260200190815260200160002060009054906101000a900473ffffffffffffffffffffffffffffffffffffffff1690508073ffffffffffffffffffffffffffffffffffffffff1663d0fb6fd28888888888886040518763ffffffff1660e01b8152600401610c01969594939291906116a8565b600060405180830381600087803b158015610c1b57600080fd5b505af1158015610c2f573d6000803e3d6000fd5b5050505050505050505050565b610a3c8061170a83390190565b8260028101928215610c78579160200282015b82811115610c77578251825591602001919060010190610c5c565b5b509050610c859190610c89565b5090565b5b80821115610ca2576000816000905550600101610c8a565b5090565b6000604051905090565b600080fd5b600080fd5b600073ffffffffffffffffffffffffffffffffffffffff82169050919050565b6000610ce582610cba565b9050919050565b610cf581610cda565b8114610d0057600080fd5b50565b600081359050610d1281610cec565b92915050565b60008115159050919050565b610d2d81610d18565b8114610d3857600080fd5b50565b600081359050610d4a81610d24565b92915050565b60008060408385031215610d6757610d66610cb0565b5b6000610d7585828601610d03565b9250506020610d8685828601610d3b565b9150509250929050565b6000819050919050565b610da381610d90565b8114610dae57600080fd5b50565b600081359050610dc081610d9a565b92915050565b600080600060608486031215610ddf57610dde610cb0565b5b6000610ded86828701610db1565b9350506020610dfe86828701610db1565b9250506040610e0f86828701610db1565b9150509250925092565b600080fd5b6000601f19601f8301169050919050565b7f4e487b7100000000000000000000000000000000000000000000000000000000600052604160045260246000fd5b610e6782610e1e565b810181811067ffffffffffffffff82111715610e8657610e85610e2f565b5b80604052505050565b6000610e99610ca6565b9050610ea58282610e5e565b919050565b600067ffffffffffffffff821115610ec557610ec4610e2f565b5b602082029050602081019050919050565b600080fd5b6000610eee610ee984610eaa565b610e8f565b90508083825260208201905060208402830185811115610f1157610f10610ed6565b5b835b81811015610f3a5780610f268882610db1565b845260208401935050602081019050610f13565b5050509392505050565b600082601f830112610f5957610f58610e19565b5b8135610f69848260208601610edb565b91505092915050565b60008060408385031215610f8957610f88610cb0565b5b600083013567ffffffffffffffff811115610fa757610fa6610cb5565b5b610fb385828601610f44565b925050602083013567ffffffffffffffff811115610fd457610fd3610cb5565b5b610fe085828601610f44565b9150509250929050565b610ff381610cda565b82525050565b600060208201905061100e6000830184610fea565b92915050565b6000806040838503121561102b5761102a610cb0565b5b600061103985828601610db1565b925050602061104a85828601610d03565b9150509250929050565b600067ffffffffffffffff82111561106f5761106e610e2f565b5b602082029050919050565b600061108d61108884611054565b610e8f565b905080602084028301858111156110a7576110a6610ed6565b5b835b818110156110d057806110bc8882610db1565b8452602084019350506020810190506110a9565b5050509392505050565b600082601f8301126110ef576110ee610e19565b5b60026110fc84828561107a565b91505092915050565b6000806060838503121561111c5761111b610cb0565b5b600061112a85828601610db1565b925050602061113b858286016110da565b9150509250929050565b60006020828403121561115b5761115a610cb0565b5b600061116984828501610db1565b91505092915050565b600082825260208201905092915050565b7f796f752063616e74206368616e67652061737375207374617475730000000000600082015250565b60006111b9601b83611172565b91506111c482611183565b602082019050919050565b600060208201905081810360008301526111e8816111ac565b9050919050565b7f796f75277265206e6f7420612070726f00000000000000000000000000000000600082015250565b6000611225601083611172565b9150611230826111ef565b602082019050919050565b6000602082019050818103600083015261125481611218565b9050919050565b7f4e487b7100000000000000000000000000000000000000000000000000000000600052601160045260246000fd5b600061129582610d90565b91506112a083610d90565b92508282039050818111156112b8576112b761125b565b5b92915050565b7f4e487b7100000000000000000000000000000000000000000000000000000000600052603260045260246000fd5b60008160601b9050919050565b6000611305826112ed565b9050919050565b6000611317826112fa565b9050919050565b61132f61132a82610cda565b61130c565b82525050565b6000611341828561131e565b601482019150611351828461131e565b6014820191508190509392505050565b600081519050919050565b600082825260208201905092915050565b6000819050602082019050919050565b61139681610d90565b82525050565b60006113a8838361138d565b60208301905092915050565b6000602082019050919050565b60006113cc82611361565b6113d6818561136c565b93506113e18361137d565b8060005b838110156114125781516113f9888261139c565b9750611404836113b4565b9250506001810190506113e5565b5085935050505092915050565b6000606082019050818103600083015261143981866113c1565b9050818103602083015261144d81856113c1565b905061145c6040830184610fea565b949350505050565b7f796f752063616e74206368616e67652070726f20737461747573000000000000600082015250565b600061149a601a83611172565b91506114a582611464565b602082019050919050565b600060208201905081810360008301526114c98161148d565b9050919050565b6114d981610d90565b82525050565b60006020820190506114f460008301846114d0565b92915050565b60008151905061150981610cec565b92915050565b60006020828403121561152557611524610cb0565b5b6000611533848285016114fa565b91505092915050565b60006040820190506115516000830185610fea565b61155e60208301846114d0565b9392505050565b600061157082610d90565b915061157b83610d90565b925082820261158981610d90565b915082820484148315176115a05761159f61125b565b5b5092915050565b600081905092915050565b50565b60006115c26000836115a7565b91506115cd826115b2565b600082019050919050565b60006115e3826115b5565b9150819050919050565b7f7265696d62757273656d656e7420696d706f737369626c652c2063616c6c207460008201527f6865207365637500000000000000000000000000000000000000000000000000602082015250565b6000611649602783611172565b9150611654826115ed565b604082019050919050565b600060208201905081810360008301526116788161163c565b9050919050565b600060408201905061169460008301856114d0565b6116a160208301846114d0565b9392505050565b600060c0820190506116bd60008301896114d0565b6116ca60208301886114d0565b6116d760408301876114d0565b6116e460608301866114d0565b6116f160808301856114d0565b6116fe60a0830184610fea565b97965050505050505056fe608060405234801561001057600080fd5b50610a1c806100206000396000f3fe608060405234801561001057600080fd5b50600436106100575760003560e01c806317b151371461005c5780631859fe4b1461007857806379d95abc146100a857806385cd8791146100c4578063f7c58b8e146100e2575b600080fd5b61007660048036038101906100719190610405565b610100565b005b610092600480360381019061008d9190610445565b6101e5565b60405161009f91906104bb565b60405180910390f35b6100c260048036038101906100bd919061068d565b61028c565b005b6100cc6103af565b6040516100d991906104bb565b60405180910390f35b6100ea6103b5565b6040516100f791906104bb565b60405180910390f35b600460019054906101000a900473ffffffffffffffffffffffffffffffffffffffff1673ffffffffffffffffffffffffffffffffffffffff163373ffffffffffffffffffffffffffffffffffffffff1614610190576040517f08c379a000000000000000000000000000000000000000000000000000000000815260040161018790610775565b60405180910390fd5b8060056000848152602001908152602001600020819055507f171307605df6b02719e2dbe451c9aea99d9b1bb4e98be627d5b34deca8db26ad42836040516101d9929190610795565b60405180910390a15050565b6000600254421180156101fa57506003544211155b610239576040517f08c379a00000000000000000000000000000000000000000000000000000000081526004016102309061080a565b60405180910390fd5b600060056000848152602001908152602001600020548561025a9190610859565b9050858482610269919061089b565b1061027f57838661027a91906108cf565b610281565b805b915050949350505050565b60001515600460009054906101000a900460ff161515146102e2576040517f08c379a00000000000000000000000000000000000000000000000000000000081526004016102d99061094f565b60405180910390fd5b6001600460006101000a81548160ff02191690831515021790555060005b83518110156103685782818151811061031c5761031b61096f565b5b60200260200101516005600086848151811061033b5761033a61096f565b5b602002602001015181526020019081526020016000208190555080806103609061099e565b915050610300565b5080600460016101000a81548173ffffffffffffffffffffffffffffffffffffffff021916908373ffffffffffffffffffffffffffffffffffffffff160217905550505050565b60035481565b60025481565b6000604051905090565b600080fd5b600080fd5b6000819050919050565b6103e2816103cf565b81146103ed57600080fd5b50565b6000813590506103ff816103d9565b92915050565b6000806040838503121561041c5761041b6103c5565b5b600061042a858286016103f0565b925050602061043b858286016103f0565b9150509250929050565b6000806000806080858703121561045f5761045e6103c5565b5b600061046d878288016103f0565b945050602061047e878288016103f0565b935050604061048f878288016103f0565b92505060606104a0878288016103f0565b91505092959194509250565b6104b5816103cf565b82525050565b60006020820190506104d060008301846104ac565b92915050565b600080fd5b6000601f19601f8301169050919050565b7f4e487b7100000000000000000000000000000000000000000000000000000000600052604160045260246000fd5b610524826104db565b810181811067ffffffffffffffff82111715610543576105426104ec565b5b80604052505050565b60006105566103bb565b9050610562828261051b565b919050565b600067ffffffffffffffff821115610582576105816104ec565b5b602082029050602081019050919050565b600080fd5b60006105ab6105a684610567565b61054c565b905080838252602082019050602084028301858111156105ce576105cd610593565b5b835b818110156105f757806105e388826103f0565b8452602084019350506020810190506105d0565b5050509392505050565b600082601f830112610616576106156104d6565b5b8135610626848260208601610598565b91505092915050565b600073ffffffffffffffffffffffffffffffffffffffff82169050919050565b600061065a8261062f565b9050919050565b61066a8161064f565b811461067557600080fd5b50565b60008135905061068781610661565b92915050565b6000806000606084860312156106a6576106a56103c5565b5b600084013567ffffffffffffffff8111156106c4576106c36103ca565b5b6106d086828701610601565b935050602084013567ffffffffffffffff8111156106f1576106f06103ca565b5b6106fd86828701610601565b925050604061070e86828701610678565b9150509250925092565b600082825260208201905092915050565b7f6f6e6c7920496e737572616e63652063616e20646f2074686973000000000000600082015250565b600061075f601a83610718565b915061076a82610729565b602082019050919050565b6000602082019050818103600083015261078e81610752565b9050919050565b60006040820190506107aa60008301856104ac565b6107b760208301846104ac565b9392505050565b7f6e6f7420696e2074696d65000000000000000000000000000000000000000000600082015250565b60006107f4600b83610718565b91506107ff826107be565b602082019050919050565b60006020820190508181036000830152610823816107e7565b9050919050565b7f4e487b7100000000000000000000000000000000000000000000000000000000600052601160045260246000fd5b6000610864826103cf565b915061086f836103cf565b925082820261087d816103cf565b915082820484148315176108945761089361082a565b5b5092915050565b60006108a6826103cf565b91506108b1836103cf565b92508282019050808211156108c9576108c861082a565b5b92915050565b60006108da826103cf565b91506108e5836103cf565b92508282039050818111156108fd576108fc61082a565b5b92915050565b7f616c726561647920696e697469616c6973656400000000000000000000000000600082015250565b6000610939601383610718565b915061094482610903565b602082019050919050565b600060208201905081810360008301526109688161092c565b9050919050565b7f4e487b7100000000000000000000000000000000000000000000000000000000600052603260045260246000fd5b60006109a9826103cf565b91507fffffffffffffffffffffffffffffffffffffffffffffffffffffffffffffffff82036109db576109da61082a565b5b60018201905091905056fea2646970667358221220ea4faeda114c943740726558f507bcd6d8d2597591213b3ed55f3f84942407b464736f6c63430008110033a264697066735822122087236ed3ef0e1a18ccc7215f384a3fd4f3d5d91a8ce146db18a36adfa7cbae7d64736f6c63430008110033",
  "immutableReferences": {},
  "source": "// SPDX-License-Identifier: UNLICENSED\npragma solidity 0.8.17;\n\nimport \"./Policy.sol\";\nimport \"./Assu.sol\";\n\n\ncontract Secu {\n\n    address SECU_ADDRESS;\n\n    mapping (uint => address) insuranceCompanyForUSer; // with secu code of a user, we can find the address of the insurance company\n    mapping (address => bool) isPro; // check if address is of a professionnal\n    mapping (address => bool) insuranceCompany; // check if address is one of assu smart contract\n    mapping (uint => uint[2]) PoliciesBySecu; // 2 index : base de remboursement et pourcentage de base\n\n\n    event reimbursedSecu(uint SecuCode, uint value);\n    event PolicyCreated(address indexed _policyCreated, address indexed _insuranceCompany);\n\n    constructor()  {\n        SECU_ADDRESS=msg.sender;\n    }\n\n// admin stuff\n\n    function updatePro(address _proAddress, bool _isPro) public {\n        require(msg.sender==SECU_ADDRESS, \"you cant change pro status\");\n        isPro[_proAddress]=_isPro;\n    }\n\n    function updateAssureur(address _assuAddress, bool _isAssu) public {\n        require(msg.sender==SECU_ADDRESS, \"you cant change assu status\");\n        insuranceCompany[_assuAddress]=_isAssu;\n    }\n\n    function updateUser(uint _clientsCode, address _newCompany) public {\n        require(msg.sender == SECU_ADDRESS || insuranceCompany[msg.sender]==true );\n        insuranceCompanyForUSer[_clientsCode]=_newCompany;\n    }\n\n    function removeInsured(uint _secuCode) public {\n        require(msg.sender == SECU_ADDRESS || insuranceCompany[msg.sender]==true );\n        address oldAssuCompany=insuranceCompanyForUSer[_secuCode];\n        if(oldAssuCompany != address(0)){\n            address oldPolicy = Assu(oldAssuCompany).getPolicy(_secuCode);\n            Assu(oldAssuCompany).removeInsured(oldPolicy, _secuCode);\n        }\n    }\n\n    function modifySecuPolicies (uint _actNumber, uint[2] memory _policies)  public {\n        require(SECU_ADDRESS==msg.sender);\n        PoliciesBySecu[_actNumber] = _policies;\n    }\n\n// reimburse stuff\n\n    function reimburseUser(uint _price, uint _actNumber, uint _clientsCode) public {\n        require(isPro[msg.sender]==true, \"you're not a pro\");\n        uint value= reimburseBySecu( _price, _actNumber, _clientsCode, msg.sender);\n        if(insuranceCompanyForUSer[_clientsCode]!=address(0) && _price-value > 0 ){\n            reimburseByMutuelle( _price, PoliciesBySecu[_actNumber][0]-value, value, _actNumber, _clientsCode, msg.sender);\n        }\n    }\n\n    function reimburseBySecu(uint _price, uint _actNumber, uint _clientsCode, address _proAddress) private returns(uint){\n        uint value = PoliciesBySecu[_actNumber][0]*PoliciesBySecu[_actNumber][1];\n        if(_price < value){\n            value = _price;\n        }\n        (bool success, )= _proAddress.call{value: value}(\"\");\n        require (success, \"reimbursement impossible, call the secu\");\n        emit reimbursedSecu(_clientsCode, value);\n        return value;\n    } \n\n    function reimburseByMutuelle(uint _price, uint _BRMR, uint _reimburseSecu, uint _actNumber, uint _clientsCode, address _proAddress) private{\n        address insuranceCompanyUser = insuranceCompanyForUSer[_clientsCode];\n        Assu(insuranceCompanyUser).reimburseClient( _price, _BRMR, _reimburseSecu, _actNumber, _clientsCode, _proAddress);\n    }\n\n    function addSecuTreasury() public payable{\n    }\n\n// factory callable by insurance company\n\n    function createPolicy(uint[] memory _actNumber, uint[] memory _policies) external returns (address) {\n        require (insuranceCompany[msg.sender]==true);\n        address policy;\n\n        bytes memory bytecode = type(Policy).creationCode;\n        bytes32 salt = keccak256(abi.encodePacked(msg.sender, address(this)));\n        assembly {\n            policy := create2(0, add(bytecode, 32), mload(bytecode), salt)\n        }\n        Policy(policy).initialyse(_actNumber, _policies, msg.sender);\n\n        /* remove client to old contracts and link to new insurance company, useless with assu\n        for(uint i; i<_clients.length;i++){\n            removeInsured(_clients[i]);\n            insuranceCompanyForUSer[_clients[i]]= policy;\n        } */\n\n        emit PolicyCreated(policy, msg.sender);\n        return policy;\n    }\n\n\n}",
  "sourcePath": "/home/cyril/dev/eth/assuThomas/contracts/Secu.sol",
  "compiler": {
    "name": "solc",
    "version": "0.8.17+commit.8df45f5f.Emscripten.clang"
  },
  "schemaVersion": "3.4.10",
  "updatedAt": "2023-06-24T22:08:00.296Z",
  "networkType": "ethereum",
  "devdoc": {
    "kind": "dev",
    "methods": {},
    "version": 1
  },
  "userdoc": {
    "kind": "user",
    "methods": {},
    "version": 1
  }
}