{
  "contractName": "Secu",
  "abi": [
    {
      "inputs": [],
      "stateMutability": "nonpayable",
      "type": "constructor"
    },
    {
      "anonymous": false,
      "inputs": [
        {
          "indexed": true,
          "internalType": "address",
          "name": "_policyCreated",
          "type": "address"
        },
        {
          "indexed": true,
          "internalType": "address",
          "name": "_insuranceCompany",
          "type": "address"
        }
      ],
      "name": "PolicyCreated",
      "type": "event"
    },
    {
      "anonymous": false,
      "inputs": [
        {
          "indexed": false,
          "internalType": "uint256",
          "name": "SecuCode",
          "type": "uint256"
        },
        {
          "indexed": false,
          "internalType": "uint256",
          "name": "value",
          "type": "uint256"
        }
      ],
      "name": "reimbursedSecu",
      "type": "event"
    },
    {
      "inputs": [
        {
          "internalType": "uint256[]",
          "name": "_actNumber",
          "type": "uint256[]"
        },
        {
          "internalType": "uint256[]",
          "name": "_policies",
          "type": "uint256[]"
        },
        {
          "internalType": "uint256[]",
          "name": "_clients",
          "type": "uint256[]"
        }
      ],
      "name": "createPolicy",
      "outputs": [
        {
          "internalType": "address",
          "name": "",
          "type": "address"
        }
      ],
      "stateMutability": "nonpayable",
      "type": "function"
    },
    {
      "inputs": [
        {
          "internalType": "address",
          "name": "_proAddress",
          "type": "address"
        },
        {
          "internalType": "bool",
          "name": "_isPro",
          "type": "bool"
        }
      ],
      "name": "updatePro",
      "outputs": [],
      "stateMutability": "nonpayable",
      "type": "function"
    },
    {
      "inputs": [
        {
          "internalType": "address",
          "name": "_assuAddress",
          "type": "address"
        },
        {
          "internalType": "bool",
          "name": "_isAssu",
          "type": "bool"
        }
      ],
      "name": "updateAssureur",
      "outputs": [],
      "stateMutability": "nonpayable",
      "type": "function"
    },
    {
      "inputs": [
        {
          "internalType": "uint256",
          "name": "_clientsCode",
          "type": "uint256"
        },
        {
          "internalType": "address",
          "name": "_oldInsurance",
          "type": "address"
        }
      ],
      "name": "updateUser",
      "outputs": [],
      "stateMutability": "nonpayable",
      "type": "function"
    },
    {
      "inputs": [
        {
          "internalType": "uint256",
          "name": "_price",
          "type": "uint256"
        },
        {
          "internalType": "uint256",
          "name": "_actNumber",
          "type": "uint256"
        },
        {
          "internalType": "uint256",
          "name": "_clientsCode",
          "type": "uint256"
        }
      ],
      "name": "reimburseUser",
      "outputs": [],
      "stateMutability": "nonpayable",
      "type": "function"
    },
    {
      "inputs": [
        {
          "internalType": "uint256",
          "name": "_actNumber",
          "type": "uint256"
        },
        {
          "internalType": "uint256[2]",
          "name": "_policies",
          "type": "uint256[2]"
        }
      ],
      "name": "modifyPolicies",
      "outputs": [],
      "stateMutability": "nonpayable",
      "type": "function"
    }
  ],
  "bytecode": "0x608060405234801561001057600080fd5b5033600160006101000a81548173ffffffffffffffffffffffffffffffffffffffff021916908373ffffffffffffffffffffffffffffffffffffffff1602179055506122f9806100616000396000f3fe608060405234801561001057600080fd5b50600436106100625760003560e01c80634e09af161461006757806366f3fc5b146100835780638b3a21331461009f5780638fb4e1cd146100bb578063d302c2ed146100d7578063e90939f914610107575b600080fd5b610081600480360381019061007c9190610ab0565b610123565b005b61009d60048036038101906100989190610b26565b61020d565b005b6100b960048036038101906100b49190610ab0565b61036b565b005b6100d560048036038101906100d09190610b79565b610456565b005b6100f160048036038101906100ec9190610d12565b610573565b6040516100fe9190610dc8565b60405180910390f35b610121600480360381019061011c9190610e94565b61070b565b005b600160009054906101000a900473ffffffffffffffffffffffffffffffffffffffff1673ffffffffffffffffffffffffffffffffffffffff163373ffffffffffffffffffffffffffffffffffffffff16146101b3576040517f08c379a00000000000000000000000000000000000000000000000000000000081526004016101aa90610f31565b60405180910390fd5b806000808473ffffffffffffffffffffffffffffffffffffffff1673ffffffffffffffffffffffffffffffffffffffff16815260200190815260200160002060006101000a81548160ff0219169083151502179055505050565b60011515600360003373ffffffffffffffffffffffffffffffffffffffff1673ffffffffffffffffffffffffffffffffffffffff16815260200190815260200160002060009054906101000a900460ff161515146102a0576040517f08c379a000000000000000000000000000000000000000000000000000000000815260040161029790610f9d565b60405180910390fd5b60006102ae8484843361078c565b9050600073ffffffffffffffffffffffffffffffffffffffff166002600084815260200190815260200160002060009054906101000a900473ffffffffffffffffffffffffffffffffffffffff1673ffffffffffffffffffffffffffffffffffffffff16141580156103205750600081115b15610365576103648482600460008781526020019081526020016000206000600281106103505761034f610fbd565b5b015461035c919061101b565b8585336108e9565b5b50505050565b600160009054906101000a900473ffffffffffffffffffffffffffffffffffffffff1673ffffffffffffffffffffffffffffffffffffffff163373ffffffffffffffffffffffffffffffffffffffff16146103fb576040517f08c379a00000000000000000000000000000000000000000000000000000000081526004016103f29061109b565b60405180910390fd5b80600360008473ffffffffffffffffffffffffffffffffffffffff1673ffffffffffffffffffffffffffffffffffffffff16815260200190815260200160002060006101000a81548160ff0219169083151502179055505050565b600115156000803373ffffffffffffffffffffffffffffffffffffffff1673ffffffffffffffffffffffffffffffffffffffff16815260200190815260200160002060009054906101000a900460ff161515146104b257600080fd5b8073ffffffffffffffffffffffffffffffffffffffff166002600084815260200190815260200160002060009054906101000a900473ffffffffffffffffffffffffffffffffffffffff1673ffffffffffffffffffffffffffffffffffffffff161461051d57600080fd5b336002600084815260200190815260200160002060006101000a81548173ffffffffffffffffffffffffffffffffffffffff021916908373ffffffffffffffffffffffffffffffffffffffff1602179055505050565b6000600115156000803373ffffffffffffffffffffffffffffffffffffffff1673ffffffffffffffffffffffffffffffffffffffff16815260200190815260200160002060009054906101000a900460ff161515146105d157600080fd5b600080604051806020016105e49061099c565b6020820181038252601f19601f8201166040525090506000333060405160200161060f929190611103565b604051602081830303815290604052805190602001209050808251602084016000f592508273ffffffffffffffffffffffffffffffffffffffff16631c936b5f888888336040518563ffffffff1660e01b815260040161067294939291906111ed565b600060405180830381600087803b15801561068c57600080fd5b505af11580156106a0573d6000803e3d6000fd5b505050503373ffffffffffffffffffffffffffffffffffffffff168373ffffffffffffffffffffffffffffffffffffffff167f1a91c57e390e2b215ad4f17c283f3f4e2d8a1f2f6f16986800d7699df1a7605a60405160405180910390a38293505050509392505050565b3373ffffffffffffffffffffffffffffffffffffffff16600160009054906101000a900473ffffffffffffffffffffffffffffffffffffffff1673ffffffffffffffffffffffffffffffffffffffff161461076557600080fd5b80600460008481526020019081526020016000209060026107879291906109a9565b505050565b600080600460008681526020019081526020016000206001600281106107b5576107b4610fbd565b5b0154600460008781526020019081526020016000206000600281106107dd576107dc610fbd565b5b01546107e99190611247565b9050808610156107f7578590505b60008373ffffffffffffffffffffffffffffffffffffffff168260405161081d906112ba565b60006040518083038185875af1925050503d806000811461085a576040519150601f19603f3d011682016040523d82523d6000602084013e61085f565b606091505b50509050806108a3576040517f08c379a000000000000000000000000000000000000000000000000000000000815260040161089a90611341565b60405180910390fd5b7fd06b8f1e60095dcb2239368aa956d9fcccb96df8090a7df7b45107c8578353c685836040516108d4929190611370565b60405180910390a18192505050949350505050565b60006002600084815260200190815260200160002060009054906101000a900473ffffffffffffffffffffffffffffffffffffffff1690508073ffffffffffffffffffffffffffffffffffffffff1663b3129e3587878787876040518663ffffffff1660e01b8152600401610962959493929190611399565b600060405180830381600087803b15801561097c57600080fd5b505af1158015610990573d6000803e3d6000fd5b50505050505050505050565b610ed7806113ed83390190565b82600281019282156109d8579160200282015b828111156109d75782518255916020019190600101906109bc565b5b5090506109e591906109e9565b5090565b5b80821115610a025760008160009055506001016109ea565b5090565b6000604051905090565b600080fd5b600080fd5b600073ffffffffffffffffffffffffffffffffffffffff82169050919050565b6000610a4582610a1a565b9050919050565b610a5581610a3a565b8114610a6057600080fd5b50565b600081359050610a7281610a4c565b92915050565b60008115159050919050565b610a8d81610a78565b8114610a9857600080fd5b50565b600081359050610aaa81610a84565b92915050565b60008060408385031215610ac757610ac6610a10565b5b6000610ad585828601610a63565b9250506020610ae685828601610a9b565b9150509250929050565b6000819050919050565b610b0381610af0565b8114610b0e57600080fd5b50565b600081359050610b2081610afa565b92915050565b600080600060608486031215610b3f57610b3e610a10565b5b6000610b4d86828701610b11565b9350506020610b5e86828701610b11565b9250506040610b6f86828701610b11565b9150509250925092565b60008060408385031215610b9057610b8f610a10565b5b6000610b9e85828601610b11565b9250506020610baf85828601610a63565b9150509250929050565b600080fd5b6000601f19601f8301169050919050565b7f4e487b7100000000000000000000000000000000000000000000000000000000600052604160045260246000fd5b610c0782610bbe565b810181811067ffffffffffffffff82111715610c2657610c25610bcf565b5b80604052505050565b6000610c39610a06565b9050610c458282610bfe565b919050565b600067ffffffffffffffff821115610c6557610c64610bcf565b5b602082029050602081019050919050565b600080fd5b6000610c8e610c8984610c4a565b610c2f565b90508083825260208201905060208402830185811115610cb157610cb0610c76565b5b835b81811015610cda5780610cc68882610b11565b845260208401935050602081019050610cb3565b5050509392505050565b600082601f830112610cf957610cf8610bb9565b5b8135610d09848260208601610c7b565b91505092915050565b600080600060608486031215610d2b57610d2a610a10565b5b600084013567ffffffffffffffff811115610d4957610d48610a15565b5b610d5586828701610ce4565b935050602084013567ffffffffffffffff811115610d7657610d75610a15565b5b610d8286828701610ce4565b925050604084013567ffffffffffffffff811115610da357610da2610a15565b5b610daf86828701610ce4565b9150509250925092565b610dc281610a3a565b82525050565b6000602082019050610ddd6000830184610db9565b92915050565b600067ffffffffffffffff821115610dfe57610dfd610bcf565b5b602082029050919050565b6000610e1c610e1784610de3565b610c2f565b90508060208402830185811115610e3657610e35610c76565b5b835b81811015610e5f5780610e4b8882610b11565b845260208401935050602081019050610e38565b5050509392505050565b600082601f830112610e7e57610e7d610bb9565b5b6002610e8b848285610e09565b91505092915050565b60008060608385031215610eab57610eaa610a10565b5b6000610eb985828601610b11565b9250506020610eca85828601610e69565b9150509250929050565b600082825260208201905092915050565b7f796f752063616e74206368616e67652061737375207374617475730000000000600082015250565b6000610f1b601b83610ed4565b9150610f2682610ee5565b602082019050919050565b60006020820190508181036000830152610f4a81610f0e565b9050919050565b7f796f75277265206e6f7420612070726f00000000000000000000000000000000600082015250565b6000610f87601083610ed4565b9150610f9282610f51565b602082019050919050565b60006020820190508181036000830152610fb681610f7a565b9050919050565b7f4e487b7100000000000000000000000000000000000000000000000000000000600052603260045260246000fd5b7f4e487b7100000000000000000000000000000000000000000000000000000000600052601160045260246000fd5b600061102682610af0565b915061103183610af0565b925082820390508181111561104957611048610fec565b5b92915050565b7f796f752063616e74206368616e67652070726f20737461747573000000000000600082015250565b6000611085601a83610ed4565b91506110908261104f565b602082019050919050565b600060208201905081810360008301526110b481611078565b9050919050565b60008160601b9050919050565b60006110d3826110bb565b9050919050565b60006110e5826110c8565b9050919050565b6110fd6110f882610a3a565b6110da565b82525050565b600061110f82856110ec565b60148201915061111f82846110ec565b6014820191508190509392505050565b600081519050919050565b600082825260208201905092915050565b6000819050602082019050919050565b61116481610af0565b82525050565b6000611176838361115b565b60208301905092915050565b6000602082019050919050565b600061119a8261112f565b6111a4818561113a565b93506111af8361114b565b8060005b838110156111e05781516111c7888261116a565b97506111d283611182565b9250506001810190506111b3565b5085935050505092915050565b60006080820190508181036000830152611207818761118f565b9050818103602083015261121b818661118f565b9050818103604083015261122f818561118f565b905061123e6060830184610db9565b95945050505050565b600061125282610af0565b915061125d83610af0565b925082820261126b81610af0565b9150828204841483151761128257611281610fec565b5b5092915050565b600081905092915050565b50565b60006112a4600083611289565b91506112af82611294565b600082019050919050565b60006112c582611297565b9150819050919050565b7f7265696d62757273656d656e7420696d706f737369626c652c2063616c6c207460008201527f6865207365637500000000000000000000000000000000000000000000000000602082015250565b600061132b602783610ed4565b9150611336826112cf565b604082019050919050565b6000602082019050818103600083015261135a8161131e565b9050919050565b61136a81610af0565b82525050565b60006040820190506113856000830185611361565b6113926020830184611361565b9392505050565b600060a0820190506113ae6000830188611361565b6113bb6020830187611361565b6113c86040830186611361565b6113d56060830185611361565b6113e26080830184610db9565b969550505050505056fe608060405234801561001057600080fd5b50610eb7806100206000396000f3fe608060405234801561001057600080fd5b506004361061007d5760003560e01c806337cee9a01161005b57806337cee9a0146100ea57806385cd879114610106578063b35ff82314610124578063f7c58b8e146101405761007d565b806317b15137146100825780631859fe4b1461009e5780631c936b5f146100ce575b600080fd5b61009c600480360381019061009791906107d3565b61015e565b005b6100b860048036038101906100b39190610813565b610243565b6040516100c59190610889565b60405180910390f35b6100e860048036038101906100e39190610a5b565b61033b565b005b61010460048036038101906100ff9190610b16565b6104c3565b005b61010e610620565b60405161011b9190610889565b60405180910390f35b61013e60048036038101906101399190610b16565b610626565b005b610148610783565b6040516101559190610889565b60405180910390f35b600460019054906101000a900473ffffffffffffffffffffffffffffffffffffffff1673ffffffffffffffffffffffffffffffffffffffff163373ffffffffffffffffffffffffffffffffffffffff16146101ee576040517f08c379a00000000000000000000000000000000000000000000000000000000081526004016101e590610ba0565b60405180910390fd5b8060056000848152602001908152602001600020819055507f171307605df6b02719e2dbe451c9aea99d9b1bb4e98be627d5b34deca8db26ad4283604051610237929190610bc0565b60405180910390a15050565b6000600115156006600084815260200190815260200160002060009054906101000a900460ff161515146102ac576040517f08c379a00000000000000000000000000000000000000000000000000000000081526004016102a390610c35565b60405180910390fd5b600254421180156102bf57506003544211155b6102fe576040517f08c379a00000000000000000000000000000000000000000000000000000000081526004016102f590610ca1565b60405180910390fd5b600060056000858152602001908152602001600020548561031f9190610cf0565b905085811061032e5785610330565b805b915050949350505050565b60001515600460009054906101000a900460ff16151514610391576040517f08c379a000000000000000000000000000000000000000000000000000000000815260040161038890610d7e565b60405180910390fd5b6001600460006101000a81548160ff02191690831515021790555060005b8451811015610417578381815181106103cb576103ca610d9e565b5b6020026020010151600560008784815181106103ea576103e9610d9e565b5b6020026020010151815260200190815260200160002081905550808061040f90610dcd565b9150506103af565b5080600460016101000a81548173ffffffffffffffffffffffffffffffffffffffff021916908373ffffffffffffffffffffffffffffffffffffffff16021790555060005b82518110156104bc5760016006600085848151811061047e5761047d610d9e565b5b6020026020010151815260200190815260200160002060006101000a81548160ff021916908315150217905550806104b590610dcd565b905061045c565b5050505050565b600460019054906101000a900473ffffffffffffffffffffffffffffffffffffffff1673ffffffffffffffffffffffffffffffffffffffff163373ffffffffffffffffffffffffffffffffffffffff1614610553576040517f08c379a000000000000000000000000000000000000000000000000000000000815260040161054a90610ba0565b60405180910390fd5b600115156006600083815260200190815260200160002060009054906101000a900460ff161515146105ba576040517f08c379a00000000000000000000000000000000000000000000000000000000081526004016105b190610c35565b60405180910390fd5b60006006600083815260200190815260200160002060006101000a81548160ff0219169083151502179055507fdfb480829c95c69fa50cdfb9d75e7a00b4b4efbdea6b552a0e358125ccd51384816040516106159190610889565b60405180910390a150565b60035481565b600460019054906101000a900473ffffffffffffffffffffffffffffffffffffffff1673ffffffffffffffffffffffffffffffffffffffff163373ffffffffffffffffffffffffffffffffffffffff16146106b6576040517f08c379a00000000000000000000000000000000000000000000000000000000081526004016106ad90610ba0565b60405180910390fd5b600015156006600083815260200190815260200160002060009054906101000a900460ff1615151461071d576040517f08c379a000000000000000000000000000000000000000000000000000000000815260040161071490610e61565b60405180910390fd5b60016006600083815260200190815260200160002060006101000a81548160ff0219169083151502179055507fdfb480829c95c69fa50cdfb9d75e7a00b4b4efbdea6b552a0e358125ccd51384816040516107789190610889565b60405180910390a150565b60025481565b6000604051905090565b600080fd5b600080fd5b6000819050919050565b6107b08161079d565b81146107bb57600080fd5b50565b6000813590506107cd816107a7565b92915050565b600080604083850312156107ea576107e9610793565b5b60006107f8858286016107be565b9250506020610809858286016107be565b9150509250929050565b6000806000806080858703121561082d5761082c610793565b5b600061083b878288016107be565b945050602061084c878288016107be565b935050604061085d878288016107be565b925050606061086e878288016107be565b91505092959194509250565b6108838161079d565b82525050565b600060208201905061089e600083018461087a565b92915050565b600080fd5b6000601f19601f8301169050919050565b7f4e487b7100000000000000000000000000000000000000000000000000000000600052604160045260246000fd5b6108f2826108a9565b810181811067ffffffffffffffff82111715610911576109106108ba565b5b80604052505050565b6000610924610789565b905061093082826108e9565b919050565b600067ffffffffffffffff8211156109505761094f6108ba565b5b602082029050602081019050919050565b600080fd5b600061097961097484610935565b61091a565b9050808382526020820190506020840283018581111561099c5761099b610961565b5b835b818110156109c557806109b188826107be565b84526020840193505060208101905061099e565b5050509392505050565b600082601f8301126109e4576109e36108a4565b5b81356109f4848260208601610966565b91505092915050565b600073ffffffffffffffffffffffffffffffffffffffff82169050919050565b6000610a28826109fd565b9050919050565b610a3881610a1d565b8114610a4357600080fd5b50565b600081359050610a5581610a2f565b92915050565b60008060008060808587031215610a7557610a74610793565b5b600085013567ffffffffffffffff811115610a9357610a92610798565b5b610a9f878288016109cf565b945050602085013567ffffffffffffffff811115610ac057610abf610798565b5b610acc878288016109cf565b935050604085013567ffffffffffffffff811115610aed57610aec610798565b5b610af9878288016109cf565b9250506060610b0a87828801610a46565b91505092959194509250565b600060208284031215610b2c57610b2b610793565b5b6000610b3a848285016107be565b91505092915050565b600082825260208201905092915050565b7f6f6e6c7920496e737572616e63652063616e20646f2074686973000000000000600082015250565b6000610b8a601a83610b43565b9150610b9582610b54565b602082019050919050565b60006020820190508181036000830152610bb981610b7d565b9050919050565b6000604082019050610bd5600083018561087a565b610be2602083018461087a565b9392505050565b7f6e6f74206120636c69656e740000000000000000000000000000000000000000600082015250565b6000610c1f600c83610b43565b9150610c2a82610be9565b602082019050919050565b60006020820190508181036000830152610c4e81610c12565b9050919050565b7f6e6f7420696e2074696d65000000000000000000000000000000000000000000600082015250565b6000610c8b600b83610b43565b9150610c9682610c55565b602082019050919050565b60006020820190508181036000830152610cba81610c7e565b9050919050565b7f4e487b7100000000000000000000000000000000000000000000000000000000600052601160045260246000fd5b6000610cfb8261079d565b9150610d068361079d565b9250828202610d148161079d565b91508282048414831517610d2b57610d2a610cc1565b5b5092915050565b7f616c726561647920696e697469616c6973656400000000000000000000000000600082015250565b6000610d68601383610b43565b9150610d7382610d32565b602082019050919050565b60006020820190508181036000830152610d9781610d5b565b9050919050565b7f4e487b7100000000000000000000000000000000000000000000000000000000600052603260045260246000fd5b6000610dd88261079d565b91507fffffffffffffffffffffffffffffffffffffffffffffffffffffffffffffffff8203610e0a57610e09610cc1565b5b600182019050919050565b7f616c7265616479206120636c69656e7400000000000000000000000000000000600082015250565b6000610e4b601083610b43565b9150610e5682610e15565b602082019050919050565b60006020820190508181036000830152610e7a81610e3e565b905091905056fea2646970667358221220c091f23029567502a4e5b560354645ecbc21ce45d45feba4d44c969a9fc1a95d64736f6c63430008110033a2646970667358221220aa288e3489d03729d5d0442aadb2f14824ccce23963c45fd0c231a517d6486ef64736f6c63430008110033",
  "immutableReferences": {},
  "source": "// SPDX-License-Identifier: UNLICENSED\npragma solidity 0.8.17;\n\nimport \"./PolicyFactory.sol\";\nimport \"./Policy.sol\";\nimport \"./Assu.sol\";\n\n\ncontract Secu is PolicyFactory {\n\n    address SECU_ADDRESS;\n\n    mapping (uint => address) insuranceCompanyForUSer; // with secu code of a user, we can find the address of the insurance company\n    mapping (address => bool) isPro; // check if address is of a professionnal\n    mapping (uint => uint[2]) PoliciesBySecu; // 2 index : base de remboursement et pourcentage de base\n    mapping (address => address) SCAddress;\n\n    event reimbursedSecu(uint SecuCode, uint value);\n\n\n\n    constructor()  {\n        SECU_ADDRESS=msg.sender;\n    }\n\n    function updatePro(address _proAddress, bool _isPro) public {\n        require(msg.sender==SECU_ADDRESS, \"you cant change pro status\");\n        isPro[_proAddress]=_isPro;\n    }\n\n    function updateAssureur(address _assuAddress, bool _isAssu) public {\n        require(msg.sender==SECU_ADDRESS, \"you cant change assu status\");\n        insuranceCompany[_assuAddress]=_isAssu;\n    }\n\n    function updateUser(uint _clientsCode, address _oldInsurance) public {\n        require (insuranceCompany[msg.sender]==true);\n        require ( insuranceCompanyForUSer[_clientsCode]==_oldInsurance);\n        insuranceCompanyForUSer[_clientsCode]=msg.sender;\n    }\n\n    function reimburseUser(uint _price, uint _actNumber, uint _clientsCode) public {\n        require(isPro[msg.sender]==true, \"you're not a pro\");\n        uint value= reimburseBySecu( _price, _actNumber, _clientsCode, msg.sender);\n        if(insuranceCompanyForUSer[_clientsCode]!=address(0) && value > 0 ){\n            reimburseByMutuelle( _price, PoliciesBySecu[_actNumber][0]-value, _actNumber, _clientsCode, msg.sender);\n        }\n    }\n\n    function reimburseBySecu(uint _price, uint _actNumber, uint _clientsCode, address _proAddress) private returns(uint){\n        uint value = PoliciesBySecu[_actNumber][0]*PoliciesBySecu[_actNumber][1];\n        if(_price < value){\n            value = _price;\n        }\n        (bool success, )= _proAddress.call{value: value}(\"\");\n        require (success, \"reimbursement impossible, call the secu\");\n        emit reimbursedSecu(_clientsCode, value);\n        return value;\n    } \n\n    function reimburseByMutuelle(uint _price, uint _BRMR, uint _actNumber, uint _clientsCode, address _proAddress) private{\n        address insuranceCompany = insuranceCompanyForUSer[_clientsCode];\n        Assu(insuranceCompany).reimburseClient( _price, _BRMR, _actNumber, _clientsCode, _proAddress);\n    }\n\n    function modifyPolicies (uint _actNumber, uint[2] memory _policies)  public {\n        require(SECU_ADDRESS==msg.sender);\n        PoliciesBySecu[_actNumber] = _policies;\n    }\n}",
  "sourcePath": "/home/cyril/dev/eth/assuThomas/contracts/Secu.sol",
  "compiler": {
    "name": "solc",
    "version": "0.8.17+commit.8df45f5f.Emscripten.clang"
  },
  "schemaVersion": "3.4.10",
  "updatedAt": "2023-06-24T11:52:49.888Z",
  "networkType": "ethereum",
  "devdoc": {
    "kind": "dev",
    "methods": {},
    "version": 1
  },
  "userdoc": {
    "kind": "user",
    "methods": {},
    "version": 1
  }
}