{
  "contractName": "Secu",
  "abi": [
    {
      "inputs": [],
      "stateMutability": "nonpayable",
      "type": "constructor"
    },
    {
      "anonymous": false,
      "inputs": [
        {
          "indexed": true,
          "internalType": "address",
          "name": "_policyCreated",
          "type": "address"
        },
        {
          "indexed": true,
          "internalType": "address",
          "name": "_insuranceCompany",
          "type": "address"
        }
      ],
      "name": "PolicyCreated",
      "type": "event"
    },
    {
      "inputs": [
        {
          "internalType": "uint256[]",
          "name": "_actNumber",
          "type": "uint256[]"
        },
        {
          "internalType": "uint256[]",
          "name": "_policies",
          "type": "uint256[]"
        },
        {
          "internalType": "uint256[]",
          "name": "_clients",
          "type": "uint256[]"
        }
      ],
      "name": "createPolicy",
      "outputs": [
        {
          "internalType": "address",
          "name": "",
          "type": "address"
        }
      ],
      "stateMutability": "nonpayable",
      "type": "function"
    },
    {
      "inputs": [
        {
          "internalType": "address",
          "name": "_proAddress",
          "type": "address"
        },
        {
          "internalType": "bool",
          "name": "_isPro",
          "type": "bool"
        }
      ],
      "name": "updateUser",
      "outputs": [],
      "stateMutability": "nonpayable",
      "type": "function"
    },
    {
      "inputs": [
        {
          "internalType": "uint256",
          "name": "_clientsCode",
          "type": "uint256"
        },
        {
          "internalType": "address",
          "name": "_oldInsurance",
          "type": "address"
        }
      ],
      "name": "updateUser",
      "outputs": [],
      "stateMutability": "nonpayable",
      "type": "function"
    },
    {
      "inputs": [
        {
          "internalType": "uint256",
          "name": "_price",
          "type": "uint256"
        },
        {
          "internalType": "uint256",
          "name": "_actNumber",
          "type": "uint256"
        },
        {
          "internalType": "uint256",
          "name": "_clientsCode",
          "type": "uint256"
        }
      ],
      "name": "reimburseUser",
      "outputs": [],
      "stateMutability": "nonpayable",
      "type": "function"
    },
    {
      "inputs": [
        {
          "internalType": "uint256",
          "name": "_actNumber",
          "type": "uint256"
        },
        {
          "internalType": "uint256[2]",
          "name": "_policies",
          "type": "uint256[2]"
        }
      ],
      "name": "modifyPolicies",
      "outputs": [],
      "stateMutability": "nonpayable",
      "type": "function"
    }
  ],
  "bytecode": "0x608060405234801561000f575f80fd5b503360015f6101000a81548173ffffffffffffffffffffffffffffffffffffffff021916908373ffffffffffffffffffffffffffffffffffffffff1602179055506120dd8061005d5f395ff3fe608060405234801561000f575f80fd5b5060043610610055575f3560e01c806366f3fc5b1461005957806388b16774146100755780638fb4e1cd14610091578063d302c2ed146100ad578063e90939f9146100dd575b5f80fd5b610073600480360381019061006e91906108e6565b6100f9565b005b61008f600480360381019061008a91906109c5565b61023e565b005b6100ab60048036038101906100a69190610a03565b610325565b005b6100c760048036038101906100c29190610b91565b610437565b6040516100d49190610c44565b60405180910390f35b6100f760048036038101906100f29190610d0b565b6105c2565b005b6001151560035f3373ffffffffffffffffffffffffffffffffffffffff1673ffffffffffffffffffffffffffffffffffffffff1681526020019081526020015f205f9054906101000a900460ff16151514610189576040517f08c379a000000000000000000000000000000000000000000000000000000000815260040161018090610da3565b60405180910390fd5b5f6101968484843361063f565b90505f73ffffffffffffffffffffffffffffffffffffffff1660025f8481526020019081526020015f205f9054906101000a900473ffffffffffffffffffffffffffffffffffffffff1673ffffffffffffffffffffffffffffffffffffffff161461023857610237848260045f8781526020019081526020015f205f6002811061022357610222610dc1565b5b015461022f9190610e1b565b858533610790565b5b50505050565b60015f9054906101000a900473ffffffffffffffffffffffffffffffffffffffff1673ffffffffffffffffffffffffffffffffffffffff163373ffffffffffffffffffffffffffffffffffffffff16146102cd576040517f08c379a00000000000000000000000000000000000000000000000000000000081526004016102c490610e98565b60405180910390fd5b8060035f8473ffffffffffffffffffffffffffffffffffffffff1673ffffffffffffffffffffffffffffffffffffffff1681526020019081526020015f205f6101000a81548160ff0219169083151502179055505050565b600115155f803373ffffffffffffffffffffffffffffffffffffffff1673ffffffffffffffffffffffffffffffffffffffff1681526020019081526020015f205f9054906101000a900460ff1615151461037d575f80fd5b8073ffffffffffffffffffffffffffffffffffffffff1660025f8481526020019081526020015f205f9054906101000a900473ffffffffffffffffffffffffffffffffffffffff1673ffffffffffffffffffffffffffffffffffffffff16146103e4575f80fd5b3360025f8481526020019081526020015f205f6101000a81548173ffffffffffffffffffffffffffffffffffffffff021916908373ffffffffffffffffffffffffffffffffffffffff1602179055505050565b5f600115155f803373ffffffffffffffffffffffffffffffffffffffff1673ffffffffffffffffffffffffffffffffffffffff1681526020019081526020015f205f9054906101000a900460ff16151514610490575f80fd5b5f80604051806020016104a29061083a565b6020820181038252601f19601f8201166040525090505f33306040516020016104cc929190610efb565b604051602081830303815290604052805190602001209050808251602084015ff592508273ffffffffffffffffffffffffffffffffffffffff16631c936b5f888888336040518563ffffffff1660e01b815260040161052e9493929190610fdd565b5f604051808303815f87803b158015610545575f80fd5b505af1158015610557573d5f803e3d5ffd5b505050503373ffffffffffffffffffffffffffffffffffffffff168373ffffffffffffffffffffffffffffffffffffffff167f1a91c57e390e2b215ad4f17c283f3f4e2d8a1f2f6f16986800d7699df1a7605a60405160405180910390a38293505050509392505050565b3373ffffffffffffffffffffffffffffffffffffffff1660015f9054906101000a900473ffffffffffffffffffffffffffffffffffffffff1673ffffffffffffffffffffffffffffffffffffffff161461061a575f80fd5b8060045f8481526020019081526020015f2090600261063a929190610847565b505050565b5f8060045f8681526020019081526020015f2060016002811061066557610664610dc1565b5b015460045f8781526020019081526020015f205f6002811061068a57610689610dc1565b5b01546106969190611035565b9050808610156106db576040517f08c379a00000000000000000000000000000000000000000000000000000000081526004016106d2906110e6565b60405180910390fd5b5f8373ffffffffffffffffffffffffffffffffffffffff168260405161070090611131565b5f6040518083038185875af1925050503d805f811461073a576040519150601f19603f3d011682016040523d82523d5f602084013e61073f565b606091505b5050905080610783576040517f08c379a000000000000000000000000000000000000000000000000000000000815260040161077a906111b5565b60405180910390fd5b8192505050949350505050565b5f60025f8481526020019081526020015f205f9054906101000a900473ffffffffffffffffffffffffffffffffffffffff1690508073ffffffffffffffffffffffffffffffffffffffff1663b3129e3587878787876040518663ffffffff1660e01b81526004016108059594939291906111e2565b5f604051808303815f87803b15801561081c575f80fd5b505af115801561082e573d5f803e3d5ffd5b50505050505050505050565b610e748061123483390190565b8260028101928215610876579160200282015b8281111561087557825182559160200191906001019061085a565b5b5090506108839190610887565b5090565b5b8082111561089e575f815f905550600101610888565b5090565b5f604051905090565b5f80fd5b5f80fd5b5f819050919050565b6108c5816108b3565b81146108cf575f80fd5b50565b5f813590506108e0816108bc565b92915050565b5f805f606084860312156108fd576108fc6108ab565b5b5f61090a868287016108d2565b935050602061091b868287016108d2565b925050604061092c868287016108d2565b9150509250925092565b5f73ffffffffffffffffffffffffffffffffffffffff82169050919050565b5f61095f82610936565b9050919050565b61096f81610955565b8114610979575f80fd5b50565b5f8135905061098a81610966565b92915050565b5f8115159050919050565b6109a481610990565b81146109ae575f80fd5b50565b5f813590506109bf8161099b565b92915050565b5f80604083850312156109db576109da6108ab565b5b5f6109e88582860161097c565b92505060206109f9858286016109b1565b9150509250929050565b5f8060408385031215610a1957610a186108ab565b5b5f610a26858286016108d2565b9250506020610a378582860161097c565b9150509250929050565b5f80fd5b5f601f19601f8301169050919050565b7f4e487b71000000000000000000000000000000000000000000000000000000005f52604160045260245ffd5b610a8b82610a45565b810181811067ffffffffffffffff82111715610aaa57610aa9610a55565b5b80604052505050565b5f610abc6108a2565b9050610ac88282610a82565b919050565b5f67ffffffffffffffff821115610ae757610ae6610a55565b5b602082029050602081019050919050565b5f80fd5b5f610b0e610b0984610acd565b610ab3565b90508083825260208201905060208402830185811115610b3157610b30610af8565b5b835b81811015610b5a5780610b4688826108d2565b845260208401935050602081019050610b33565b5050509392505050565b5f82601f830112610b7857610b77610a41565b5b8135610b88848260208601610afc565b91505092915050565b5f805f60608486031215610ba857610ba76108ab565b5b5f84013567ffffffffffffffff811115610bc557610bc46108af565b5b610bd186828701610b64565b935050602084013567ffffffffffffffff811115610bf257610bf16108af565b5b610bfe86828701610b64565b925050604084013567ffffffffffffffff811115610c1f57610c1e6108af565b5b610c2b86828701610b64565b9150509250925092565b610c3e81610955565b82525050565b5f602082019050610c575f830184610c35565b92915050565b5f67ffffffffffffffff821115610c7757610c76610a55565b5b602082029050919050565b5f610c94610c8f84610c5d565b610ab3565b90508060208402830185811115610cae57610cad610af8565b5b835b81811015610cd75780610cc388826108d2565b845260208401935050602081019050610cb0565b5050509392505050565b5f82601f830112610cf557610cf4610a41565b5b6002610d02848285610c82565b91505092915050565b5f8060608385031215610d2157610d206108ab565b5b5f610d2e858286016108d2565b9250506020610d3f85828601610ce1565b9150509250929050565b5f82825260208201905092915050565b7f796f75277265206e6f7420612070726f000000000000000000000000000000005f82015250565b5f610d8d601083610d49565b9150610d9882610d59565b602082019050919050565b5f6020820190508181035f830152610dba81610d81565b9050919050565b7f4e487b71000000000000000000000000000000000000000000000000000000005f52603260045260245ffd5b7f4e487b71000000000000000000000000000000000000000000000000000000005f52601160045260245ffd5b5f610e25826108b3565b9150610e30836108b3565b9250828203905081811115610e4857610e47610dee565b5b92915050565b7f796f752063616e74206368616e67652070726f207374617475730000000000005f82015250565b5f610e82601a83610d49565b9150610e8d82610e4e565b602082019050919050565b5f6020820190508181035f830152610eaf81610e76565b9050919050565b5f8160601b9050919050565b5f610ecc82610eb6565b9050919050565b5f610edd82610ec2565b9050919050565b610ef5610ef082610955565b610ed3565b82525050565b5f610f068285610ee4565b601482019150610f168284610ee4565b6014820191508190509392505050565b5f81519050919050565b5f82825260208201905092915050565b5f819050602082019050919050565b610f58816108b3565b82525050565b5f610f698383610f4f565b60208301905092915050565b5f602082019050919050565b5f610f8b82610f26565b610f958185610f30565b9350610fa083610f40565b805f5b83811015610fd0578151610fb78882610f5e565b9750610fc283610f75565b925050600181019050610fa3565b5085935050505092915050565b5f6080820190508181035f830152610ff58187610f81565b905081810360208301526110098186610f81565b9050818103604083015261101d8185610f81565b905061102c6060830184610c35565b95945050505050565b5f61103f826108b3565b915061104a836108b3565b9250828202611058816108b3565b9150828204841483151761106f5761106e610dee565b5b5092915050565b7f63616e7420706179206d6f7265207468616e20776861742077617320706179655f8201527f6400000000000000000000000000000000000000000000000000000000000000602082015250565b5f6110d0602183610d49565b91506110db82611076565b604082019050919050565b5f6020820190508181035f8301526110fd816110c4565b9050919050565b5f81905092915050565b50565b5f61111c5f83611104565b91506111278261110e565b5f82019050919050565b5f61113b82611111565b9150819050919050565b7f7265696d62757273656d656e7420696d706f737369626c652c2063616c6c20745f8201527f6865207365637500000000000000000000000000000000000000000000000000602082015250565b5f61119f602783610d49565b91506111aa82611145565b604082019050919050565b5f6020820190508181035f8301526111cc81611193565b9050919050565b6111dc816108b3565b82525050565b5f60a0820190506111f55f8301886111d3565b61120260208301876111d3565b61120f60408301866111d3565b61121c60608301856111d3565b6112296080830184610c35565b969550505050505056fe608060405234801561000f575f80fd5b50610e578061001d5f395ff3fe608060405234801561000f575f80fd5b506004361061007b575f3560e01c806337cee9a01161005957806337cee9a0146100e757806385cd879114610103578063b35ff82314610121578063f7c58b8e1461013d5761007b565b806317b151371461007f5780631859fe4b1461009b5780631c936b5f146100cb575b5f80fd5b610099600480360381019061009491906107a9565b61015b565b005b6100b560048036038101906100b091906107e7565b61023e565b6040516100c2919061085a565b60405180910390f35b6100e560048036038101906100e09190610a1d565b61032f565b005b61010160048036038101906100fc9190610ad5565b6104ad565b005b61010b610603565b604051610118919061085a565b60405180910390f35b61013b60048036038101906101369190610ad5565b610609565b005b61014561075f565b604051610152919061085a565b60405180910390f35b600460019054906101000a900473ffffffffffffffffffffffffffffffffffffffff1673ffffffffffffffffffffffffffffffffffffffff163373ffffffffffffffffffffffffffffffffffffffff16146101eb576040517f08c379a00000000000000000000000000000000000000000000000000000000081526004016101e290610b5a565b60405180910390fd5b8060055f8481526020019081526020015f20819055507f171307605df6b02719e2dbe451c9aea99d9b1bb4e98be627d5b34deca8db26ad4283604051610232929190610b78565b60405180910390a15050565b5f6001151560065f8481526020019081526020015f205f9054906101000a900460ff161515146102a3576040517f08c379a000000000000000000000000000000000000000000000000000000000815260040161029a90610be9565b60405180910390fd5b600254421180156102b657506003544211155b6102f5576040517f08c379a00000000000000000000000000000000000000000000000000000000081526004016102ec90610c51565b60405180910390fd5b5f60055f8581526020019081526020015f2054856103139190610c9c565b90508581106103225785610324565b805b915050949350505050565b5f151560045f9054906101000a900460ff16151514610383576040517f08c379a000000000000000000000000000000000000000000000000000000000815260040161037a90610d27565b60405180910390fd5b600160045f6101000a81548160ff0219169083151502179055505f5b8451811015610405578381815181106103bb576103ba610d45565b5b602002602001015160055f8784815181106103d9576103d8610d45565b5b602002602001015181526020019081526020015f208190555080806103fd90610d72565b91505061039f565b5080600460016101000a81548173ffffffffffffffffffffffffffffffffffffffff021916908373ffffffffffffffffffffffffffffffffffffffff1602179055505f5b82518110156104a657600160065f85848151811061046a57610469610d45565b5b602002602001015181526020019081526020015f205f6101000a81548160ff0219169083151502179055508061049f90610d72565b9050610449565b5050505050565b600460019054906101000a900473ffffffffffffffffffffffffffffffffffffffff1673ffffffffffffffffffffffffffffffffffffffff163373ffffffffffffffffffffffffffffffffffffffff161461053d576040517f08c379a000000000000000000000000000000000000000000000000000000000815260040161053490610b5a565b60405180910390fd5b6001151560065f8381526020019081526020015f205f9054906101000a900460ff161515146105a1576040517f08c379a000000000000000000000000000000000000000000000000000000000815260040161059890610be9565b60405180910390fd5b5f60065f8381526020019081526020015f205f6101000a81548160ff0219169083151502179055507fdfb480829c95c69fa50cdfb9d75e7a00b4b4efbdea6b552a0e358125ccd51384816040516105f8919061085a565b60405180910390a150565b60035481565b600460019054906101000a900473ffffffffffffffffffffffffffffffffffffffff1673ffffffffffffffffffffffffffffffffffffffff163373ffffffffffffffffffffffffffffffffffffffff1614610699576040517f08c379a000000000000000000000000000000000000000000000000000000000815260040161069090610b5a565b60405180910390fd5b5f151560065f8381526020019081526020015f205f9054906101000a900460ff161515146106fc576040517f08c379a00000000000000000000000000000000000000000000000000000000081526004016106f390610e03565b60405180910390fd5b600160065f8381526020019081526020015f205f6101000a81548160ff0219169083151502179055507fdfb480829c95c69fa50cdfb9d75e7a00b4b4efbdea6b552a0e358125ccd5138481604051610754919061085a565b60405180910390a150565b60025481565b5f604051905090565b5f80fd5b5f80fd5b5f819050919050565b61078881610776565b8114610792575f80fd5b50565b5f813590506107a38161077f565b92915050565b5f80604083850312156107bf576107be61076e565b5b5f6107cc85828601610795565b92505060206107dd85828601610795565b9150509250929050565b5f805f80608085870312156107ff576107fe61076e565b5b5f61080c87828801610795565b945050602061081d87828801610795565b935050604061082e87828801610795565b925050606061083f87828801610795565b91505092959194509250565b61085481610776565b82525050565b5f60208201905061086d5f83018461084b565b92915050565b5f80fd5b5f601f19601f8301169050919050565b7f4e487b71000000000000000000000000000000000000000000000000000000005f52604160045260245ffd5b6108bd82610877565b810181811067ffffffffffffffff821117156108dc576108db610887565b5b80604052505050565b5f6108ee610765565b90506108fa82826108b4565b919050565b5f67ffffffffffffffff82111561091957610918610887565b5b602082029050602081019050919050565b5f80fd5b5f61094061093b846108ff565b6108e5565b905080838252602082019050602084028301858111156109635761096261092a565b5b835b8181101561098c57806109788882610795565b845260208401935050602081019050610965565b5050509392505050565b5f82601f8301126109aa576109a9610873565b5b81356109ba84826020860161092e565b91505092915050565b5f73ffffffffffffffffffffffffffffffffffffffff82169050919050565b5f6109ec826109c3565b9050919050565b6109fc816109e2565b8114610a06575f80fd5b50565b5f81359050610a17816109f3565b92915050565b5f805f8060808587031215610a3557610a3461076e565b5b5f85013567ffffffffffffffff811115610a5257610a51610772565b5b610a5e87828801610996565b945050602085013567ffffffffffffffff811115610a7f57610a7e610772565b5b610a8b87828801610996565b935050604085013567ffffffffffffffff811115610aac57610aab610772565b5b610ab887828801610996565b9250506060610ac987828801610a09565b91505092959194509250565b5f60208284031215610aea57610ae961076e565b5b5f610af784828501610795565b91505092915050565b5f82825260208201905092915050565b7f6f6e6c7920496e737572616e63652063616e20646f20746869730000000000005f82015250565b5f610b44601a83610b00565b9150610b4f82610b10565b602082019050919050565b5f6020820190508181035f830152610b7181610b38565b9050919050565b5f604082019050610b8b5f83018561084b565b610b98602083018461084b565b9392505050565b7f6e6f74206120636c69656e7400000000000000000000000000000000000000005f82015250565b5f610bd3600c83610b00565b9150610bde82610b9f565b602082019050919050565b5f6020820190508181035f830152610c0081610bc7565b9050919050565b7f6e6f7420696e2074696d650000000000000000000000000000000000000000005f82015250565b5f610c3b600b83610b00565b9150610c4682610c07565b602082019050919050565b5f6020820190508181035f830152610c6881610c2f565b9050919050565b7f4e487b71000000000000000000000000000000000000000000000000000000005f52601160045260245ffd5b5f610ca682610776565b9150610cb183610776565b9250828202610cbf81610776565b91508282048414831517610cd657610cd5610c6f565b5b5092915050565b7f616c726561647920696e697469616c69736564000000000000000000000000005f82015250565b5f610d11601383610b00565b9150610d1c82610cdd565b602082019050919050565b5f6020820190508181035f830152610d3e81610d05565b9050919050565b7f4e487b71000000000000000000000000000000000000000000000000000000005f52603260045260245ffd5b5f610d7c82610776565b91507fffffffffffffffffffffffffffffffffffffffffffffffffffffffffffffffff8203610dae57610dad610c6f565b5b600182019050919050565b7f616c7265616479206120636c69656e74000000000000000000000000000000005f82015250565b5f610ded601083610b00565b9150610df882610db9565b602082019050919050565b5f6020820190508181035f830152610e1a81610de1565b905091905056fea2646970667358221220da35971cbc55205b066aa49d839fc8e34014516fc97d76536323c03927a40b6664736f6c63430008140033a2646970667358221220f3edb69ecbec93a22c2b3877e2bd1d61fa65d54bd6e79d1e45e0cc8a0998251664736f6c63430008140033",
  "immutableReferences": {},
  "source": "// SPDX-License-Identifier: UNLICENSED\npragma solidity 0.8.20;\n\nimport \"./PolicyFactory.sol\";\nimport \"./Policy.sol\";\nimport \"./Assu.sol\";\n\n\ncontract Secu is PolicyFactory {\n\n    address SECU_ADDRESS;\n\n    mapping (uint => address) insuranceCompanyForUSer; // with secu code of a user, we can find the address of the insurance company\n    mapping (address => bool) isPro; // check if address is of a professionnal\n    \n    mapping(uint => uint[2]) PoliciesBySecu; // 2 index : base de remboursement et pourcentage de base\n\n\n    constructor()  {\n        SECU_ADDRESS=msg.sender;\n    }\n\n    function updateUser(address _proAddress, bool _isPro) public {\n        require(msg.sender==SECU_ADDRESS, \"you cant change pro status\");\n        isPro[_proAddress]=_isPro;\n    }\n\n\n    function updateUser(uint _clientsCode, address _oldInsurance) public {\n        require (insuranceCompany[msg.sender]==true);\n        require ( insuranceCompanyForUSer[_clientsCode]==_oldInsurance);\n        insuranceCompanyForUSer[_clientsCode]=msg.sender;\n    }\n\n    function reimburseUser(uint _price, uint _actNumber, uint _clientsCode) public {\n        require(isPro[msg.sender]==true, \"you're not a pro\");\n        uint value= reimburseBySecu( _price, _actNumber, _clientsCode, msg.sender);\n        if(insuranceCompanyForUSer[_clientsCode]!=address(0)){\n            reimburseByMutuelle( _price, PoliciesBySecu[_actNumber][0]-value, _actNumber, _clientsCode, msg.sender);\n        }\n    }\n\n    function reimburseBySecu(uint _price, uint _actNumber, uint _clientsCode, address _proAddress) private returns(uint){\n        uint value = PoliciesBySecu[_actNumber][0]*PoliciesBySecu[_actNumber][1];\n        require(_price >= value, \"cant pay more than what was payed\");\n        (bool success, )= _proAddress.call{value: value}(\"\");\n        require (success, \"reimbursement impossible, call the secu\");\n        return value;\n        // mettre un event\n    } \n\n    function reimburseByMutuelle(uint _price, uint _BRMR, uint _actNumber, uint _clientsCode, address _proAddress) private{\n        address insuranceCompany = insuranceCompanyForUSer[_clientsCode];\n        Assu(insuranceCompany).reimburseClient( _price, _BRMR, _actNumber, _clientsCode, _proAddress);\n    }\n\n    function modifyPolicies (uint _actNumber, uint[2] memory _policies)  public {\n        require(SECU_ADDRESS==msg.sender);\n        PoliciesBySecu[_actNumber] = _policies;\n    }\n}",
  "sourcePath": "/home/cyril/dev/eth/assuThomas/contracts/Secu.sol",
  "compiler": {
    "name": "solc",
    "version": "0.8.20+commit.a1b79de6.Emscripten.clang"
  },
  "schemaVersion": "3.4.10",
  "updatedAt": "2023-06-23T17:32:22.853Z",
  "devdoc": {
    "kind": "dev",
    "methods": {},
    "version": 1
  },
  "userdoc": {
    "kind": "user",
    "methods": {},
    "version": 1
  }
}